{
  "contractName": "TrustlessTrust",
  "abi": [
    {
      "inputs": [],
      "stateMutability": "nonpayable",
      "type": "constructor"
    },
    {
      "anonymous": false,
      "inputs": [
        {
          "indexed": true,
          "internalType": "address",
          "name": "owner",
          "type": "address"
        },
        {
          "indexed": true,
          "internalType": "address",
          "name": "approved",
          "type": "address"
        },
        {
          "indexed": true,
          "internalType": "uint256",
          "name": "tokenId",
          "type": "uint256"
        }
      ],
      "name": "Approval",
      "type": "event"
    },
    {
      "anonymous": false,
      "inputs": [
        {
          "indexed": true,
          "internalType": "address",
          "name": "owner",
          "type": "address"
        },
        {
          "indexed": true,
          "internalType": "address",
          "name": "operator",
          "type": "address"
        },
        {
          "indexed": false,
          "internalType": "bool",
          "name": "approved",
          "type": "bool"
        }
      ],
      "name": "ApprovalForAll",
      "type": "event"
    },
    {
      "anonymous": false,
      "inputs": [
        {
          "indexed": true,
          "internalType": "address",
          "name": "actor",
          "type": "address"
        },
        {
          "indexed": true,
          "internalType": "uint256",
          "name": "tokenId",
          "type": "uint256"
        }
      ],
      "name": "LogDeposit",
      "type": "event"
    },
    {
      "anonymous": false,
      "inputs": [
        {
          "indexed": true,
          "internalType": "address",
          "name": "tokenAddress",
          "type": "address"
        },
        {
          "indexed": true,
          "internalType": "address",
          "name": "actor",
          "type": "address"
        },
        {
          "indexed": true,
          "internalType": "uint256",
          "name": "tokenId",
          "type": "uint256"
        }
      ],
      "name": "LogInsufficientBalance",
      "type": "event"
    },
    {
      "anonymous": false,
      "inputs": [
        {
          "indexed": true,
          "internalType": "address",
          "name": "actor",
          "type": "address"
        },
        {
          "indexed": true,
          "internalType": "uint256",
          "name": "tokenId",
          "type": "uint256"
        }
      ],
      "name": "LogWithdrawal",
      "type": "event"
    },
    {
      "anonymous": false,
      "inputs": [
        {
          "indexed": true,
          "internalType": "address",
          "name": "tokenAddress",
          "type": "address"
        },
        {
          "indexed": true,
          "internalType": "address",
          "name": "actor",
          "type": "address"
        },
        {
          "indexed": true,
          "internalType": "uint256",
          "name": "tokenId",
          "type": "uint256"
        }
      ],
      "name": "LogWithdrawalError",
      "type": "event"
    },
    {
      "anonymous": false,
      "inputs": [
        {
          "indexed": false,
          "internalType": "address",
          "name": "account",
          "type": "address"
        }
      ],
      "name": "Paused",
      "type": "event"
    },
    {
      "anonymous": false,
      "inputs": [
        {
          "indexed": true,
          "internalType": "bytes32",
          "name": "role",
          "type": "bytes32"
        },
        {
          "indexed": true,
          "internalType": "bytes32",
          "name": "previousAdminRole",
          "type": "bytes32"
        },
        {
          "indexed": true,
          "internalType": "bytes32",
          "name": "newAdminRole",
          "type": "bytes32"
        }
      ],
      "name": "RoleAdminChanged",
      "type": "event"
    },
    {
      "anonymous": false,
      "inputs": [
        {
          "indexed": true,
          "internalType": "bytes32",
          "name": "role",
          "type": "bytes32"
        },
        {
          "indexed": true,
          "internalType": "address",
          "name": "account",
          "type": "address"
        },
        {
          "indexed": true,
          "internalType": "address",
          "name": "sender",
          "type": "address"
        }
      ],
      "name": "RoleGranted",
      "type": "event"
    },
    {
      "anonymous": false,
      "inputs": [
        {
          "indexed": true,
          "internalType": "bytes32",
          "name": "role",
          "type": "bytes32"
        },
        {
          "indexed": true,
          "internalType": "address",
          "name": "account",
          "type": "address"
        },
        {
          "indexed": true,
          "internalType": "address",
          "name": "sender",
          "type": "address"
        }
      ],
      "name": "RoleRevoked",
      "type": "event"
    },
    {
      "anonymous": false,
      "inputs": [
        {
          "indexed": true,
          "internalType": "address",
          "name": "from",
          "type": "address"
        },
        {
          "indexed": true,
          "internalType": "address",
          "name": "to",
          "type": "address"
        },
        {
          "indexed": true,
          "internalType": "uint256",
          "name": "tokenId",
          "type": "uint256"
        }
      ],
      "name": "Transfer",
      "type": "event"
    },
    {
      "anonymous": false,
      "inputs": [
        {
          "indexed": false,
          "internalType": "address",
          "name": "account",
          "type": "address"
        }
      ],
      "name": "Unpaused",
      "type": "event"
    },
    {
      "inputs": [],
      "name": "DEFAULT_ADMIN_ROLE",
      "outputs": [
        {
          "internalType": "bytes32",
          "name": "",
          "type": "bytes32"
        }
      ],
      "stateMutability": "view",
      "type": "function",
      "constant": true
    },
    {
      "inputs": [],
      "name": "MINTER_ROLE",
      "outputs": [
        {
          "internalType": "bytes32",
          "name": "",
          "type": "bytes32"
        }
      ],
      "stateMutability": "view",
      "type": "function",
      "constant": true
    },
    {
      "inputs": [],
      "name": "PAUSER_ROLE",
      "outputs": [
        {
          "internalType": "bytes32",
          "name": "",
          "type": "bytes32"
        }
      ],
      "stateMutability": "view",
      "type": "function",
      "constant": true
    },
    {
      "inputs": [
        {
          "internalType": "address",
          "name": "to",
          "type": "address"
        },
        {
          "internalType": "uint256",
          "name": "tokenId",
          "type": "uint256"
        }
      ],
      "name": "approve",
      "outputs": [],
      "stateMutability": "nonpayable",
      "type": "function"
    },
    {
      "inputs": [
        {
          "internalType": "address",
          "name": "owner",
          "type": "address"
        }
      ],
      "name": "balanceOf",
      "outputs": [
        {
          "internalType": "uint256",
          "name": "",
          "type": "uint256"
        }
      ],
      "stateMutability": "view",
      "type": "function",
      "constant": true
    },
    {
      "inputs": [
        {
          "internalType": "uint256",
          "name": "tokenId",
          "type": "uint256"
        }
      ],
      "name": "burn",
      "outputs": [],
      "stateMutability": "nonpayable",
      "type": "function"
    },
    {
      "inputs": [
        {
          "internalType": "uint256",
          "name": "tokenId",
          "type": "uint256"
        }
      ],
      "name": "getApproved",
      "outputs": [
        {
          "internalType": "address",
          "name": "",
          "type": "address"
        }
      ],
      "stateMutability": "view",
      "type": "function",
      "constant": true
    },
    {
      "inputs": [
        {
          "internalType": "bytes32",
          "name": "role",
          "type": "bytes32"
        }
      ],
      "name": "getRoleAdmin",
      "outputs": [
        {
          "internalType": "bytes32",
          "name": "",
          "type": "bytes32"
        }
      ],
      "stateMutability": "view",
      "type": "function",
      "constant": true
    },
    {
      "inputs": [
        {
          "internalType": "bytes32",
          "name": "role",
          "type": "bytes32"
        },
        {
          "internalType": "uint256",
          "name": "index",
          "type": "uint256"
        }
      ],
      "name": "getRoleMember",
      "outputs": [
        {
          "internalType": "address",
          "name": "",
          "type": "address"
        }
      ],
      "stateMutability": "view",
      "type": "function",
      "constant": true
    },
    {
      "inputs": [
        {
          "internalType": "bytes32",
          "name": "role",
          "type": "bytes32"
        }
      ],
      "name": "getRoleMemberCount",
      "outputs": [
        {
          "internalType": "uint256",
          "name": "",
          "type": "uint256"
        }
      ],
      "stateMutability": "view",
      "type": "function",
      "constant": true
    },
    {
      "inputs": [
        {
          "internalType": "bytes32",
          "name": "role",
          "type": "bytes32"
        },
        {
          "internalType": "address",
          "name": "account",
          "type": "address"
        }
      ],
      "name": "grantRole",
      "outputs": [],
      "stateMutability": "nonpayable",
      "type": "function"
    },
    {
      "inputs": [
        {
          "internalType": "bytes32",
          "name": "role",
          "type": "bytes32"
        },
        {
          "internalType": "address",
          "name": "account",
          "type": "address"
        }
      ],
      "name": "hasRole",
      "outputs": [
        {
          "internalType": "bool",
          "name": "",
          "type": "bool"
        }
      ],
      "stateMutability": "view",
      "type": "function",
      "constant": true
    },
    {
      "inputs": [
        {
          "internalType": "address",
          "name": "owner",
          "type": "address"
        },
        {
          "internalType": "address",
          "name": "operator",
          "type": "address"
        }
      ],
      "name": "isApprovedForAll",
      "outputs": [
        {
          "internalType": "bool",
          "name": "",
          "type": "bool"
        }
      ],
      "stateMutability": "view",
      "type": "function",
      "constant": true
    },
    {
      "inputs": [
        {
          "internalType": "address",
          "name": "to",
          "type": "address"
        }
      ],
      "name": "mint",
      "outputs": [],
      "stateMutability": "nonpayable",
      "type": "function"
    },
    {
      "inputs": [],
      "name": "name",
      "outputs": [
        {
          "internalType": "string",
          "name": "",
          "type": "string"
        }
      ],
      "stateMutability": "view",
      "type": "function",
      "constant": true
    },
    {
      "inputs": [
        {
          "internalType": "uint256",
          "name": "tokenId",
          "type": "uint256"
        }
      ],
      "name": "ownerOf",
      "outputs": [
        {
          "internalType": "address",
          "name": "",
          "type": "address"
        }
      ],
      "stateMutability": "view",
      "type": "function",
      "constant": true
    },
    {
      "inputs": [],
      "name": "pause",
      "outputs": [],
      "stateMutability": "nonpayable",
      "type": "function"
    },
    {
      "inputs": [],
      "name": "paused",
      "outputs": [
        {
          "internalType": "bool",
          "name": "",
          "type": "bool"
        }
      ],
      "stateMutability": "view",
      "type": "function",
      "constant": true
    },
    {
      "inputs": [
        {
          "internalType": "bytes32",
          "name": "role",
          "type": "bytes32"
        },
        {
          "internalType": "address",
          "name": "account",
          "type": "address"
        }
      ],
      "name": "renounceRole",
      "outputs": [],
      "stateMutability": "nonpayable",
      "type": "function"
    },
    {
      "inputs": [
        {
          "internalType": "bytes32",
          "name": "role",
          "type": "bytes32"
        },
        {
          "internalType": "address",
          "name": "account",
          "type": "address"
        }
      ],
      "name": "revokeRole",
      "outputs": [],
      "stateMutability": "nonpayable",
      "type": "function"
    },
    {
      "inputs": [
        {
          "internalType": "address",
          "name": "from",
          "type": "address"
        },
        {
          "internalType": "address",
          "name": "to",
          "type": "address"
        },
        {
          "internalType": "uint256",
          "name": "tokenId",
          "type": "uint256"
        }
      ],
      "name": "safeTransferFrom",
      "outputs": [],
      "stateMutability": "nonpayable",
      "type": "function"
    },
    {
      "inputs": [
        {
          "internalType": "address",
          "name": "from",
          "type": "address"
        },
        {
          "internalType": "address",
          "name": "to",
          "type": "address"
        },
        {
          "internalType": "uint256",
          "name": "tokenId",
          "type": "uint256"
        },
        {
          "internalType": "bytes",
          "name": "_data",
          "type": "bytes"
        }
      ],
      "name": "safeTransferFrom",
      "outputs": [],
      "stateMutability": "nonpayable",
      "type": "function"
    },
    {
      "inputs": [
        {
          "internalType": "address",
          "name": "operator",
          "type": "address"
        },
        {
          "internalType": "bool",
          "name": "approved",
          "type": "bool"
        }
      ],
      "name": "setApprovalForAll",
      "outputs": [],
      "stateMutability": "nonpayable",
      "type": "function"
    },
    {
      "inputs": [
        {
          "internalType": "bytes4",
          "name": "interfaceId",
          "type": "bytes4"
        }
      ],
      "name": "supportsInterface",
      "outputs": [
        {
          "internalType": "bool",
          "name": "",
          "type": "bool"
        }
      ],
      "stateMutability": "view",
      "type": "function",
      "constant": true
    },
    {
      "inputs": [],
      "name": "symbol",
      "outputs": [
        {
          "internalType": "string",
          "name": "",
          "type": "string"
        }
      ],
      "stateMutability": "view",
      "type": "function",
      "constant": true
    },
    {
      "inputs": [
        {
          "internalType": "uint256",
          "name": "index",
          "type": "uint256"
        }
      ],
      "name": "tokenByIndex",
      "outputs": [
        {
          "internalType": "uint256",
          "name": "",
          "type": "uint256"
        }
      ],
      "stateMutability": "view",
      "type": "function",
      "constant": true
    },
    {
      "inputs": [
        {
          "internalType": "address",
          "name": "owner",
          "type": "address"
        },
        {
          "internalType": "uint256",
          "name": "index",
          "type": "uint256"
        }
      ],
      "name": "tokenOfOwnerByIndex",
      "outputs": [
        {
          "internalType": "uint256",
          "name": "",
          "type": "uint256"
        }
      ],
      "stateMutability": "view",
      "type": "function",
      "constant": true
    },
    {
      "inputs": [
        {
          "internalType": "uint256",
          "name": "tokenId",
          "type": "uint256"
        }
      ],
      "name": "tokenURI",
      "outputs": [
        {
          "internalType": "string",
          "name": "",
          "type": "string"
        }
      ],
      "stateMutability": "view",
      "type": "function",
      "constant": true
    },
    {
      "inputs": [],
      "name": "totalSupply",
      "outputs": [
        {
          "internalType": "uint256",
          "name": "",
          "type": "uint256"
        }
      ],
      "stateMutability": "view",
      "type": "function",
      "constant": true
    },
    {
      "inputs": [],
      "name": "unpause",
      "outputs": [],
      "stateMutability": "nonpayable",
      "type": "function"
    },
    {
      "inputs": [
        {
          "internalType": "uint256",
          "name": "tokenId",
          "type": "uint256"
        },
        {
          "internalType": "address[]",
          "name": "assetAddresses",
          "type": "address[]"
        },
        {
          "internalType": "uint256[]",
          "name": "assetAmounts",
          "type": "uint256[]"
        }
      ],
      "name": "deposit",
      "outputs": [],
      "stateMutability": "nonpayable",
      "type": "function"
    },
    {
      "inputs": [
        {
          "internalType": "uint256",
          "name": "tokenId",
          "type": "uint256"
        },
        {
          "internalType": "address[]",
          "name": "assetAddresses",
          "type": "address[]"
        },
        {
          "internalType": "uint256[]",
          "name": "assetAmounts",
          "type": "uint256[]"
        }
      ],
      "name": "withdraw",
      "outputs": [],
      "stateMutability": "nonpayable",
      "type": "function"
    },
    {
      "inputs": [
        {
          "internalType": "address",
          "name": "_from",
          "type": "address"
        },
        {
          "internalType": "address",
          "name": "_to",
          "type": "address"
        },
        {
          "internalType": "uint256",
          "name": "_tokenId",
          "type": "uint256"
        }
      ],
      "name": "transferFrom",
      "outputs": [],
      "stateMutability": "nonpayable",
      "type": "function"
    }
  ],
  "bytecode": "0x60806040523480156200001157600080fd5b506040518060400160405280600381526020017f544c5400000000000000000000000000000000000000000000000000000000008152506040518060400160405280600f81526020017f54727573746c65737320547275737400000000000000000000000000000000008152506040518060200160405280600081525082828160029080519060200190620000a89291906200043d565b508060039080519060200190620000c19291906200043d565b5050506000600c60006101000a81548160ff02191690831515021790555080600e9080519060200190620000f79291906200043d565b506200011c6000801b62000110620001a760201b60201c565b620001af60201b60201c565b6200015d7f9f2df0fed2c77648de5860a4cc508cd0818c85b8b8a1ab4ceeef8d981c8956a662000151620001a760201b60201c565b620001af60201b60201c565b6200019e7f65d7a28e3265b37a6474929f336521b332c1681b933f6cb9f3376673440d862a62000192620001a760201b60201c565b620001af60201b60201c565b50505062000552565b600033905090565b620001c68282620001f760201b62001d251760201c565b620001f281600160008581526020019081526020016000206200020d60201b62001d331790919060201c565b505050565b6200020982826200024560201b60201c565b5050565b60006200023d836000018373ffffffffffffffffffffffffffffffffffffffff1660001b6200033660201b60201c565b905092915050565b620002578282620003b060201b60201c565b6200033257600160008084815260200190815260200160002060000160008373ffffffffffffffffffffffffffffffffffffffff1673ffffffffffffffffffffffffffffffffffffffff16815260200190815260200160002060006101000a81548160ff021916908315150217905550620002d7620001a760201b60201c565b73ffffffffffffffffffffffffffffffffffffffff168173ffffffffffffffffffffffffffffffffffffffff16837f2f8788117e7eff1d82e926ec794901d17c78024a50270940304540a733656f0d60405160405180910390a45b5050565b60006200034a83836200041a60201b60201c565b620003a5578260000182908060018154018082558091505060019003906000526020600020016000909190919091505582600001805490508360010160008481526020019081526020016000208190555060019050620003aa565b600090505b92915050565b600080600084815260200190815260200160002060000160008373ffffffffffffffffffffffffffffffffffffffff1673ffffffffffffffffffffffffffffffffffffffff16815260200190815260200160002060009054906101000a900460ff16905092915050565b600080836001016000848152602001908152602001600020541415905092915050565b8280546200044b90620004ed565b90600052602060002090601f0160209004810192826200046f5760008555620004bb565b82601f106200048a57805160ff1916838001178555620004bb565b82800160010185558215620004bb579182015b82811115620004ba5782518255916020019190600101906200049d565b5b509050620004ca9190620004ce565b5090565b5b80821115620004e9576000816000905550600101620004cf565b5090565b600060028204905060018216806200050657607f821691505b602082108114156200051d576200051c62000523565b5b50919050565b7f4e487b7100000000000000000000000000000000000000000000000000000000600052602260045260246000fd5b61587380620005626000396000f3fe608060405234801561001057600080fd5b50600436106101fb5760003560e01c80635c975abb1161011a578063a217fddf116100ad578063ca15c8731161007c578063ca15c873146105be578063d5391393146105ee578063d547741f1461060c578063e63ab1e914610628578063e985e9c514610646576101fb565b8063a217fddf14610538578063a22cb46514610556578063b88d4fde14610572578063c87b56dd1461058e576101fb565b80638456cb59116100e95780638456cb59146104b05780639010d07c146104ba57806391d14854146104ea57806395d89b411461051a576101fb565b80635c975abb146104165780636352211e146104345780636a6278421461046457806370a0823114610480576101fb565b80632f2ff15d116101925780633f4ba83a116101615780633f4ba83a146103a457806342842e0e146103ae57806342966c68146103ca5780634f6ccce7146103e6576101fb565b80632f2ff15d146103205780632f745c591461033c57806336568abe1461036c5780633827868a14610388576101fb565b80630d7a41b7116101ce5780630d7a41b71461029a57806318160ddd146102b657806323b872dd146102d4578063248a9ca3146102f0576101fb565b806301ffc9a71461020057806306fdde0314610230578063081812fc1461024e578063095ea7b31461027e575b600080fd5b61021a60048036038101906102159190614009565b610676565b6040516102279190614785565b60405180910390f35b610238610688565b60405161024591906147bb565b60405180910390f35b6102686004803603810190610263919061405b565b61071a565b60405161027591906146be565b60405180910390f35b61029860048036038101906102939190613f03565b61079f565b005b6102b460048036038101906102af9190614084565b6108b7565b005b6102be610be7565b6040516102cb9190614b3d565b60405180910390f35b6102ee60048036038101906102e99190613dfd565b610bf4565b005b61030a60048036038101906103059190613f68565b610c3d565b60405161031791906147a0565b60405180910390f35b61033a60048036038101906103359190613f91565b610c5c565b005b61035660048036038101906103519190613f03565b610c90565b6040516103639190614b3d565b60405180910390f35b61038660048036038101906103819190613f91565b610d35565b005b6103a2600480360381019061039d9190614084565b610d69565b005b6103ac61141d565b005b6103c860048036038101906103c39190613dfd565b611497565b005b6103e460048036038101906103df919061405b565b6114b7565b005b61040060048036038101906103fb919061405b565b611513565b60405161040d9190614b3d565b60405180910390f35b61041e6115aa565b60405161042b9190614785565b60405180910390f35b61044e6004803603810190610449919061405b565b6115c1565b60405161045b91906146be565b60405180910390f35b61047e60048036038101906104799190613d98565b611673565b005b61049a60048036038101906104959190613d98565b611703565b6040516104a79190614b3d565b60405180910390f35b6104b86117bb565b005b6104d460048036038101906104cf9190613fcd565b611835565b6040516104e191906146be565b60405180910390f35b61050460048036038101906104ff9190613f91565b611864565b6040516105119190614785565b60405180910390f35b6105226118ce565b60405161052f91906147bb565b60405180910390f35b610540611960565b60405161054d91906147a0565b60405180910390f35b610570600480360381019061056b9190613ec7565b611967565b005b61058c60048036038101906105879190613e4c565b611ae8565b005b6105a860048036038101906105a3919061405b565b611b4a565b6040516105b591906147bb565b60405180910390f35b6105d860048036038101906105d39190613f68565b611bf1565b6040516105e59190614b3d565b60405180910390f35b6105f6611c15565b60405161060391906147a0565b60405180910390f35b61062660048036038101906106219190613f91565b611c39565b005b610630611c6d565b60405161063d91906147a0565b60405180910390f35b610660600480360381019061065b9190613dc1565b611c91565b60405161066d9190614785565b60405180910390f35b600061068182611d63565b9050919050565b60606002805461069790614e53565b80601f01602080910402602001604051908101604052809291908181526020018280546106c390614e53565b80156107105780601f106106e557610100808354040283529160200191610710565b820191906000526020600020905b8154815290600101906020018083116106f357829003601f168201915b5050505050905090565b600061072582611ddd565b610764576040517f08c379a000000000000000000000000000000000000000000000000000000000815260040161075b906149bd565b60405180910390fd5b6006600083815260200190815260200160002060009054906101000a900473ffffffffffffffffffffffffffffffffffffffff169050919050565b60006107aa826115c1565b90508073ffffffffffffffffffffffffffffffffffffffff168373ffffffffffffffffffffffffffffffffffffffff16141561081b576040517f08c379a000000000000000000000000000000000000000000000000000000000815260040161081290614a3d565b60405180910390fd5b8073ffffffffffffffffffffffffffffffffffffffff1661083a611e49565b73ffffffffffffffffffffffffffffffffffffffff161480610869575061086881610863611e49565b611c91565b5b6108a8576040517f08c379a000000000000000000000000000000000000000000000000000000000815260040161089f9061493d565b60405180910390fd5b6108b28383611e51565b505050565b823373ffffffffffffffffffffffffffffffffffffffff166108d8826115c1565b73ffffffffffffffffffffffffffffffffffffffff161461092e576040517f08c379a000000000000000000000000000000000000000000000000000000000815260040161092590614a1d565b60405180910390fd5b8151835114610972576040517f08c379a000000000000000000000000000000000000000000000000000000000815260040161096990614b1d565b60405180910390fd5b60008351905060005b81811015610b9b5760008582815181106109be577f4e487b7100000000000000000000000000000000000000000000000000000000600052603260045260246000fd5b602002602001015190508073ffffffffffffffffffffffffffffffffffffffff166323b872dd3330888681518110610a1f577f4e487b7100000000000000000000000000000000000000000000000000000000600052603260045260246000fd5b60200260200101516040518463ffffffff1660e01b8152600401610a45939291906146d9565b602060405180830381600087803b158015610a5f57600080fd5b505af1158015610a73573d6000803e3d6000fd5b505050506040513d601f19601f82011682018060405250810190610a979190613f3f565b610aa057600080fd5b848281518110610ad9577f4e487b7100000000000000000000000000000000000000000000000000000000600052603260045260246000fd5b6020026020010151600f60008981526020019081526020016000206000888581518110610b2f577f4e487b7100000000000000000000000000000000000000000000000000000000600052603260045260246000fd5b602002602001015173ffffffffffffffffffffffffffffffffffffffff1673ffffffffffffffffffffffffffffffffffffffff1681526020019081526020016000206000828254610b809190614c54565b92505081905550508080610b9390614eb6565b91505061097b565b50843373ffffffffffffffffffffffffffffffffffffffff167f1b851e1031ef35a238e6c67d0c7991162390df915f70eaf9098dbf0b175a619860405160405180910390a35050505050565b6000600a80549050905090565b3073ffffffffffffffffffffffffffffffffffffffff168273ffffffffffffffffffffffffffffffffffffffff161415610c2d57600080fd5b610c38838383611f0a565b505050565b6000806000838152602001908152602001600020600101549050919050565b610c668282611f6a565b610c8b8160016000858152602001908152602001600020611d3390919063ffffffff16565b505050565b6000610c9b83611703565b8210610cdc576040517f08c379a0000000000000000000000000000000000000000000000000000000008152600401610cd39061483d565b60405180910390fd5b600860008473ffffffffffffffffffffffffffffffffffffffff1673ffffffffffffffffffffffffffffffffffffffff168152602001908152602001600020600083815260200190815260200160002054905092915050565b610d3f8282611f93565b610d64816001600085815260200190815260200160002061201690919063ffffffff16565b505050565b823373ffffffffffffffffffffffffffffffffffffffff16610d8a826115c1565b73ffffffffffffffffffffffffffffffffffffffff1614610de0576040517f08c379a0000000000000000000000000000000000000000000000000000000008152600401610dd790614a1d565b60405180910390fd5b8151835114610e24576040517f08c379a0000000000000000000000000000000000000000000000000000000008152600401610e1b90614b1d565b60405180910390fd5b60005b83518110156113d2576000600f60008781526020019081526020016000206000868481518110610e80577f4e487b7100000000000000000000000000000000000000000000000000000000600052603260045260246000fd5b602002602001015173ffffffffffffffffffffffffffffffffffffffff1673ffffffffffffffffffffffffffffffffffffffff1681526020019081526020016000205490506000600f60008881526020019081526020016000206000878581518110610f15577f4e487b7100000000000000000000000000000000000000000000000000000000600052603260045260246000fd5b602002602001015173ffffffffffffffffffffffffffffffffffffffff1673ffffffffffffffffffffffffffffffffffffffff16815260200190815260200160002081905550838281518110610f94577f4e487b7100000000000000000000000000000000000000000000000000000000600052603260045260246000fd5b6020026020010151600f60008881526020019081526020016000206000878581518110610fea577f4e487b7100000000000000000000000000000000000000000000000000000000600052603260045260246000fd5b602002602001015173ffffffffffffffffffffffffffffffffffffffff1673ffffffffffffffffffffffffffffffffffffffff16815260200190815260200160002054116110d257853373ffffffffffffffffffffffffffffffffffffffff16868481518110611083577f4e487b7100000000000000000000000000000000000000000000000000000000600052603260045260246000fd5b602002602001015173ffffffffffffffffffffffffffffffffffffffff167ff64fb5dbe1f9be11bb31ed7ee20099124c533e75903acb2f4c7ef2d0498e667b60405160405180910390a46113be565b600073ffffffffffffffffffffffffffffffffffffffff16858381518110611123577f4e487b7100000000000000000000000000000000000000000000000000000000600052603260045260246000fd5b602002602001015173ffffffffffffffffffffffffffffffffffffffff16146113bd576000858381518110611181577f4e487b7100000000000000000000000000000000000000000000000000000000600052603260045260246000fd5b602002602001015190506000808273ffffffffffffffffffffffffffffffffffffffff1663a9059cbb60e01b338988815181106111e7577f4e487b7100000000000000000000000000000000000000000000000000000000600052603260045260246000fd5b602002602001015160405160200161120092919061475c565b604051602081830303815290604052604051602001611220929190614621565b60405160208183030381529060405260405161123c9190614649565b6000604051808303816000865af19150503d8060008114611279576040519150601f19603f3d011682016040523d82523d6000602084013e61127e565b606091505b5091509150816113b95783600f60008b815260200190815260200160002060008a88815181106112d7577f4e487b7100000000000000000000000000000000000000000000000000000000600052603260045260246000fd5b602002602001015173ffffffffffffffffffffffffffffffffffffffff1673ffffffffffffffffffffffffffffffffffffffff16815260200190815260200160002081905550883373ffffffffffffffffffffffffffffffffffffffff1689878151811061136e577f4e487b7100000000000000000000000000000000000000000000000000000000600052603260045260246000fd5b602002602001015173ffffffffffffffffffffffffffffffffffffffff167ffd1d276e644c7ee3eb3e39a179217d5d2275a239092c1d9dd368b054733b160760405160405180910390a45b5050505b5b5080806113ca90614eb6565b915050610e27565b50833373ffffffffffffffffffffffffffffffffffffffff167fb4214c8c54fc7442f36d3682f59aebaf09358a4431835b30efb29d52cf9e1e9160405160405180910390a350505050565b61144e7f65d7a28e3265b37a6474929f336521b332c1681b933f6cb9f3376673440d862a611449611e49565b611864565b61148d576040517f08c379a000000000000000000000000000000000000000000000000000000000815260040161148490614add565b60405180910390fd5b611495612046565b565b6114b283838360405180602001604052806000815250611ae8565b505050565b6114c86114c2611e49565b826120e8565b611507576040517f08c379a00000000000000000000000000000000000000000000000000000000081526004016114fe90614abd565b60405180910390fd5b611510816121c6565b50565b600061151d610be7565b821061155e576040517f08c379a000000000000000000000000000000000000000000000000000000000815260040161155590614a7d565b60405180910390fd5b600a8281548110611598577f4e487b7100000000000000000000000000000000000000000000000000000000600052603260045260246000fd5b90600052602060002001549050919050565b6000600c60009054906101000a900460ff16905090565b6000806004600084815260200190815260200160002060009054906101000a900473ffffffffffffffffffffffffffffffffffffffff169050600073ffffffffffffffffffffffffffffffffffffffff168173ffffffffffffffffffffffffffffffffffffffff16141561166a576040517f08c379a00000000000000000000000000000000000000000000000000000000081526004016116619061497d565b60405180910390fd5b80915050919050565b6116a47f9f2df0fed2c77648de5860a4cc508cd0818c85b8b8a1ab4ceeef8d981c8956a661169f611e49565b611864565b6116e3576040517f08c379a00000000000000000000000000000000000000000000000000000000081526004016116da90614a9d565b60405180910390fd5b6116f6816116f1600d6122d7565b6122e5565b611700600d6124b3565b50565b60008073ffffffffffffffffffffffffffffffffffffffff168273ffffffffffffffffffffffffffffffffffffffff161415611774576040517f08c379a000000000000000000000000000000000000000000000000000000000815260040161176b9061495d565b60405180910390fd5b600560008373ffffffffffffffffffffffffffffffffffffffff1673ffffffffffffffffffffffffffffffffffffffff168152602001908152602001600020549050919050565b6117ec7f65d7a28e3265b37a6474929f336521b332c1681b933f6cb9f3376673440d862a6117e7611e49565b611864565b61182b576040517f08c379a00000000000000000000000000000000000000000000000000000000081526004016118229061489d565b60405180910390fd5b6118336124c9565b565b600061185c826001600086815260200190815260200160002061256c90919063ffffffff16565b905092915050565b600080600084815260200190815260200160002060000160008373ffffffffffffffffffffffffffffffffffffffff1673ffffffffffffffffffffffffffffffffffffffff16815260200190815260200160002060009054906101000a900460ff16905092915050565b6060600380546118dd90614e53565b80601f016020809104026020016040519081016040528092919081815260200182805461190990614e53565b80156119565780601f1061192b57610100808354040283529160200191611956565b820191906000526020600020905b81548152906001019060200180831161193957829003601f168201915b5050505050905090565b6000801b81565b61196f611e49565b73ffffffffffffffffffffffffffffffffffffffff168273ffffffffffffffffffffffffffffffffffffffff1614156119dd576040517f08c379a00000000000000000000000000000000000000000000000000000000081526004016119d4906148dd565b60405180910390fd5b80600760006119ea611e49565b73ffffffffffffffffffffffffffffffffffffffff1673ffffffffffffffffffffffffffffffffffffffff16815260200190815260200160002060008473ffffffffffffffffffffffffffffffffffffffff1673ffffffffffffffffffffffffffffffffffffffff16815260200190815260200160002060006101000a81548160ff0219169083151502179055508173ffffffffffffffffffffffffffffffffffffffff16611a97611e49565b73ffffffffffffffffffffffffffffffffffffffff167f17307eab39ab6107e8899845ad3d59bd9653f200f220920489ca2b5937696c3183604051611adc9190614785565b60405180910390a35050565b611af9611af3611e49565b836120e8565b611b38576040517f08c379a0000000000000000000000000000000000000000000000000000000008152600401611b2f90614a5d565b60405180910390fd5b611b4484848484612586565b50505050565b6060611b5582611ddd565b611b94576040517f08c379a0000000000000000000000000000000000000000000000000000000008152600401611b8b906149fd565b60405180910390fd5b6000611b9e6125e2565b90506000815111611bbe5760405180602001604052806000815250611be9565b80611bc884612674565b604051602001611bd9929190614660565b6040516020818303038152906040525b915050919050565b6000611c0e60016000848152602001908152602001600020612821565b9050919050565b7f9f2df0fed2c77648de5860a4cc508cd0818c85b8b8a1ab4ceeef8d981c8956a681565b611c438282612836565b611c68816001600085815260200190815260200160002061201690919063ffffffff16565b505050565b7f65d7a28e3265b37a6474929f336521b332c1681b933f6cb9f3376673440d862a81565b6000600760008473ffffffffffffffffffffffffffffffffffffffff1673ffffffffffffffffffffffffffffffffffffffff16815260200190815260200160002060008373ffffffffffffffffffffffffffffffffffffffff1673ffffffffffffffffffffffffffffffffffffffff16815260200190815260200160002060009054906101000a900460ff16905092915050565b611d2f828261285f565b5050565b6000611d5b836000018373ffffffffffffffffffffffffffffffffffffffff1660001b61293f565b905092915050565b60007f780e9d63000000000000000000000000000000000000000000000000000000007bffffffffffffffffffffffffffffffffffffffffffffffffffffffff1916827bffffffffffffffffffffffffffffffffffffffffffffffffffffffff19161480611dd65750611dd5826129af565b5b9050919050565b60008073ffffffffffffffffffffffffffffffffffffffff166004600084815260200190815260200160002060009054906101000a900473ffffffffffffffffffffffffffffffffffffffff1673ffffffffffffffffffffffffffffffffffffffff1614159050919050565b600033905090565b816006600083815260200190815260200160002060006101000a81548173ffffffffffffffffffffffffffffffffffffffff021916908373ffffffffffffffffffffffffffffffffffffffff160217905550808273ffffffffffffffffffffffffffffffffffffffff16611ec4836115c1565b73ffffffffffffffffffffffffffffffffffffffff167f8c5be1e5ebec7d5bd14f71427d1e84f3dd0314c0f7b2291e5b200ac8c7c3b92560405160405180910390a45050565b611f1b611f15611e49565b826120e8565b611f5a576040517f08c379a0000000000000000000000000000000000000000000000000000000008152600401611f5190614a5d565b60405180910390fd5b611f65838383612a91565b505050565b611f7382610c3d565b611f8481611f7f611e49565b612ced565b611f8e838361285f565b505050565b611f9b611e49565b73ffffffffffffffffffffffffffffffffffffffff168173ffffffffffffffffffffffffffffffffffffffff1614612008576040517f08c379a0000000000000000000000000000000000000000000000000000000008152600401611fff90614afd565b60405180910390fd5b6120128282612d8a565b5050565b600061203e836000018373ffffffffffffffffffffffffffffffffffffffff1660001b612e6b565b905092915050565b61204e6115aa565b61208d576040517f08c379a00000000000000000000000000000000000000000000000000000000081526004016120849061481d565b60405180910390fd5b6000600c60006101000a81548160ff0219169083151502179055507f5db9ee0a495bf2e6ff9c91a7834c1ba4fdd244a5e8aa4e537bd38aeae4b073aa6120d1611e49565b6040516120de91906146be565b60405180910390a1565b60006120f382611ddd565b612132576040517f08c379a0000000000000000000000000000000000000000000000000000000008152600401612129906148fd565b60405180910390fd5b600061213d836115c1565b90508073ffffffffffffffffffffffffffffffffffffffff168473ffffffffffffffffffffffffffffffffffffffff1614806121ac57508373ffffffffffffffffffffffffffffffffffffffff166121948461071a565b73ffffffffffffffffffffffffffffffffffffffff16145b806121bd57506121bc8185611c91565b5b91505092915050565b60006121d1826115c1565b90506121df81600084612ff1565b6121ea600083611e51565b6001600560008373ffffffffffffffffffffffffffffffffffffffff1673ffffffffffffffffffffffffffffffffffffffff168152602001908152602001600020600082825461223a9190614d35565b925050819055506004600083815260200190815260200160002060006101000a81549073ffffffffffffffffffffffffffffffffffffffff021916905581600073ffffffffffffffffffffffffffffffffffffffff168273ffffffffffffffffffffffffffffffffffffffff167fddf252ad1be2c89b69c2b068fc378daa952ba7f163c4a11628f55a4df523b3ef60405160405180910390a45050565b600081600001549050919050565b600073ffffffffffffffffffffffffffffffffffffffff168273ffffffffffffffffffffffffffffffffffffffff161415612355576040517f08c379a000000000000000000000000000000000000000000000000000000000815260040161234c9061499d565b60405180910390fd5b61235e81611ddd565b1561239e576040517f08c379a00000000000000000000000000000000000000000000000000000000081526004016123959061487d565b60405180910390fd5b6123aa60008383612ff1565b6001600560008473ffffffffffffffffffffffffffffffffffffffff1673ffffffffffffffffffffffffffffffffffffffff16815260200190815260200160002060008282546123fa9190614c54565b92505081905550816004600083815260200190815260200160002060006101000a81548173ffffffffffffffffffffffffffffffffffffffff021916908373ffffffffffffffffffffffffffffffffffffffff160217905550808273ffffffffffffffffffffffffffffffffffffffff16600073ffffffffffffffffffffffffffffffffffffffff167fddf252ad1be2c89b69c2b068fc378daa952ba7f163c4a11628f55a4df523b3ef60405160405180910390a45050565b6001816000016000828254019250508190555050565b6124d16115aa565b15612511576040517f08c379a00000000000000000000000000000000000000000000000000000000081526004016125089061491d565b60405180910390fd5b6001600c60006101000a81548160ff0219169083151502179055507f62e78cea01bee320cd4e420270b5ea74000d11b0c9f74754ebdbfc544b05a258612555611e49565b60405161256291906146be565b60405180910390a1565b600061257b8360000183613001565b60001c905092915050565b612591848484612a91565b61259d84848484613052565b6125dc576040517f08c379a00000000000000000000000000000000000000000000000000000000081526004016125d39061485d565b60405180910390fd5b50505050565b6060600e80546125f190614e53565b80601f016020809104026020016040519081016040528092919081815260200182805461261d90614e53565b801561266a5780601f1061263f5761010080835404028352916020019161266a565b820191906000526020600020905b81548152906001019060200180831161264d57829003601f168201915b5050505050905090565b606060008214156126bc576040518060400160405280600181526020017f3000000000000000000000000000000000000000000000000000000000000000815250905061281c565b600082905060005b600082146126ee5780806126d790614eb6565b915050600a826126e79190614caa565b91506126c4565b60008167ffffffffffffffff811115612730577f4e487b7100000000000000000000000000000000000000000000000000000000600052604160045260246000fd5b6040519080825280601f01601f1916602001820160405280156127625781602001600182028036833780820191505090505b5090505b600085146128155760018261277b9190614d35565b9150600a8561278a9190614f09565b60306127969190614c54565b60f81b8183815181106127d2577f4e487b7100000000000000000000000000000000000000000000000000000000600052603260045260246000fd5b60200101907effffffffffffffffffffffffffffffffffffffffffffffffffffffffffffff1916908160001a905350600a8561280e9190614caa565b9450612766565b8093505050505b919050565b600061282f826000016131e9565b9050919050565b61283f82610c3d565b6128508161284b611e49565b612ced565b61285a8383612d8a565b505050565b6128698282611864565b61293b57600160008084815260200190815260200160002060000160008373ffffffffffffffffffffffffffffffffffffffff1673ffffffffffffffffffffffffffffffffffffffff16815260200190815260200160002060006101000a81548160ff0219169083151502179055506128e0611e49565b73ffffffffffffffffffffffffffffffffffffffff168173ffffffffffffffffffffffffffffffffffffffff16837f2f8788117e7eff1d82e926ec794901d17c78024a50270940304540a733656f0d60405160405180910390a45b5050565b600061294b83836131fa565b6129a45782600001829080600181540180825580915050600190039060005260206000200160009091909190915055826000018054905083600101600084815260200190815260200160002081905550600190506129a9565b600090505b92915050565b60007f80ac58cd000000000000000000000000000000000000000000000000000000007bffffffffffffffffffffffffffffffffffffffffffffffffffffffff1916827bffffffffffffffffffffffffffffffffffffffffffffffffffffffff19161480612a7a57507f5b5e139f000000000000000000000000000000000000000000000000000000007bffffffffffffffffffffffffffffffffffffffffffffffffffffffff1916827bffffffffffffffffffffffffffffffffffffffffffffffffffffffff1916145b80612a8a5750612a898261321d565b5b9050919050565b8273ffffffffffffffffffffffffffffffffffffffff16612ab1826115c1565b73ffffffffffffffffffffffffffffffffffffffff1614612b07576040517f08c379a0000000000000000000000000000000000000000000000000000000008152600401612afe906149dd565b60405180910390fd5b600073ffffffffffffffffffffffffffffffffffffffff168273ffffffffffffffffffffffffffffffffffffffff161415612b77576040517f08c379a0000000000000000000000000000000000000000000000000000000008152600401612b6e906148bd565b60405180910390fd5b612b82838383612ff1565b612b8d600082611e51565b6001600560008573ffffffffffffffffffffffffffffffffffffffff1673ffffffffffffffffffffffffffffffffffffffff1681526020019081526020016000206000828254612bdd9190614d35565b925050819055506001600560008473ffffffffffffffffffffffffffffffffffffffff1673ffffffffffffffffffffffffffffffffffffffff1681526020019081526020016000206000828254612c349190614c54565b92505081905550816004600083815260200190815260200160002060006101000a81548173ffffffffffffffffffffffffffffffffffffffff021916908373ffffffffffffffffffffffffffffffffffffffff160217905550808273ffffffffffffffffffffffffffffffffffffffff168473ffffffffffffffffffffffffffffffffffffffff167fddf252ad1be2c89b69c2b068fc378daa952ba7f163c4a11628f55a4df523b3ef60405160405180910390a4505050565b612cf78282611864565b612d8657612d1c8173ffffffffffffffffffffffffffffffffffffffff166014613297565b612d2a8360001c6020613297565b604051602001612d3b929190614684565b6040516020818303038152906040526040517f08c379a0000000000000000000000000000000000000000000000000000000008152600401612d7d91906147bb565b60405180910390fd5b5050565b612d948282611864565b15612e6757600080600084815260200190815260200160002060000160008373ffffffffffffffffffffffffffffffffffffffff1673ffffffffffffffffffffffffffffffffffffffff16815260200190815260200160002060006101000a81548160ff021916908315150217905550612e0c611e49565b73ffffffffffffffffffffffffffffffffffffffff168173ffffffffffffffffffffffffffffffffffffffff16837ff6391f5c32d9c69d2a47ea670b442974b53935d1edc7fd64eb21e047a839171b60405160405180910390a45b5050565b60008083600101600084815260200190815260200160002054905060008114612fe5576000600182612e9d9190614d35565b9050600060018660000180549050612eb59190614d35565b9050818114612f70576000866000018281548110612efc577f4e487b7100000000000000000000000000000000000000000000000000000000600052603260045260246000fd5b9060005260206000200154905080876000018481548110612f46577f4e487b7100000000000000000000000000000000000000000000000000000000600052603260045260246000fd5b90600052602060002001819055508387600101600083815260200190815260200160002081905550505b85600001805480612faa577f4e487b7100000000000000000000000000000000000000000000000000000000600052603160045260246000fd5b600190038181906000526020600020016000905590558560010160008681526020019081526020016000206000905560019350505050612feb565b60009150505b92915050565b612ffc838383613591565b505050565b600082600001828154811061303f577f4e487b7100000000000000000000000000000000000000000000000000000000600052603260045260246000fd5b9060005260206000200154905092915050565b60006130738473ffffffffffffffffffffffffffffffffffffffff166135e9565b156131dc578373ffffffffffffffffffffffffffffffffffffffff1663150b7a0261309c611e49565b8786866040518563ffffffff1660e01b81526004016130be9493929190614710565b602060405180830381600087803b1580156130d857600080fd5b505af192505050801561310957506040513d601f19601f820116820180604052508101906131069190614032565b60015b61318c573d8060008114613139576040519150601f19603f3d011682016040523d82523d6000602084013e61313e565b606091505b50600081511415613184576040517f08c379a000000000000000000000000000000000000000000000000000000000815260040161317b9061485d565b60405180910390fd5b805181602001fd5b63150b7a0260e01b7bffffffffffffffffffffffffffffffffffffffffffffffffffffffff1916817bffffffffffffffffffffffffffffffffffffffffffffffffffffffff1916149150506131e1565b600190505b949350505050565b600081600001805490509050919050565b600080836001016000848152602001908152602001600020541415905092915050565b60007f5a05180f000000000000000000000000000000000000000000000000000000007bffffffffffffffffffffffffffffffffffffffffffffffffffffffff1916827bffffffffffffffffffffffffffffffffffffffffffffffffffffffff19161480613290575061328f826135fc565b5b9050919050565b6060600060028360026132aa9190614cdb565b6132b49190614c54565b67ffffffffffffffff8111156132f3577f4e487b7100000000000000000000000000000000000000000000000000000000600052604160045260246000fd5b6040519080825280601f01601f1916602001820160405280156133255781602001600182028036833780820191505090505b5090507f300000000000000000000000000000000000000000000000000000000000000081600081518110613383577f4e487b7100000000000000000000000000000000000000000000000000000000600052603260045260246000fd5b60200101907effffffffffffffffffffffffffffffffffffffffffffffffffffffffffffff1916908160001a9053507f78000000000000000000000000000000000000000000000000000000000000008160018151811061340d577f4e487b7100000000000000000000000000000000000000000000000000000000600052603260045260246000fd5b60200101907effffffffffffffffffffffffffffffffffffffffffffffffffffffffffffff1916908160001a9053506000600184600261344d9190614cdb565b6134579190614c54565b90505b6001811115613543577f3031323334353637383961626364656600000000000000000000000000000000600f8616601081106134bf577f4e487b7100000000000000000000000000000000000000000000000000000000600052603260045260246000fd5b1a60f81b8282815181106134fc577f4e487b7100000000000000000000000000000000000000000000000000000000600052603260045260246000fd5b60200101907effffffffffffffffffffffffffffffffffffffffffffffffffffffffffffff1916908160001a905350600485901c94508061353c90614e29565b905061345a565b5060008414613587576040517f08c379a000000000000000000000000000000000000000000000000000000000815260040161357e906147dd565b60405180910390fd5b8091505092915050565b61359c838383613676565b6135a46115aa565b156135e4576040517f08c379a00000000000000000000000000000000000000000000000000000000081526004016135db906147fd565b60405180910390fd5b505050565b600080823b905060008111915050919050565b60007f7965db0b000000000000000000000000000000000000000000000000000000007bffffffffffffffffffffffffffffffffffffffffffffffffffffffff1916827bffffffffffffffffffffffffffffffffffffffffffffffffffffffff1916148061366f575061366e8261378a565b5b9050919050565b6136818383836137f4565b600073ffffffffffffffffffffffffffffffffffffffff168373ffffffffffffffffffffffffffffffffffffffff1614156136c4576136bf816137f9565b613703565b8173ffffffffffffffffffffffffffffffffffffffff168373ffffffffffffffffffffffffffffffffffffffff1614613702576137018382613842565b5b5b600073ffffffffffffffffffffffffffffffffffffffff168273ffffffffffffffffffffffffffffffffffffffff16141561374657613741816139af565b613785565b8273ffffffffffffffffffffffffffffffffffffffff168273ffffffffffffffffffffffffffffffffffffffff1614613784576137838282613af2565b5b5b505050565b60007f01ffc9a7000000000000000000000000000000000000000000000000000000007bffffffffffffffffffffffffffffffffffffffffffffffffffffffff1916827bffffffffffffffffffffffffffffffffffffffffffffffffffffffff1916149050919050565b505050565b600a80549050600b600083815260200190815260200160002081905550600a81908060018154018082558091505060019003906000526020600020016000909190919091505550565b6000600161384f84611703565b6138599190614d35565b905060006009600084815260200190815260200160002054905081811461393e576000600860008673ffffffffffffffffffffffffffffffffffffffff1673ffffffffffffffffffffffffffffffffffffffff168152602001908152602001600020600084815260200190815260200160002054905080600860008773ffffffffffffffffffffffffffffffffffffffff1673ffffffffffffffffffffffffffffffffffffffff168152602001908152602001600020600084815260200190815260200160002081905550816009600083815260200190815260200160002081905550505b6009600084815260200190815260200160002060009055600860008573ffffffffffffffffffffffffffffffffffffffff1673ffffffffffffffffffffffffffffffffffffffff16815260200190815260200160002060008381526020019081526020016000206000905550505050565b60006001600a805490506139c39190614d35565b90506000600b60008481526020019081526020016000205490506000600a8381548110613a19577f4e487b7100000000000000000000000000000000000000000000000000000000600052603260045260246000fd5b9060005260206000200154905080600a8381548110613a61577f4e487b7100000000000000000000000000000000000000000000000000000000600052603260045260246000fd5b906000526020600020018190555081600b600083815260200190815260200160002081905550600b600085815260200190815260200160002060009055600a805480613ad6577f4e487b7100000000000000000000000000000000000000000000000000000000600052603160045260246000fd5b6001900381819060005260206000200160009055905550505050565b6000613afd83611703565b905081600860008573ffffffffffffffffffffffffffffffffffffffff1673ffffffffffffffffffffffffffffffffffffffff168152602001908152602001600020600083815260200190815260200160002081905550806009600084815260200190815260200160002081905550505050565b6000613b84613b7f84614b7d565b614b58565b90508083825260208201905082856020860282011115613ba357600080fd5b60005b85811015613bd35781613bb98882613c87565b845260208401935060208301925050600181019050613ba6565b5050509392505050565b6000613bf0613beb84614ba9565b614b58565b90508083825260208201905082856020860282011115613c0f57600080fd5b60005b85811015613c3f5781613c258882613d83565b845260208401935060208301925050600181019050613c12565b5050509392505050565b6000613c5c613c5784614bd5565b614b58565b905082815260208101848484011115613c7457600080fd5b613c7f848285614de7565b509392505050565b600081359050613c96816157ca565b92915050565b600082601f830112613cad57600080fd5b8135613cbd848260208601613b71565b91505092915050565b600082601f830112613cd757600080fd5b8135613ce7848260208601613bdd565b91505092915050565b600081359050613cff816157e1565b92915050565b600081519050613d14816157e1565b92915050565b600081359050613d29816157f8565b92915050565b600081359050613d3e8161580f565b92915050565b600081519050613d538161580f565b92915050565b600082601f830112613d6a57600080fd5b8135613d7a848260208601613c49565b91505092915050565b600081359050613d9281615826565b92915050565b600060208284031215613daa57600080fd5b6000613db884828501613c87565b91505092915050565b60008060408385031215613dd457600080fd5b6000613de285828601613c87565b9250506020613df385828601613c87565b9150509250929050565b600080600060608486031215613e1257600080fd5b6000613e2086828701613c87565b9350506020613e3186828701613c87565b9250506040613e4286828701613d83565b9150509250925092565b60008060008060808587031215613e6257600080fd5b6000613e7087828801613c87565b9450506020613e8187828801613c87565b9350506040613e9287828801613d83565b925050606085013567ffffffffffffffff811115613eaf57600080fd5b613ebb87828801613d59565b91505092959194509250565b60008060408385031215613eda57600080fd5b6000613ee885828601613c87565b9250506020613ef985828601613cf0565b9150509250929050565b60008060408385031215613f1657600080fd5b6000613f2485828601613c87565b9250506020613f3585828601613d83565b9150509250929050565b600060208284031215613f5157600080fd5b6000613f5f84828501613d05565b91505092915050565b600060208284031215613f7a57600080fd5b6000613f8884828501613d1a565b91505092915050565b60008060408385031215613fa457600080fd5b6000613fb285828601613d1a565b9250506020613fc385828601613c87565b9150509250929050565b60008060408385031215613fe057600080fd5b6000613fee85828601613d1a565b9250506020613fff85828601613d83565b9150509250929050565b60006020828403121561401b57600080fd5b600061402984828501613d2f565b91505092915050565b60006020828403121561404457600080fd5b600061405284828501613d44565b91505092915050565b60006020828403121561406d57600080fd5b600061407b84828501613d83565b91505092915050565b60008060006060848603121561409957600080fd5b60006140a786828701613d83565b935050602084013567ffffffffffffffff8111156140c457600080fd5b6140d086828701613c9c565b925050604084013567ffffffffffffffff8111156140ed57600080fd5b6140f986828701613cc6565b9150509250925092565b61410c81614d69565b82525050565b61411b81614d7b565b82525050565b61412a81614d87565b82525050565b61414161413c82614d91565b614eff565b82525050565b600061415282614c06565b61415c8185614c1c565b935061416c818560208601614df6565b61417581614ff6565b840191505092915050565b600061418b82614c06565b6141958185614c2d565b93506141a5818560208601614df6565b80840191505092915050565b60006141bc82614c11565b6141c68185614c38565b93506141d6818560208601614df6565b6141df81614ff6565b840191505092915050565b60006141f582614c11565b6141ff8185614c49565b935061420f818560208601614df6565b80840191505092915050565b6000614228602083614c38565b915061423382615007565b602082019050919050565b600061424b602b83614c38565b915061425682615030565b604082019050919050565b600061426e601483614c38565b91506142798261507f565b602082019050919050565b6000614291602b83614c38565b915061429c826150a8565b604082019050919050565b60006142b4603283614c38565b91506142bf826150f7565b604082019050919050565b60006142d7601c83614c38565b91506142e282615146565b602082019050919050565b60006142fa603e83614c38565b91506143058261516f565b604082019050919050565b600061431d602483614c38565b9150614328826151be565b604082019050919050565b6000614340601983614c38565b915061434b8261520d565b602082019050919050565b6000614363602c83614c38565b915061436e82615236565b604082019050919050565b6000614386601083614c38565b915061439182615285565b602082019050919050565b60006143a9603883614c38565b91506143b4826152ae565b604082019050919050565b60006143cc602a83614c38565b91506143d7826152fd565b604082019050919050565b60006143ef602983614c38565b91506143fa8261534c565b604082019050919050565b6000614412602083614c38565b915061441d8261539b565b602082019050919050565b6000614435602c83614c38565b9150614440826153c4565b604082019050919050565b6000614458602983614c38565b915061446382615413565b604082019050919050565b600061447b602f83614c38565b915061448682615462565b604082019050919050565b600061449e602683614c38565b91506144a9826154b1565b604082019050919050565b60006144c1602183614c38565b91506144cc82615500565b604082019050919050565b60006144e4603183614c38565b91506144ef8261554f565b604082019050919050565b6000614507602c83614c38565b91506145128261559e565b604082019050919050565b600061452a601783614c49565b9150614535826155ed565b601782019050919050565b600061454d603d83614c38565b915061455882615616565b604082019050919050565b6000614570603083614c38565b915061457b82615665565b604082019050919050565b6000614593604083614c38565b915061459e826156b4565b604082019050919050565b60006145b6601183614c49565b91506145c182615703565b601182019050919050565b60006145d9602f83614c38565b91506145e48261572c565b604082019050919050565b60006145fc603483614c38565b91506146078261577b565b604082019050919050565b61461b81614ddd565b82525050565b600061462d8285614130565b60048201915061463d8284614180565b91508190509392505050565b60006146558284614180565b915081905092915050565b600061466c82856141ea565b915061467882846141ea565b91508190509392505050565b600061468f8261451d565b915061469b82856141ea565b91506146a6826145a9565b91506146b282846141ea565b91508190509392505050565b60006020820190506146d36000830184614103565b92915050565b60006060820190506146ee6000830186614103565b6146fb6020830185614103565b6147086040830184614612565b949350505050565b60006080820190506147256000830187614103565b6147326020830186614103565b61473f6040830185614612565b81810360608301526147518184614147565b905095945050505050565b60006040820190506147716000830185614103565b61477e6020830184614612565b9392505050565b600060208201905061479a6000830184614112565b92915050565b60006020820190506147b56000830184614121565b92915050565b600060208201905081810360008301526147d581846141b1565b905092915050565b600060208201905081810360008301526147f68161421b565b9050919050565b600060208201905081810360008301526148168161423e565b9050919050565b6000602082019050818103600083015261483681614261565b9050919050565b6000602082019050818103600083015261485681614284565b9050919050565b60006020820190508181036000830152614876816142a7565b9050919050565b60006020820190508181036000830152614896816142ca565b9050919050565b600060208201905081810360008301526148b6816142ed565b9050919050565b600060208201905081810360008301526148d681614310565b9050919050565b600060208201905081810360008301526148f681614333565b9050919050565b6000602082019050818103600083015261491681614356565b9050919050565b6000602082019050818103600083015261493681614379565b9050919050565b600060208201905081810360008301526149568161439c565b9050919050565b60006020820190508181036000830152614976816143bf565b9050919050565b60006020820190508181036000830152614996816143e2565b9050919050565b600060208201905081810360008301526149b681614405565b9050919050565b600060208201905081810360008301526149d681614428565b9050919050565b600060208201905081810360008301526149f68161444b565b9050919050565b60006020820190508181036000830152614a168161446e565b9050919050565b60006020820190508181036000830152614a3681614491565b9050919050565b60006020820190508181036000830152614a56816144b4565b9050919050565b60006020820190508181036000830152614a76816144d7565b9050919050565b60006020820190508181036000830152614a96816144fa565b9050919050565b60006020820190508181036000830152614ab681614540565b9050919050565b60006020820190508181036000830152614ad681614563565b9050919050565b60006020820190508181036000830152614af681614586565b9050919050565b60006020820190508181036000830152614b16816145cc565b9050919050565b60006020820190508181036000830152614b36816145ef565b9050919050565b6000602082019050614b526000830184614612565b92915050565b6000614b62614b73565b9050614b6e8282614e85565b919050565b6000604051905090565b600067ffffffffffffffff821115614b9857614b97614fc7565b5b602082029050602081019050919050565b600067ffffffffffffffff821115614bc457614bc3614fc7565b5b602082029050602081019050919050565b600067ffffffffffffffff821115614bf057614bef614fc7565b5b614bf982614ff6565b9050602081019050919050565b600081519050919050565b600081519050919050565b600082825260208201905092915050565b600081905092915050565b600082825260208201905092915050565b600081905092915050565b6000614c5f82614ddd565b9150614c6a83614ddd565b9250827fffffffffffffffffffffffffffffffffffffffffffffffffffffffffffffffff03821115614c9f57614c9e614f3a565b5b828201905092915050565b6000614cb582614ddd565b9150614cc083614ddd565b925082614cd057614ccf614f69565b5b828204905092915050565b6000614ce682614ddd565b9150614cf183614ddd565b9250817fffffffffffffffffffffffffffffffffffffffffffffffffffffffffffffffff0483118215151615614d2a57614d29614f3a565b5b828202905092915050565b6000614d4082614ddd565b9150614d4b83614ddd565b925082821015614d5e57614d5d614f3a565b5b828203905092915050565b6000614d7482614dbd565b9050919050565b60008115159050919050565b6000819050919050565b60007fffffffff0000000000000000000000000000000000000000000000000000000082169050919050565b600073ffffffffffffffffffffffffffffffffffffffff82169050919050565b6000819050919050565b82818337600083830152505050565b60005b83811015614e14578082015181840152602081019050614df9565b83811115614e23576000848401525b50505050565b6000614e3482614ddd565b91506000821415614e4857614e47614f3a565b5b600182039050919050565b60006002820490506001821680614e6b57607f821691505b60208210811415614e7f57614e7e614f98565b5b50919050565b614e8e82614ff6565b810181811067ffffffffffffffff82111715614ead57614eac614fc7565b5b80604052505050565b6000614ec182614ddd565b91507fffffffffffffffffffffffffffffffffffffffffffffffffffffffffffffffff821415614ef457614ef3614f3a565b5b600182019050919050565b6000819050919050565b6000614f1482614ddd565b9150614f1f83614ddd565b925082614f2f57614f2e614f69565b5b828206905092915050565b7f4e487b7100000000000000000000000000000000000000000000000000000000600052601160045260246000fd5b7f4e487b7100000000000000000000000000000000000000000000000000000000600052601260045260246000fd5b7f4e487b7100000000000000000000000000000000000000000000000000000000600052602260045260246000fd5b7f4e487b7100000000000000000000000000000000000000000000000000000000600052604160045260246000fd5b6000601f19601f8301169050919050565b7f537472696e67733a20686578206c656e67746820696e73756666696369656e74600082015250565b7f4552433732315061757361626c653a20746f6b656e207472616e73666572207760008201527f68696c6520706175736564000000000000000000000000000000000000000000602082015250565b7f5061757361626c653a206e6f7420706175736564000000000000000000000000600082015250565b7f455243373231456e756d657261626c653a206f776e657220696e646578206f7560008201527f74206f6620626f756e6473000000000000000000000000000000000000000000602082015250565b7f4552433732313a207472616e7366657220746f206e6f6e20455243373231526560008201527f63656976657220696d706c656d656e7465720000000000000000000000000000602082015250565b7f4552433732313a20746f6b656e20616c7265616479206d696e74656400000000600082015250565b7f4552433732315072657365744d696e7465725061757365724175746f49643a2060008201527f6d75737420686176652070617573657220726f6c6520746f2070617573650000602082015250565b7f4552433732313a207472616e7366657220746f20746865207a65726f2061646460008201527f7265737300000000000000000000000000000000000000000000000000000000602082015250565b7f4552433732313a20617070726f766520746f2063616c6c657200000000000000600082015250565b7f4552433732313a206f70657261746f7220717565727920666f72206e6f6e657860008201527f697374656e7420746f6b656e0000000000000000000000000000000000000000602082015250565b7f5061757361626c653a2070617573656400000000000000000000000000000000600082015250565b7f4552433732313a20617070726f76652063616c6c6572206973206e6f74206f7760008201527f6e6572206e6f7220617070726f76656420666f7220616c6c0000000000000000602082015250565b7f4552433732313a2062616c616e636520717565727920666f7220746865207a6560008201527f726f206164647265737300000000000000000000000000000000000000000000602082015250565b7f4552433732313a206f776e657220717565727920666f72206e6f6e657869737460008201527f656e7420746f6b656e0000000000000000000000000000000000000000000000602082015250565b7f4552433732313a206d696e7420746f20746865207a65726f2061646472657373600082015250565b7f4552433732313a20617070726f76656420717565727920666f72206e6f6e657860008201527f697374656e7420746f6b656e0000000000000000000000000000000000000000602082015250565b7f4552433732313a207472616e73666572206f6620746f6b656e2074686174206960008201527f73206e6f74206f776e0000000000000000000000000000000000000000000000602082015250565b7f4552433732314d657461646174613a2055524920717565727920666f72206e6f60008201527f6e6578697374656e7420746f6b656e0000000000000000000000000000000000602082015250565b7f4f6e6c7920746865206f776e65722063616e206d6f646966792074686569722060008201527f6173736574730000000000000000000000000000000000000000000000000000602082015250565b7f4552433732313a20617070726f76616c20746f2063757272656e74206f776e6560008201527f7200000000000000000000000000000000000000000000000000000000000000602082015250565b7f4552433732313a207472616e736665722063616c6c6572206973206e6f74206f60008201527f776e6572206e6f7220617070726f766564000000000000000000000000000000602082015250565b7f455243373231456e756d657261626c653a20676c6f62616c20696e646578206f60008201527f7574206f6620626f756e64730000000000000000000000000000000000000000602082015250565b7f416363657373436f6e74726f6c3a206163636f756e7420000000000000000000600082015250565b7f4552433732315072657365744d696e7465725061757365724175746f49643a2060008201527f6d7573742068617665206d696e74657220726f6c6520746f206d696e74000000602082015250565b7f4552433732314275726e61626c653a2063616c6c6572206973206e6f74206f7760008201527f6e6572206e6f7220617070726f76656400000000000000000000000000000000602082015250565b7f4552433732315072657365744d696e7465725061757365724175746f49643a2060008201527f6d75737420686176652070617573657220726f6c6520746f20756e7061757365602082015250565b7f206973206d697373696e6720726f6c6520000000000000000000000000000000600082015250565b7f416363657373436f6e74726f6c3a2063616e206f6e6c792072656e6f756e636560008201527f20726f6c657320666f722073656c660000000000000000000000000000000000602082015250565b7f4e756d626572206f662061737365747320616e64206e756d626572206f66206160008201527f6d6f756e7473206d75737420626520657175616c000000000000000000000000602082015250565b6157d381614d69565b81146157de57600080fd5b50565b6157ea81614d7b565b81146157f557600080fd5b50565b61580181614d87565b811461580c57600080fd5b50565b61581881614d91565b811461582357600080fd5b50565b61582f81614ddd565b811461583a57600080fd5b5056fea26469706673582212205d9f46f5a553edeae31429caa8a39fa45a42ee768ae6f5991d729da365ea4d7964736f6c63430008040033",
  "immutableReferences": {},
  "source": "// SPDX-License-Identifier: MIT\npragma solidity ^0.8.0;\n\nimport \"@openzeppelin/contracts/token/ERC20/ERC20.sol\";\nimport \"@openzeppelin/contracts/token/ERC721/presets/ERC721PresetMinterPauserAutoId.sol\";\n\ncontract TrustlessTrust is ERC721PresetMinterPauserAutoId {\n\n    event LogDeposit(address indexed actor, uint indexed tokenId);\n    event LogWithdrawal(address indexed actor, uint indexed tokenId);\n    event LogInsufficientBalance(address indexed tokenAddress, address indexed actor, uint indexed tokenId);\n    event LogWithdrawalError(address indexed tokenAddress, address indexed actor, uint indexed tokenId);\n\n    // Token id => ERC20 address => ERC20 balance\n    mapping(uint => mapping(address => uint)) tokenBalances;\n\n    constructor() ERC721PresetMinterPauserAutoId(\n        \"TLT\",\n        \"Trustless Trust\",\n        \"\"\n    )\n    {}\n\n    modifier onlyTokenOwner(uint tokenId) {\n        require(ownerOf(tokenId) == msg.sender, \"Only the owner can modify their assets\");\n        _;\n    }\n\n    function deposit(uint tokenId, address[] memory assetAddresses, uint[] memory assetAmounts) public \n        onlyTokenOwner(tokenId) {\n        require(assetAddresses.length == assetAmounts.length, \"Number of assets and number of amounts must be equal\");\n        uint assetLength = assetAddresses.length;\n        for (uint i = 0; i < assetLength; i++) {\n            ERC20 erc20 = ERC20(assetAddresses[i]);\n            require(erc20.transferFrom(msg.sender, address(this), assetAmounts[i]));\n            tokenBalances[tokenId][assetAddresses[i]] += assetAmounts[i];\n        }\n\n        emit LogDeposit(msg.sender, tokenId);\n    }\n\n    function withdraw(uint tokenId, address[] memory assetAddresses, uint[] memory assetAmounts) public \n        onlyTokenOwner(tokenId) {\n        \n        require(assetAddresses.length == assetAmounts.length, \"Number of assets and number of amounts must be equal\");\n        for (uint i = 0; i < assetAddresses.length; i++) {\n            // Prevent reentrancy\n            uint oldBalance = tokenBalances[tokenId][assetAddresses[i]];\n            tokenBalances[tokenId][assetAddresses[i]] = 0;\n\n            if (tokenBalances[tokenId][assetAddresses[i]] <= assetAmounts[i]) {\n                emit LogInsufficientBalance(assetAddresses[i], msg.sender, tokenId);\n            } else if (assetAddresses[i] != address(0)) {\n                ERC20 token = ERC20(assetAddresses[i]);\n                (bool success, bytes memory returnData) =\n                    address(token).call( // This creates a low level call to the token\n                        abi.encodePacked( // This encodes the function to call and the parameters to pass to that function\n                            token.transfer.selector, // This is the function identifier of the function we want to call\n                            abi.encode(msg.sender, assetAmounts[i]) // This encodes the parameter we want to pass to the function\n                        )\n                    );\n                if (!success) {\n                    tokenBalances[tokenId][assetAddresses[i]] = oldBalance;\n                    emit LogWithdrawalError(assetAddresses[i], msg.sender, tokenId);\n                }\n            }\n        }\n\n        emit LogWithdrawal(msg.sender, tokenId);\n    }\n\n    // Prevent wrapping with itself\n    function transferFrom(address _from, address _to, uint256 _tokenId) override public {\n        require(_to != address(this));\n        return super.transferFrom(_from, _to, _tokenId);\n    }\n}\n",
  "sourcePath": "/Users/harrisondahme/Projects/dapps/trustless-trust/contracts/TrustlessTrust.sol",
  "compiler": {
    "name": "solc",
    "version": "0.8.4+commit.c7e474f2.Emscripten.clang"
  },
  "schemaVersion": "3.4.3",
  "updatedAt": "2021-10-06T18:53:07.728Z",
  "networkType": "ethereum",
  "devdoc": {
    "kind": "dev",
    "methods": {
      "approve(address,uint256)": {
        "details": "See {IERC721-approve}."
      },
      "balanceOf(address)": {
        "details": "See {IERC721-balanceOf}."
      },
      "burn(uint256)": {
        "details": "Burns `tokenId`. See {ERC721-_burn}. Requirements: - The caller must own `tokenId` or be an approved operator."
      },
      "getApproved(uint256)": {
        "details": "See {IERC721-getApproved}."
      },
      "getRoleAdmin(bytes32)": {
        "details": "Returns the admin role that controls `role`. See {grantRole} and {revokeRole}. To change a role's admin, use {_setRoleAdmin}."
      },
      "getRoleMember(bytes32,uint256)": {
        "details": "Returns one of the accounts that have `role`. `index` must be a value between 0 and {getRoleMemberCount}, non-inclusive. Role bearers are not sorted in any particular way, and their ordering may change at any point. WARNING: When using {getRoleMember} and {getRoleMemberCount}, make sure you perform all queries on the same block. See the following https://forum.openzeppelin.com/t/iterating-over-elements-on-enumerableset-in-openzeppelin-contracts/2296[forum post] for more information."
      },
      "getRoleMemberCount(bytes32)": {
        "details": "Returns the number of accounts that have `role`. Can be used together with {getRoleMember} to enumerate all bearers of a role."
      },
      "grantRole(bytes32,address)": {
        "details": "Overload {grantRole} to track enumerable memberships"
      },
      "hasRole(bytes32,address)": {
        "details": "Returns `true` if `account` has been granted `role`."
      },
      "isApprovedForAll(address,address)": {
        "details": "See {IERC721-isApprovedForAll}."
      },
      "mint(address)": {
        "details": "Creates a new token for `to`. Its token ID will be automatically assigned (and available on the emitted {IERC721-Transfer} event), and the token URI autogenerated based on the base URI passed at construction. See {ERC721-_mint}. Requirements: - the caller must have the `MINTER_ROLE`."
      },
      "name()": {
        "details": "See {IERC721Metadata-name}."
      },
      "ownerOf(uint256)": {
        "details": "See {IERC721-ownerOf}."
      },
      "pause()": {
        "details": "Pauses all token transfers. See {ERC721Pausable} and {Pausable-_pause}. Requirements: - the caller must have the `PAUSER_ROLE`."
      },
      "paused()": {
        "details": "Returns true if the contract is paused, and false otherwise."
      },
      "renounceRole(bytes32,address)": {
        "details": "Overload {renounceRole} to track enumerable memberships"
      },
      "revokeRole(bytes32,address)": {
        "details": "Overload {revokeRole} to track enumerable memberships"
      },
      "safeTransferFrom(address,address,uint256)": {
        "details": "See {IERC721-safeTransferFrom}."
      },
      "safeTransferFrom(address,address,uint256,bytes)": {
        "details": "See {IERC721-safeTransferFrom}."
      },
      "setApprovalForAll(address,bool)": {
        "details": "See {IERC721-setApprovalForAll}."
      },
      "supportsInterface(bytes4)": {
        "details": "See {IERC165-supportsInterface}."
      },
      "symbol()": {
        "details": "See {IERC721Metadata-symbol}."
      },
      "tokenByIndex(uint256)": {
        "details": "See {IERC721Enumerable-tokenByIndex}."
      },
      "tokenOfOwnerByIndex(address,uint256)": {
        "details": "See {IERC721Enumerable-tokenOfOwnerByIndex}."
      },
      "tokenURI(uint256)": {
        "details": "See {IERC721Metadata-tokenURI}."
      },
      "totalSupply()": {
        "details": "See {IERC721Enumerable-totalSupply}."
      },
      "unpause()": {
        "details": "Unpauses all token transfers. See {ERC721Pausable} and {Pausable-_unpause}. Requirements: - the caller must have the `PAUSER_ROLE`."
      }
    },
    "version": 1
  },
  "userdoc": {
    "kind": "user",
    "methods": {},
    "version": 1
  }
}