{
  "contractName": "TrustlessTrust",
  "abi": [
    {
      "inputs": [],
      "stateMutability": "nonpayable",
      "type": "constructor"
    },
    {
      "anonymous": false,
      "inputs": [
        {
          "indexed": true,
          "internalType": "address",
          "name": "owner",
          "type": "address"
        },
        {
          "indexed": true,
          "internalType": "address",
          "name": "approved",
          "type": "address"
        },
        {
          "indexed": true,
          "internalType": "uint256",
          "name": "tokenId",
          "type": "uint256"
        }
      ],
      "name": "Approval",
      "type": "event"
    },
    {
      "anonymous": false,
      "inputs": [
        {
          "indexed": true,
          "internalType": "address",
          "name": "owner",
          "type": "address"
        },
        {
          "indexed": true,
          "internalType": "address",
          "name": "operator",
          "type": "address"
        },
        {
          "indexed": false,
          "internalType": "bool",
          "name": "approved",
          "type": "bool"
        }
      ],
      "name": "ApprovalForAll",
      "type": "event"
    },
    {
      "anonymous": false,
      "inputs": [
        {
          "indexed": true,
          "internalType": "address",
          "name": "actor",
          "type": "address"
        },
        {
          "indexed": true,
          "internalType": "uint256",
          "name": "tokenId",
          "type": "uint256"
        }
      ],
      "name": "LogDeposit",
      "type": "event"
    },
    {
      "anonymous": false,
      "inputs": [
        {
          "indexed": true,
          "internalType": "address",
          "name": "tokenAddress",
          "type": "address"
        },
        {
          "indexed": true,
          "internalType": "address",
          "name": "actor",
          "type": "address"
        },
        {
          "indexed": true,
          "internalType": "uint256",
          "name": "tokenId",
          "type": "uint256"
        }
      ],
      "name": "LogInsufficientBalance",
      "type": "event"
    },
    {
      "anonymous": false,
      "inputs": [
        {
          "indexed": true,
          "internalType": "address",
          "name": "actor",
          "type": "address"
        },
        {
          "indexed": true,
          "internalType": "uint256",
          "name": "tokenId",
          "type": "uint256"
        }
      ],
      "name": "LogWithdrawal",
      "type": "event"
    },
    {
      "anonymous": false,
      "inputs": [
        {
          "indexed": true,
          "internalType": "address",
          "name": "tokenAddress",
          "type": "address"
        },
        {
          "indexed": true,
          "internalType": "address",
          "name": "actor",
          "type": "address"
        },
        {
          "indexed": true,
          "internalType": "uint256",
          "name": "tokenId",
          "type": "uint256"
        }
      ],
      "name": "LogWithdrawalError",
      "type": "event"
    },
    {
      "anonymous": false,
      "inputs": [
        {
          "indexed": false,
          "internalType": "address",
          "name": "account",
          "type": "address"
        }
      ],
      "name": "Paused",
      "type": "event"
    },
    {
      "anonymous": false,
      "inputs": [
        {
          "indexed": true,
          "internalType": "bytes32",
          "name": "role",
          "type": "bytes32"
        },
        {
          "indexed": true,
          "internalType": "bytes32",
          "name": "previousAdminRole",
          "type": "bytes32"
        },
        {
          "indexed": true,
          "internalType": "bytes32",
          "name": "newAdminRole",
          "type": "bytes32"
        }
      ],
      "name": "RoleAdminChanged",
      "type": "event"
    },
    {
      "anonymous": false,
      "inputs": [
        {
          "indexed": true,
          "internalType": "bytes32",
          "name": "role",
          "type": "bytes32"
        },
        {
          "indexed": true,
          "internalType": "address",
          "name": "account",
          "type": "address"
        },
        {
          "indexed": true,
          "internalType": "address",
          "name": "sender",
          "type": "address"
        }
      ],
      "name": "RoleGranted",
      "type": "event"
    },
    {
      "anonymous": false,
      "inputs": [
        {
          "indexed": true,
          "internalType": "bytes32",
          "name": "role",
          "type": "bytes32"
        },
        {
          "indexed": true,
          "internalType": "address",
          "name": "account",
          "type": "address"
        },
        {
          "indexed": true,
          "internalType": "address",
          "name": "sender",
          "type": "address"
        }
      ],
      "name": "RoleRevoked",
      "type": "event"
    },
    {
      "anonymous": false,
      "inputs": [
        {
          "indexed": true,
          "internalType": "address",
          "name": "from",
          "type": "address"
        },
        {
          "indexed": true,
          "internalType": "address",
          "name": "to",
          "type": "address"
        },
        {
          "indexed": true,
          "internalType": "uint256",
          "name": "tokenId",
          "type": "uint256"
        }
      ],
      "name": "Transfer",
      "type": "event"
    },
    {
      "anonymous": false,
      "inputs": [
        {
          "indexed": false,
          "internalType": "address",
          "name": "account",
          "type": "address"
        }
      ],
      "name": "Unpaused",
      "type": "event"
    },
    {
      "inputs": [],
      "name": "DEFAULT_ADMIN_ROLE",
      "outputs": [
        {
          "internalType": "bytes32",
          "name": "",
          "type": "bytes32"
        }
      ],
      "stateMutability": "view",
      "type": "function",
      "constant": true
    },
    {
      "inputs": [],
      "name": "MINTER_ROLE",
      "outputs": [
        {
          "internalType": "bytes32",
          "name": "",
          "type": "bytes32"
        }
      ],
      "stateMutability": "view",
      "type": "function",
      "constant": true
    },
    {
      "inputs": [],
      "name": "PAUSER_ROLE",
      "outputs": [
        {
          "internalType": "bytes32",
          "name": "",
          "type": "bytes32"
        }
      ],
      "stateMutability": "view",
      "type": "function",
      "constant": true
    },
    {
      "inputs": [
        {
          "internalType": "address",
          "name": "to",
          "type": "address"
        },
        {
          "internalType": "uint256",
          "name": "tokenId",
          "type": "uint256"
        }
      ],
      "name": "approve",
      "outputs": [],
      "stateMutability": "nonpayable",
      "type": "function"
    },
    {
      "inputs": [
        {
          "internalType": "uint256",
          "name": "tokenId",
          "type": "uint256"
        }
      ],
      "name": "burn",
      "outputs": [],
      "stateMutability": "nonpayable",
      "type": "function"
    },
    {
      "inputs": [
        {
          "internalType": "uint256",
          "name": "tokenId",
          "type": "uint256"
        }
      ],
      "name": "getApproved",
      "outputs": [
        {
          "internalType": "address",
          "name": "",
          "type": "address"
        }
      ],
      "stateMutability": "view",
      "type": "function",
      "constant": true
    },
    {
      "inputs": [
        {
          "internalType": "bytes32",
          "name": "role",
          "type": "bytes32"
        }
      ],
      "name": "getRoleAdmin",
      "outputs": [
        {
          "internalType": "bytes32",
          "name": "",
          "type": "bytes32"
        }
      ],
      "stateMutability": "view",
      "type": "function",
      "constant": true
    },
    {
      "inputs": [
        {
          "internalType": "bytes32",
          "name": "role",
          "type": "bytes32"
        },
        {
          "internalType": "uint256",
          "name": "index",
          "type": "uint256"
        }
      ],
      "name": "getRoleMember",
      "outputs": [
        {
          "internalType": "address",
          "name": "",
          "type": "address"
        }
      ],
      "stateMutability": "view",
      "type": "function",
      "constant": true
    },
    {
      "inputs": [
        {
          "internalType": "bytes32",
          "name": "role",
          "type": "bytes32"
        }
      ],
      "name": "getRoleMemberCount",
      "outputs": [
        {
          "internalType": "uint256",
          "name": "",
          "type": "uint256"
        }
      ],
      "stateMutability": "view",
      "type": "function",
      "constant": true
    },
    {
      "inputs": [
        {
          "internalType": "bytes32",
          "name": "role",
          "type": "bytes32"
        },
        {
          "internalType": "address",
          "name": "account",
          "type": "address"
        }
      ],
      "name": "grantRole",
      "outputs": [],
      "stateMutability": "nonpayable",
      "type": "function"
    },
    {
      "inputs": [
        {
          "internalType": "bytes32",
          "name": "role",
          "type": "bytes32"
        },
        {
          "internalType": "address",
          "name": "account",
          "type": "address"
        }
      ],
      "name": "hasRole",
      "outputs": [
        {
          "internalType": "bool",
          "name": "",
          "type": "bool"
        }
      ],
      "stateMutability": "view",
      "type": "function",
      "constant": true
    },
    {
      "inputs": [
        {
          "internalType": "address",
          "name": "owner",
          "type": "address"
        },
        {
          "internalType": "address",
          "name": "operator",
          "type": "address"
        }
      ],
      "name": "isApprovedForAll",
      "outputs": [
        {
          "internalType": "bool",
          "name": "",
          "type": "bool"
        }
      ],
      "stateMutability": "view",
      "type": "function",
      "constant": true
    },
    {
      "inputs": [
        {
          "internalType": "address",
          "name": "to",
          "type": "address"
        }
      ],
      "name": "mint",
      "outputs": [],
      "stateMutability": "nonpayable",
      "type": "function"
    },
    {
      "inputs": [],
      "name": "name",
      "outputs": [
        {
          "internalType": "string",
          "name": "",
          "type": "string"
        }
      ],
      "stateMutability": "view",
      "type": "function",
      "constant": true
    },
    {
      "inputs": [
        {
          "internalType": "uint256",
          "name": "tokenId",
          "type": "uint256"
        }
      ],
      "name": "ownerOf",
      "outputs": [
        {
          "internalType": "address",
          "name": "",
          "type": "address"
        }
      ],
      "stateMutability": "view",
      "type": "function",
      "constant": true
    },
    {
      "inputs": [],
      "name": "pause",
      "outputs": [],
      "stateMutability": "nonpayable",
      "type": "function"
    },
    {
      "inputs": [],
      "name": "paused",
      "outputs": [
        {
          "internalType": "bool",
          "name": "",
          "type": "bool"
        }
      ],
      "stateMutability": "view",
      "type": "function",
      "constant": true
    },
    {
      "inputs": [
        {
          "internalType": "bytes32",
          "name": "role",
          "type": "bytes32"
        },
        {
          "internalType": "address",
          "name": "account",
          "type": "address"
        }
      ],
      "name": "renounceRole",
      "outputs": [],
      "stateMutability": "nonpayable",
      "type": "function"
    },
    {
      "inputs": [
        {
          "internalType": "bytes32",
          "name": "role",
          "type": "bytes32"
        },
        {
          "internalType": "address",
          "name": "account",
          "type": "address"
        }
      ],
      "name": "revokeRole",
      "outputs": [],
      "stateMutability": "nonpayable",
      "type": "function"
    },
    {
      "inputs": [
        {
          "internalType": "address",
          "name": "from",
          "type": "address"
        },
        {
          "internalType": "address",
          "name": "to",
          "type": "address"
        },
        {
          "internalType": "uint256",
          "name": "tokenId",
          "type": "uint256"
        }
      ],
      "name": "safeTransferFrom",
      "outputs": [],
      "stateMutability": "nonpayable",
      "type": "function"
    },
    {
      "inputs": [
        {
          "internalType": "address",
          "name": "from",
          "type": "address"
        },
        {
          "internalType": "address",
          "name": "to",
          "type": "address"
        },
        {
          "internalType": "uint256",
          "name": "tokenId",
          "type": "uint256"
        },
        {
          "internalType": "bytes",
          "name": "_data",
          "type": "bytes"
        }
      ],
      "name": "safeTransferFrom",
      "outputs": [],
      "stateMutability": "nonpayable",
      "type": "function"
    },
    {
      "inputs": [
        {
          "internalType": "address",
          "name": "operator",
          "type": "address"
        },
        {
          "internalType": "bool",
          "name": "approved",
          "type": "bool"
        }
      ],
      "name": "setApprovalForAll",
      "outputs": [],
      "stateMutability": "nonpayable",
      "type": "function"
    },
    {
      "inputs": [
        {
          "internalType": "bytes4",
          "name": "interfaceId",
          "type": "bytes4"
        }
      ],
      "name": "supportsInterface",
      "outputs": [
        {
          "internalType": "bool",
          "name": "",
          "type": "bool"
        }
      ],
      "stateMutability": "view",
      "type": "function",
      "constant": true
    },
    {
      "inputs": [],
      "name": "symbol",
      "outputs": [
        {
          "internalType": "string",
          "name": "",
          "type": "string"
        }
      ],
      "stateMutability": "view",
      "type": "function",
      "constant": true
    },
    {
      "inputs": [
        {
          "internalType": "uint256",
          "name": "index",
          "type": "uint256"
        }
      ],
      "name": "tokenByIndex",
      "outputs": [
        {
          "internalType": "uint256",
          "name": "",
          "type": "uint256"
        }
      ],
      "stateMutability": "view",
      "type": "function",
      "constant": true
    },
    {
      "inputs": [
        {
          "internalType": "address",
          "name": "owner",
          "type": "address"
        },
        {
          "internalType": "uint256",
          "name": "index",
          "type": "uint256"
        }
      ],
      "name": "tokenOfOwnerByIndex",
      "outputs": [
        {
          "internalType": "uint256",
          "name": "",
          "type": "uint256"
        }
      ],
      "stateMutability": "view",
      "type": "function",
      "constant": true
    },
    {
      "inputs": [
        {
          "internalType": "uint256",
          "name": "tokenId",
          "type": "uint256"
        }
      ],
      "name": "tokenURI",
      "outputs": [
        {
          "internalType": "string",
          "name": "",
          "type": "string"
        }
      ],
      "stateMutability": "view",
      "type": "function",
      "constant": true
    },
    {
      "inputs": [],
      "name": "totalSupply",
      "outputs": [
        {
          "internalType": "uint256",
          "name": "",
          "type": "uint256"
        }
      ],
      "stateMutability": "view",
      "type": "function",
      "constant": true
    },
    {
      "inputs": [],
      "name": "unpause",
      "outputs": [],
      "stateMutability": "nonpayable",
      "type": "function"
    },
    {
      "inputs": [
        {
          "internalType": "uint256",
          "name": "tokenId",
          "type": "uint256"
        },
        {
          "internalType": "address",
          "name": "tokenAddress",
          "type": "address"
        }
      ],
      "name": "balanceOf",
      "outputs": [
        {
          "internalType": "uint256",
          "name": "",
          "type": "uint256"
        }
      ],
      "stateMutability": "nonpayable",
      "type": "function"
    },
    {
      "inputs": [
        {
          "internalType": "address",
          "name": "owner",
          "type": "address"
        }
      ],
      "name": "balanceOf",
      "outputs": [
        {
          "internalType": "uint256",
          "name": "",
          "type": "uint256"
        }
      ],
      "stateMutability": "view",
      "type": "function",
      "constant": true
    },
    {
      "inputs": [
        {
          "internalType": "uint256",
          "name": "tokenId",
          "type": "uint256"
        },
        {
          "internalType": "address[]",
          "name": "assetAddresses",
          "type": "address[]"
        },
        {
          "internalType": "uint256[]",
          "name": "assetAmounts",
          "type": "uint256[]"
        }
      ],
      "name": "deposit",
      "outputs": [],
      "stateMutability": "nonpayable",
      "type": "function"
    },
    {
      "inputs": [
        {
          "internalType": "uint256",
          "name": "tokenId",
          "type": "uint256"
        },
        {
          "internalType": "address[]",
          "name": "assetAddresses",
          "type": "address[]"
        },
        {
          "internalType": "uint256[]",
          "name": "assetAmounts",
          "type": "uint256[]"
        }
      ],
      "name": "withdraw",
      "outputs": [],
      "stateMutability": "nonpayable",
      "type": "function"
    },
    {
      "inputs": [
        {
          "internalType": "address",
          "name": "_from",
          "type": "address"
        },
        {
          "internalType": "address",
          "name": "_to",
          "type": "address"
        },
        {
          "internalType": "uint256",
          "name": "_tokenId",
          "type": "uint256"
        }
      ],
      "name": "transferFrom",
      "outputs": [],
      "stateMutability": "nonpayable",
      "type": "function"
    }
  ],
  "bytecode": "0x60806040523480156200001157600080fd5b506040518060400160405280600381526020017f544c5400000000000000000000000000000000000000000000000000000000008152506040518060400160405280600f81526020017f54727573746c65737320547275737400000000000000000000000000000000008152506040518060200160405280600081525082828160029080519060200190620000a89291906200043d565b508060039080519060200190620000c19291906200043d565b5050506000600c60006101000a81548160ff02191690831515021790555080600e9080519060200190620000f79291906200043d565b506200011c6000801b62000110620001a760201b60201c565b620001af60201b60201c565b6200015d7f9f2df0fed2c77648de5860a4cc508cd0818c85b8b8a1ab4ceeef8d981c8956a662000151620001a760201b60201c565b620001af60201b60201c565b6200019e7f65d7a28e3265b37a6474929f336521b332c1681b933f6cb9f3376673440d862a62000192620001a760201b60201c565b620001af60201b60201c565b50505062000552565b600033905090565b620001c68282620001f760201b62001d111760201c565b620001f281600160008581526020019081526020016000206200020d60201b62001d1f1790919060201c565b505050565b6200020982826200024560201b60201c565b5050565b60006200023d836000018373ffffffffffffffffffffffffffffffffffffffff1660001b6200033660201b60201c565b905092915050565b620002578282620003b060201b60201c565b6200033257600160008084815260200190815260200160002060000160008373ffffffffffffffffffffffffffffffffffffffff1673ffffffffffffffffffffffffffffffffffffffff16815260200190815260200160002060006101000a81548160ff021916908315150217905550620002d7620001a760201b60201c565b73ffffffffffffffffffffffffffffffffffffffff168173ffffffffffffffffffffffffffffffffffffffff16837f2f8788117e7eff1d82e926ec794901d17c78024a50270940304540a733656f0d60405160405180910390a45b5050565b60006200034a83836200041a60201b60201c565b620003a5578260000182908060018154018082558091505060019003906000526020600020016000909190919091505582600001805490508360010160008481526020019081526020016000208190555060019050620003aa565b600090505b92915050565b600080600084815260200190815260200160002060000160008373ffffffffffffffffffffffffffffffffffffffff1673ffffffffffffffffffffffffffffffffffffffff16815260200190815260200160002060009054906101000a900460ff16905092915050565b600080836001016000848152602001908152602001600020541415905092915050565b8280546200044b90620004ed565b90600052602060002090601f0160209004810192826200046f5760008555620004bb565b82601f106200048a57805160ff1916838001178555620004bb565b82800160010185558215620004bb579182015b82811115620004ba5782518255916020019190600101906200049d565b5b509050620004ca9190620004ce565b5090565b5b80821115620004e9576000816000905550600101620004cf565b5090565b600060028204905060018216806200050657607f821691505b602082108114156200051d576200051c62000523565b5b50919050565b7f4e487b7100000000000000000000000000000000000000000000000000000000600052602260045260246000fd5b6157ff80620005626000396000f3fe608060405234801561001057600080fd5b50600436106102065760003560e01c80635c975abb1161011a578063a217fddf116100ad578063ca15c8731161007c578063ca15c873146105f9578063d539139314610629578063d547741f14610647578063e63ab1e914610663578063e985e9c51461068157610206565b8063a217fddf14610573578063a22cb46514610591578063b88d4fde146105ad578063c87b56dd146105c957610206565b80638456cb59116100e95780638456cb59146104eb5780639010d07c146104f557806391d148541461052557806395d89b411461055557610206565b80635c975abb146104515780636352211e1461046f5780636a6278421461049f57806370a08231146104bb57610206565b80632f2ff15d1161019d5780633827868a1161016c5780633827868a146103c35780633f4ba83a146103df57806342842e0e146103e957806342966c68146104055780634f6ccce71461042157610206565b80632f2ff15d1461032b5780632f745c591461034757806336568abe146103775780633656eec21461039357610206565b80630d7a41b7116101d95780630d7a41b7146102a557806318160ddd146102c157806323b872dd146102df578063248a9ca3146102fb57610206565b806301ffc9a71461020b57806306fdde031461023b578063081812fc14610259578063095ea7b314610289575b600080fd5b61022560048036038101906102209190613ff5565b6106b1565b6040516102329190614726565b60405180910390f35b6102436106c3565b604051610250919061475c565b60405180910390f35b610273600480360381019061026e9190614047565b610755565b604051610280919061465f565b60405180910390f35b6102a3600480360381019061029e9190613eef565b6107da565b005b6102bf60048036038101906102ba91906140ac565b6108f2565b005b6102c9610c5f565b6040516102d69190614ade565b60405180910390f35b6102f960048036038101906102f49190613de9565b610c6c565b005b61031560048036038101906103109190613f54565b610cb5565b6040516103229190614741565b60405180910390f35b61034560048036038101906103409190613f7d565b610cd4565b005b610361600480360381019061035c9190613eef565b610d08565b60405161036e9190614ade565b60405180910390f35b610391600480360381019061038c9190613f7d565b610dad565b005b6103ad60048036038101906103a89190614070565b610de1565b6040516103ba9190614ade565b60405180910390f35b6103dd60048036038101906103d891906140ac565b610e79565b005b6103e7611409565b005b61040360048036038101906103fe9190613de9565b611483565b005b61041f600480360381019061041a9190614047565b6114a3565b005b61043b60048036038101906104369190614047565b6114ff565b6040516104489190614ade565b60405180910390f35b610459611596565b6040516104669190614726565b60405180910390f35b61048960048036038101906104849190614047565b6115ad565b604051610496919061465f565b60405180910390f35b6104b960048036038101906104b49190613d84565b61165f565b005b6104d560048036038101906104d09190613d84565b6116ef565b6040516104e29190614ade565b60405180910390f35b6104f36117a7565b005b61050f600480360381019061050a9190613fb9565b611821565b60405161051c919061465f565b60405180910390f35b61053f600480360381019061053a9190613f7d565b611850565b60405161054c9190614726565b60405180910390f35b61055d6118ba565b60405161056a919061475c565b60405180910390f35b61057b61194c565b6040516105889190614741565b60405180910390f35b6105ab60048036038101906105a69190613eb3565b611953565b005b6105c760048036038101906105c29190613e38565b611ad4565b005b6105e360048036038101906105de9190614047565b611b36565b6040516105f0919061475c565b60405180910390f35b610613600480360381019061060e9190613f54565b611bdd565b6040516106209190614ade565b60405180910390f35b610631611c01565b60405161063e9190614741565b60405180910390f35b610661600480360381019061065c9190613f7d565b611c25565b005b61066b611c59565b6040516106789190614741565b60405180910390f35b61069b60048036038101906106969190613dad565b611c7d565b6040516106a89190614726565b60405180910390f35b60006106bc82611d4f565b9050919050565b6060600280546106d290614de9565b80601f01602080910402602001604051908101604052809291908181526020018280546106fe90614de9565b801561074b5780601f106107205761010080835404028352916020019161074b565b820191906000526020600020905b81548152906001019060200180831161072e57829003601f168201915b5050505050905090565b600061076082611dc9565b61079f576040517f08c379a00000000000000000000000000000000000000000000000000000000081526004016107969061495e565b60405180910390fd5b6006600083815260200190815260200160002060009054906101000a900473ffffffffffffffffffffffffffffffffffffffff169050919050565b60006107e5826115ad565b90508073ffffffffffffffffffffffffffffffffffffffff168373ffffffffffffffffffffffffffffffffffffffff161415610856576040517f08c379a000000000000000000000000000000000000000000000000000000000815260040161084d906149de565b60405180910390fd5b8073ffffffffffffffffffffffffffffffffffffffff16610875611e35565b73ffffffffffffffffffffffffffffffffffffffff1614806108a457506108a38161089e611e35565b611c7d565b5b6108e3576040517f08c379a00000000000000000000000000000000000000000000000000000000081526004016108da906148de565b60405180910390fd5b6108ed8383611e3d565b505050565b823373ffffffffffffffffffffffffffffffffffffffff16610913826115ad565b73ffffffffffffffffffffffffffffffffffffffff1614610969576040517f08c379a0000000000000000000000000000000000000000000000000000000008152600401610960906149be565b60405180910390fd5b81518351146109ad576040517f08c379a00000000000000000000000000000000000000000000000000000000081526004016109a490614abe565b60405180910390fd5b60008351905060005b81811015610c135760008582815181106109f9577f4e487b7100000000000000000000000000000000000000000000000000000000600052603260045260246000fd5b602002602001015190508073ffffffffffffffffffffffffffffffffffffffff166323b872dd3330888681518110610a5a577f4e487b7100000000000000000000000000000000000000000000000000000000600052603260045260246000fd5b60200260200101516040518463ffffffff1660e01b8152600401610a809392919061467a565b602060405180830381600087803b158015610a9a57600080fd5b505af1158015610aae573d6000803e3d6000fd5b505050506040513d601f19601f82011682018060405250810190610ad29190613f2b565b610adb57600080fd5b848281518110610b14577f4e487b7100000000000000000000000000000000000000000000000000000000600052603260045260246000fd5b6020026020010151600f600089815260200190815260200160002060003373ffffffffffffffffffffffffffffffffffffffff1673ffffffffffffffffffffffffffffffffffffffff1681526020019081526020016000206000888581518110610ba7577f4e487b7100000000000000000000000000000000000000000000000000000000600052603260045260246000fd5b602002602001015173ffffffffffffffffffffffffffffffffffffffff1673ffffffffffffffffffffffffffffffffffffffff1681526020019081526020016000206000828254610bf89190614bea565b92505081905550508080610c0b90614e4c565b9150506109b6565b50843373ffffffffffffffffffffffffffffffffffffffff167f1b851e1031ef35a238e6c67d0c7991162390df915f70eaf9098dbf0b175a619860405160405180910390a35050505050565b6000600a80549050905090565b3073ffffffffffffffffffffffffffffffffffffffff168273ffffffffffffffffffffffffffffffffffffffff161415610ca557600080fd5b610cb0838383611ef6565b505050565b6000806000838152602001908152602001600020600101549050919050565b610cde8282611f56565b610d038160016000858152602001908152602001600020611d1f90919063ffffffff16565b505050565b6000610d13836116ef565b8210610d54576040517f08c379a0000000000000000000000000000000000000000000000000000000008152600401610d4b906147de565b60405180910390fd5b600860008473ffffffffffffffffffffffffffffffffffffffff1673ffffffffffffffffffffffffffffffffffffffff168152602001908152602001600020600083815260200190815260200160002054905092915050565b610db78282611f7f565b610ddc816001600085815260200190815260200160002061200290919063ffffffff16565b505050565b6000600f600084815260200190815260200160002060003373ffffffffffffffffffffffffffffffffffffffff1673ffffffffffffffffffffffffffffffffffffffff16815260200190815260200160002060008373ffffffffffffffffffffffffffffffffffffffff1673ffffffffffffffffffffffffffffffffffffffff16815260200190815260200160002054905092915050565b823373ffffffffffffffffffffffffffffffffffffffff16610e9a826115ad565b73ffffffffffffffffffffffffffffffffffffffff1614610ef0576040517f08c379a0000000000000000000000000000000000000000000000000000000008152600401610ee7906149be565b60405180910390fd5b8151835114610f34576040517f08c379a0000000000000000000000000000000000000000000000000000000008152600401610f2b90614abe565b60405180910390fd5b60005b83518110156113be57828181518110610f79577f4e487b7100000000000000000000000000000000000000000000000000000000600052603260045260246000fd5b6020026020010151600f600087815260200190815260200160002060003373ffffffffffffffffffffffffffffffffffffffff1673ffffffffffffffffffffffffffffffffffffffff168152602001908152602001600020600086848151811061100c577f4e487b7100000000000000000000000000000000000000000000000000000000600052603260045260246000fd5b602002602001015173ffffffffffffffffffffffffffffffffffffffff1673ffffffffffffffffffffffffffffffffffffffff1681526020019081526020016000205410156110f557843373ffffffffffffffffffffffffffffffffffffffff168583815181106110a6577f4e487b7100000000000000000000000000000000000000000000000000000000600052603260045260246000fd5b602002602001015173ffffffffffffffffffffffffffffffffffffffff167ff64fb5dbe1f9be11bb31ed7ee20099124c533e75903acb2f4c7ef2d0498e667b60405160405180910390a46113ab565b600073ffffffffffffffffffffffffffffffffffffffff16848281518110611146577f4e487b7100000000000000000000000000000000000000000000000000000000600052603260045260246000fd5b602002602001015173ffffffffffffffffffffffffffffffffffffffff16146113aa578281815181106111a2577f4e487b7100000000000000000000000000000000000000000000000000000000600052603260045260246000fd5b6020026020010151600f600087815260200190815260200160002060003373ffffffffffffffffffffffffffffffffffffffff1673ffffffffffffffffffffffffffffffffffffffff1681526020019081526020016000206000868481518110611235577f4e487b7100000000000000000000000000000000000000000000000000000000600052603260045260246000fd5b602002602001015173ffffffffffffffffffffffffffffffffffffffff1673ffffffffffffffffffffffffffffffffffffffff16815260200190815260200160002060008282546112869190614ccb565b9250508190555060008482815181106112c8577f4e487b7100000000000000000000000000000000000000000000000000000000600052603260045260246000fd5b602002602001015190508073ffffffffffffffffffffffffffffffffffffffff1663a9059cbb33868581518110611328577f4e487b7100000000000000000000000000000000000000000000000000000000600052603260045260246000fd5b60200260200101516040518363ffffffff1660e01b815260040161134d9291906146fd565b602060405180830381600087803b15801561136757600080fd5b505af115801561137b573d6000803e3d6000fd5b505050506040513d601f19601f8201168201806040525081019061139f9190613f2b565b6113a857600080fd5b505b5b80806113b690614e4c565b915050610f37565b50833373ffffffffffffffffffffffffffffffffffffffff167fb4214c8c54fc7442f36d3682f59aebaf09358a4431835b30efb29d52cf9e1e9160405160405180910390a350505050565b61143a7f65d7a28e3265b37a6474929f336521b332c1681b933f6cb9f3376673440d862a611435611e35565b611850565b611479576040517f08c379a000000000000000000000000000000000000000000000000000000000815260040161147090614a7e565b60405180910390fd5b611481612032565b565b61149e83838360405180602001604052806000815250611ad4565b505050565b6114b46114ae611e35565b826120d4565b6114f3576040517f08c379a00000000000000000000000000000000000000000000000000000000081526004016114ea90614a5e565b60405180910390fd5b6114fc816121b2565b50565b6000611509610c5f565b821061154a576040517f08c379a000000000000000000000000000000000000000000000000000000000815260040161154190614a1e565b60405180910390fd5b600a8281548110611584577f4e487b7100000000000000000000000000000000000000000000000000000000600052603260045260246000fd5b90600052602060002001549050919050565b6000600c60009054906101000a900460ff16905090565b6000806004600084815260200190815260200160002060009054906101000a900473ffffffffffffffffffffffffffffffffffffffff169050600073ffffffffffffffffffffffffffffffffffffffff168173ffffffffffffffffffffffffffffffffffffffff161415611656576040517f08c379a000000000000000000000000000000000000000000000000000000000815260040161164d9061491e565b60405180910390fd5b80915050919050565b6116907f9f2df0fed2c77648de5860a4cc508cd0818c85b8b8a1ab4ceeef8d981c8956a661168b611e35565b611850565b6116cf576040517f08c379a00000000000000000000000000000000000000000000000000000000081526004016116c690614a3e565b60405180910390fd5b6116e2816116dd600d6122c3565b6122d1565b6116ec600d61249f565b50565b60008073ffffffffffffffffffffffffffffffffffffffff168273ffffffffffffffffffffffffffffffffffffffff161415611760576040517f08c379a0000000000000000000000000000000000000000000000000000000008152600401611757906148fe565b60405180910390fd5b600560008373ffffffffffffffffffffffffffffffffffffffff1673ffffffffffffffffffffffffffffffffffffffff168152602001908152602001600020549050919050565b6117d87f65d7a28e3265b37a6474929f336521b332c1681b933f6cb9f3376673440d862a6117d3611e35565b611850565b611817576040517f08c379a000000000000000000000000000000000000000000000000000000000815260040161180e9061483e565b60405180910390fd5b61181f6124b5565b565b6000611848826001600086815260200190815260200160002061255890919063ffffffff16565b905092915050565b600080600084815260200190815260200160002060000160008373ffffffffffffffffffffffffffffffffffffffff1673ffffffffffffffffffffffffffffffffffffffff16815260200190815260200160002060009054906101000a900460ff16905092915050565b6060600380546118c990614de9565b80601f01602080910402602001604051908101604052809291908181526020018280546118f590614de9565b80156119425780601f1061191757610100808354040283529160200191611942565b820191906000526020600020905b81548152906001019060200180831161192557829003601f168201915b5050505050905090565b6000801b81565b61195b611e35565b73ffffffffffffffffffffffffffffffffffffffff168273ffffffffffffffffffffffffffffffffffffffff1614156119c9576040517f08c379a00000000000000000000000000000000000000000000000000000000081526004016119c09061487e565b60405180910390fd5b80600760006119d6611e35565b73ffffffffffffffffffffffffffffffffffffffff1673ffffffffffffffffffffffffffffffffffffffff16815260200190815260200160002060008473ffffffffffffffffffffffffffffffffffffffff1673ffffffffffffffffffffffffffffffffffffffff16815260200190815260200160002060006101000a81548160ff0219169083151502179055508173ffffffffffffffffffffffffffffffffffffffff16611a83611e35565b73ffffffffffffffffffffffffffffffffffffffff167f17307eab39ab6107e8899845ad3d59bd9653f200f220920489ca2b5937696c3183604051611ac89190614726565b60405180910390a35050565b611ae5611adf611e35565b836120d4565b611b24576040517f08c379a0000000000000000000000000000000000000000000000000000000008152600401611b1b906149fe565b60405180910390fd5b611b3084848484612572565b50505050565b6060611b4182611dc9565b611b80576040517f08c379a0000000000000000000000000000000000000000000000000000000008152600401611b779061499e565b60405180910390fd5b6000611b8a6125ce565b90506000815111611baa5760405180602001604052806000815250611bd5565b80611bb484612660565b604051602001611bc5929190614601565b6040516020818303038152906040525b915050919050565b6000611bfa6001600084815260200190815260200160002061280d565b9050919050565b7f9f2df0fed2c77648de5860a4cc508cd0818c85b8b8a1ab4ceeef8d981c8956a681565b611c2f8282612822565b611c54816001600085815260200190815260200160002061200290919063ffffffff16565b505050565b7f65d7a28e3265b37a6474929f336521b332c1681b933f6cb9f3376673440d862a81565b6000600760008473ffffffffffffffffffffffffffffffffffffffff1673ffffffffffffffffffffffffffffffffffffffff16815260200190815260200160002060008373ffffffffffffffffffffffffffffffffffffffff1673ffffffffffffffffffffffffffffffffffffffff16815260200190815260200160002060009054906101000a900460ff16905092915050565b611d1b828261284b565b5050565b6000611d47836000018373ffffffffffffffffffffffffffffffffffffffff1660001b61292b565b905092915050565b60007f780e9d63000000000000000000000000000000000000000000000000000000007bffffffffffffffffffffffffffffffffffffffffffffffffffffffff1916827bffffffffffffffffffffffffffffffffffffffffffffffffffffffff19161480611dc25750611dc18261299b565b5b9050919050565b60008073ffffffffffffffffffffffffffffffffffffffff166004600084815260200190815260200160002060009054906101000a900473ffffffffffffffffffffffffffffffffffffffff1673ffffffffffffffffffffffffffffffffffffffff1614159050919050565b600033905090565b816006600083815260200190815260200160002060006101000a81548173ffffffffffffffffffffffffffffffffffffffff021916908373ffffffffffffffffffffffffffffffffffffffff160217905550808273ffffffffffffffffffffffffffffffffffffffff16611eb0836115ad565b73ffffffffffffffffffffffffffffffffffffffff167f8c5be1e5ebec7d5bd14f71427d1e84f3dd0314c0f7b2291e5b200ac8c7c3b92560405160405180910390a45050565b611f07611f01611e35565b826120d4565b611f46576040517f08c379a0000000000000000000000000000000000000000000000000000000008152600401611f3d906149fe565b60405180910390fd5b611f51838383612a7d565b505050565b611f5f82610cb5565b611f7081611f6b611e35565b612cd9565b611f7a838361284b565b505050565b611f87611e35565b73ffffffffffffffffffffffffffffffffffffffff168173ffffffffffffffffffffffffffffffffffffffff1614611ff4576040517f08c379a0000000000000000000000000000000000000000000000000000000008152600401611feb90614a9e565b60405180910390fd5b611ffe8282612d76565b5050565b600061202a836000018373ffffffffffffffffffffffffffffffffffffffff1660001b612e57565b905092915050565b61203a611596565b612079576040517f08c379a0000000000000000000000000000000000000000000000000000000008152600401612070906147be565b60405180910390fd5b6000600c60006101000a81548160ff0219169083151502179055507f5db9ee0a495bf2e6ff9c91a7834c1ba4fdd244a5e8aa4e537bd38aeae4b073aa6120bd611e35565b6040516120ca919061465f565b60405180910390a1565b60006120df82611dc9565b61211e576040517f08c379a00000000000000000000000000000000000000000000000000000000081526004016121159061489e565b60405180910390fd5b6000612129836115ad565b90508073ffffffffffffffffffffffffffffffffffffffff168473ffffffffffffffffffffffffffffffffffffffff16148061219857508373ffffffffffffffffffffffffffffffffffffffff1661218084610755565b73ffffffffffffffffffffffffffffffffffffffff16145b806121a957506121a88185611c7d565b5b91505092915050565b60006121bd826115ad565b90506121cb81600084612fdd565b6121d6600083611e3d565b6001600560008373ffffffffffffffffffffffffffffffffffffffff1673ffffffffffffffffffffffffffffffffffffffff16815260200190815260200160002060008282546122269190614ccb565b925050819055506004600083815260200190815260200160002060006101000a81549073ffffffffffffffffffffffffffffffffffffffff021916905581600073ffffffffffffffffffffffffffffffffffffffff168273ffffffffffffffffffffffffffffffffffffffff167fddf252ad1be2c89b69c2b068fc378daa952ba7f163c4a11628f55a4df523b3ef60405160405180910390a45050565b600081600001549050919050565b600073ffffffffffffffffffffffffffffffffffffffff168273ffffffffffffffffffffffffffffffffffffffff161415612341576040517f08c379a00000000000000000000000000000000000000000000000000000000081526004016123389061493e565b60405180910390fd5b61234a81611dc9565b1561238a576040517f08c379a00000000000000000000000000000000000000000000000000000000081526004016123819061481e565b60405180910390fd5b61239660008383612fdd565b6001600560008473ffffffffffffffffffffffffffffffffffffffff1673ffffffffffffffffffffffffffffffffffffffff16815260200190815260200160002060008282546123e69190614bea565b92505081905550816004600083815260200190815260200160002060006101000a81548173ffffffffffffffffffffffffffffffffffffffff021916908373ffffffffffffffffffffffffffffffffffffffff160217905550808273ffffffffffffffffffffffffffffffffffffffff16600073ffffffffffffffffffffffffffffffffffffffff167fddf252ad1be2c89b69c2b068fc378daa952ba7f163c4a11628f55a4df523b3ef60405160405180910390a45050565b6001816000016000828254019250508190555050565b6124bd611596565b156124fd576040517f08c379a00000000000000000000000000000000000000000000000000000000081526004016124f4906148be565b60405180910390fd5b6001600c60006101000a81548160ff0219169083151502179055507f62e78cea01bee320cd4e420270b5ea74000d11b0c9f74754ebdbfc544b05a258612541611e35565b60405161254e919061465f565b60405180910390a1565b60006125678360000183612fed565b60001c905092915050565b61257d848484612a7d565b6125898484848461303e565b6125c8576040517f08c379a00000000000000000000000000000000000000000000000000000000081526004016125bf906147fe565b60405180910390fd5b50505050565b6060600e80546125dd90614de9565b80601f016020809104026020016040519081016040528092919081815260200182805461260990614de9565b80156126565780601f1061262b57610100808354040283529160200191612656565b820191906000526020600020905b81548152906001019060200180831161263957829003601f168201915b5050505050905090565b606060008214156126a8576040518060400160405280600181526020017f30000000000000000000000000000000000000000000000000000000000000008152509050612808565b600082905060005b600082146126da5780806126c390614e4c565b915050600a826126d39190614c40565b91506126b0565b60008167ffffffffffffffff81111561271c577f4e487b7100000000000000000000000000000000000000000000000000000000600052604160045260246000fd5b6040519080825280601f01601f19166020018201604052801561274e5781602001600182028036833780820191505090505b5090505b60008514612801576001826127679190614ccb565b9150600a856127769190614e95565b60306127829190614bea565b60f81b8183815181106127be577f4e487b7100000000000000000000000000000000000000000000000000000000600052603260045260246000fd5b60200101907effffffffffffffffffffffffffffffffffffffffffffffffffffffffffffff1916908160001a905350600a856127fa9190614c40565b9450612752565b8093505050505b919050565b600061281b826000016131d5565b9050919050565b61282b82610cb5565b61283c81612837611e35565b612cd9565b6128468383612d76565b505050565b6128558282611850565b61292757600160008084815260200190815260200160002060000160008373ffffffffffffffffffffffffffffffffffffffff1673ffffffffffffffffffffffffffffffffffffffff16815260200190815260200160002060006101000a81548160ff0219169083151502179055506128cc611e35565b73ffffffffffffffffffffffffffffffffffffffff168173ffffffffffffffffffffffffffffffffffffffff16837f2f8788117e7eff1d82e926ec794901d17c78024a50270940304540a733656f0d60405160405180910390a45b5050565b600061293783836131e6565b612990578260000182908060018154018082558091505060019003906000526020600020016000909190919091505582600001805490508360010160008481526020019081526020016000208190555060019050612995565b600090505b92915050565b60007f80ac58cd000000000000000000000000000000000000000000000000000000007bffffffffffffffffffffffffffffffffffffffffffffffffffffffff1916827bffffffffffffffffffffffffffffffffffffffffffffffffffffffff19161480612a6657507f5b5e139f000000000000000000000000000000000000000000000000000000007bffffffffffffffffffffffffffffffffffffffffffffffffffffffff1916827bffffffffffffffffffffffffffffffffffffffffffffffffffffffff1916145b80612a765750612a7582613209565b5b9050919050565b8273ffffffffffffffffffffffffffffffffffffffff16612a9d826115ad565b73ffffffffffffffffffffffffffffffffffffffff1614612af3576040517f08c379a0000000000000000000000000000000000000000000000000000000008152600401612aea9061497e565b60405180910390fd5b600073ffffffffffffffffffffffffffffffffffffffff168273ffffffffffffffffffffffffffffffffffffffff161415612b63576040517f08c379a0000000000000000000000000000000000000000000000000000000008152600401612b5a9061485e565b60405180910390fd5b612b6e838383612fdd565b612b79600082611e3d565b6001600560008573ffffffffffffffffffffffffffffffffffffffff1673ffffffffffffffffffffffffffffffffffffffff1681526020019081526020016000206000828254612bc99190614ccb565b925050819055506001600560008473ffffffffffffffffffffffffffffffffffffffff1673ffffffffffffffffffffffffffffffffffffffff1681526020019081526020016000206000828254612c209190614bea565b92505081905550816004600083815260200190815260200160002060006101000a81548173ffffffffffffffffffffffffffffffffffffffff021916908373ffffffffffffffffffffffffffffffffffffffff160217905550808273ffffffffffffffffffffffffffffffffffffffff168473ffffffffffffffffffffffffffffffffffffffff167fddf252ad1be2c89b69c2b068fc378daa952ba7f163c4a11628f55a4df523b3ef60405160405180910390a4505050565b612ce38282611850565b612d7257612d088173ffffffffffffffffffffffffffffffffffffffff166014613283565b612d168360001c6020613283565b604051602001612d27929190614625565b6040516020818303038152906040526040517f08c379a0000000000000000000000000000000000000000000000000000000008152600401612d69919061475c565b60405180910390fd5b5050565b612d808282611850565b15612e5357600080600084815260200190815260200160002060000160008373ffffffffffffffffffffffffffffffffffffffff1673ffffffffffffffffffffffffffffffffffffffff16815260200190815260200160002060006101000a81548160ff021916908315150217905550612df8611e35565b73ffffffffffffffffffffffffffffffffffffffff168173ffffffffffffffffffffffffffffffffffffffff16837ff6391f5c32d9c69d2a47ea670b442974b53935d1edc7fd64eb21e047a839171b60405160405180910390a45b5050565b60008083600101600084815260200190815260200160002054905060008114612fd1576000600182612e899190614ccb565b9050600060018660000180549050612ea19190614ccb565b9050818114612f5c576000866000018281548110612ee8577f4e487b7100000000000000000000000000000000000000000000000000000000600052603260045260246000fd5b9060005260206000200154905080876000018481548110612f32577f4e487b7100000000000000000000000000000000000000000000000000000000600052603260045260246000fd5b90600052602060002001819055508387600101600083815260200190815260200160002081905550505b85600001805480612f96577f4e487b7100000000000000000000000000000000000000000000000000000000600052603160045260246000fd5b600190038181906000526020600020016000905590558560010160008681526020019081526020016000206000905560019350505050612fd7565b60009150505b92915050565b612fe883838361357d565b505050565b600082600001828154811061302b577f4e487b7100000000000000000000000000000000000000000000000000000000600052603260045260246000fd5b9060005260206000200154905092915050565b600061305f8473ffffffffffffffffffffffffffffffffffffffff166135d5565b156131c8578373ffffffffffffffffffffffffffffffffffffffff1663150b7a02613088611e35565b8786866040518563ffffffff1660e01b81526004016130aa94939291906146b1565b602060405180830381600087803b1580156130c457600080fd5b505af19250505080156130f557506040513d601f19601f820116820180604052508101906130f2919061401e565b60015b613178573d8060008114613125576040519150601f19603f3d011682016040523d82523d6000602084013e61312a565b606091505b50600081511415613170576040517f08c379a0000000000000000000000000000000000000000000000000000000008152600401613167906147fe565b60405180910390fd5b805181602001fd5b63150b7a0260e01b7bffffffffffffffffffffffffffffffffffffffffffffffffffffffff1916817bffffffffffffffffffffffffffffffffffffffffffffffffffffffff1916149150506131cd565b600190505b949350505050565b600081600001805490509050919050565b600080836001016000848152602001908152602001600020541415905092915050565b60007f5a05180f000000000000000000000000000000000000000000000000000000007bffffffffffffffffffffffffffffffffffffffffffffffffffffffff1916827bffffffffffffffffffffffffffffffffffffffffffffffffffffffff1916148061327c575061327b826135e8565b5b9050919050565b6060600060028360026132969190614c71565b6132a09190614bea565b67ffffffffffffffff8111156132df577f4e487b7100000000000000000000000000000000000000000000000000000000600052604160045260246000fd5b6040519080825280601f01601f1916602001820160405280156133115781602001600182028036833780820191505090505b5090507f30000000000000000000000000000000000000000000000000000000000000008160008151811061336f577f4e487b7100000000000000000000000000000000000000000000000000000000600052603260045260246000fd5b60200101907effffffffffffffffffffffffffffffffffffffffffffffffffffffffffffff1916908160001a9053507f7800000000000000000000000000000000000000000000000000000000000000816001815181106133f9577f4e487b7100000000000000000000000000000000000000000000000000000000600052603260045260246000fd5b60200101907effffffffffffffffffffffffffffffffffffffffffffffffffffffffffffff1916908160001a905350600060018460026134399190614c71565b6134439190614bea565b90505b600181111561352f577f3031323334353637383961626364656600000000000000000000000000000000600f8616601081106134ab577f4e487b7100000000000000000000000000000000000000000000000000000000600052603260045260246000fd5b1a60f81b8282815181106134e8577f4e487b7100000000000000000000000000000000000000000000000000000000600052603260045260246000fd5b60200101907effffffffffffffffffffffffffffffffffffffffffffffffffffffffffffff1916908160001a905350600485901c94508061352890614dbf565b9050613446565b5060008414613573576040517f08c379a000000000000000000000000000000000000000000000000000000000815260040161356a9061477e565b60405180910390fd5b8091505092915050565b613588838383613662565b613590611596565b156135d0576040517f08c379a00000000000000000000000000000000000000000000000000000000081526004016135c79061479e565b60405180910390fd5b505050565b600080823b905060008111915050919050565b60007f7965db0b000000000000000000000000000000000000000000000000000000007bffffffffffffffffffffffffffffffffffffffffffffffffffffffff1916827bffffffffffffffffffffffffffffffffffffffffffffffffffffffff1916148061365b575061365a82613776565b5b9050919050565b61366d8383836137e0565b600073ffffffffffffffffffffffffffffffffffffffff168373ffffffffffffffffffffffffffffffffffffffff1614156136b0576136ab816137e5565b6136ef565b8173ffffffffffffffffffffffffffffffffffffffff168373ffffffffffffffffffffffffffffffffffffffff16146136ee576136ed838261382e565b5b5b600073ffffffffffffffffffffffffffffffffffffffff168273ffffffffffffffffffffffffffffffffffffffff1614156137325761372d8161399b565b613771565b8273ffffffffffffffffffffffffffffffffffffffff168273ffffffffffffffffffffffffffffffffffffffff16146137705761376f8282613ade565b5b5b505050565b60007f01ffc9a7000000000000000000000000000000000000000000000000000000007bffffffffffffffffffffffffffffffffffffffffffffffffffffffff1916827bffffffffffffffffffffffffffffffffffffffffffffffffffffffff1916149050919050565b505050565b600a80549050600b600083815260200190815260200160002081905550600a81908060018154018082558091505060019003906000526020600020016000909190919091505550565b6000600161383b846116ef565b6138459190614ccb565b905060006009600084815260200190815260200160002054905081811461392a576000600860008673ffffffffffffffffffffffffffffffffffffffff1673ffffffffffffffffffffffffffffffffffffffff168152602001908152602001600020600084815260200190815260200160002054905080600860008773ffffffffffffffffffffffffffffffffffffffff1673ffffffffffffffffffffffffffffffffffffffff168152602001908152602001600020600084815260200190815260200160002081905550816009600083815260200190815260200160002081905550505b6009600084815260200190815260200160002060009055600860008573ffffffffffffffffffffffffffffffffffffffff1673ffffffffffffffffffffffffffffffffffffffff16815260200190815260200160002060008381526020019081526020016000206000905550505050565b60006001600a805490506139af9190614ccb565b90506000600b60008481526020019081526020016000205490506000600a8381548110613a05577f4e487b7100000000000000000000000000000000000000000000000000000000600052603260045260246000fd5b9060005260206000200154905080600a8381548110613a4d577f4e487b7100000000000000000000000000000000000000000000000000000000600052603260045260246000fd5b906000526020600020018190555081600b600083815260200190815260200160002081905550600b600085815260200190815260200160002060009055600a805480613ac2577f4e487b7100000000000000000000000000000000000000000000000000000000600052603160045260246000fd5b6001900381819060005260206000200160009055905550505050565b6000613ae9836116ef565b905081600860008573ffffffffffffffffffffffffffffffffffffffff1673ffffffffffffffffffffffffffffffffffffffff168152602001908152602001600020600083815260200190815260200160002081905550806009600084815260200190815260200160002081905550505050565b6000613b70613b6b84614b1e565b614af9565b90508083825260208201905082856020860282011115613b8f57600080fd5b60005b85811015613bbf5781613ba58882613c73565b845260208401935060208301925050600181019050613b92565b5050509392505050565b6000613bdc613bd784614b4a565b614af9565b90508083825260208201905082856020860282011115613bfb57600080fd5b60005b85811015613c2b5781613c118882613d6f565b845260208401935060208301925050600181019050613bfe565b5050509392505050565b6000613c48613c4384614b76565b614af9565b905082815260208101848484011115613c6057600080fd5b613c6b848285614d7d565b509392505050565b600081359050613c8281615756565b92915050565b600082601f830112613c9957600080fd5b8135613ca9848260208601613b5d565b91505092915050565b600082601f830112613cc357600080fd5b8135613cd3848260208601613bc9565b91505092915050565b600081359050613ceb8161576d565b92915050565b600081519050613d008161576d565b92915050565b600081359050613d1581615784565b92915050565b600081359050613d2a8161579b565b92915050565b600081519050613d3f8161579b565b92915050565b600082601f830112613d5657600080fd5b8135613d66848260208601613c35565b91505092915050565b600081359050613d7e816157b2565b92915050565b600060208284031215613d9657600080fd5b6000613da484828501613c73565b91505092915050565b60008060408385031215613dc057600080fd5b6000613dce85828601613c73565b9250506020613ddf85828601613c73565b9150509250929050565b600080600060608486031215613dfe57600080fd5b6000613e0c86828701613c73565b9350506020613e1d86828701613c73565b9250506040613e2e86828701613d6f565b9150509250925092565b60008060008060808587031215613e4e57600080fd5b6000613e5c87828801613c73565b9450506020613e6d87828801613c73565b9350506040613e7e87828801613d6f565b925050606085013567ffffffffffffffff811115613e9b57600080fd5b613ea787828801613d45565b91505092959194509250565b60008060408385031215613ec657600080fd5b6000613ed485828601613c73565b9250506020613ee585828601613cdc565b9150509250929050565b60008060408385031215613f0257600080fd5b6000613f1085828601613c73565b9250506020613f2185828601613d6f565b9150509250929050565b600060208284031215613f3d57600080fd5b6000613f4b84828501613cf1565b91505092915050565b600060208284031215613f6657600080fd5b6000613f7484828501613d06565b91505092915050565b60008060408385031215613f9057600080fd5b6000613f9e85828601613d06565b9250506020613faf85828601613c73565b9150509250929050565b60008060408385031215613fcc57600080fd5b6000613fda85828601613d06565b9250506020613feb85828601613d6f565b9150509250929050565b60006020828403121561400757600080fd5b600061401584828501613d1b565b91505092915050565b60006020828403121561403057600080fd5b600061403e84828501613d30565b91505092915050565b60006020828403121561405957600080fd5b600061406784828501613d6f565b91505092915050565b6000806040838503121561408357600080fd5b600061409185828601613d6f565b92505060206140a285828601613c73565b9150509250929050565b6000806000606084860312156140c157600080fd5b60006140cf86828701613d6f565b935050602084013567ffffffffffffffff8111156140ec57600080fd5b6140f886828701613c88565b925050604084013567ffffffffffffffff81111561411557600080fd5b61412186828701613cb2565b9150509250925092565b61413481614cff565b82525050565b61414381614d11565b82525050565b61415281614d1d565b82525050565b600061416382614ba7565b61416d8185614bbd565b935061417d818560208601614d8c565b61418681614f82565b840191505092915050565b600061419c82614bb2565b6141a68185614bce565b93506141b6818560208601614d8c565b6141bf81614f82565b840191505092915050565b60006141d582614bb2565b6141df8185614bdf565b93506141ef818560208601614d8c565b80840191505092915050565b6000614208602083614bce565b915061421382614f93565b602082019050919050565b600061422b602b83614bce565b915061423682614fbc565b604082019050919050565b600061424e601483614bce565b91506142598261500b565b602082019050919050565b6000614271602b83614bce565b915061427c82615034565b604082019050919050565b6000614294603283614bce565b915061429f82615083565b604082019050919050565b60006142b7601c83614bce565b91506142c2826150d2565b602082019050919050565b60006142da603e83614bce565b91506142e5826150fb565b604082019050919050565b60006142fd602483614bce565b91506143088261514a565b604082019050919050565b6000614320601983614bce565b915061432b82615199565b602082019050919050565b6000614343602c83614bce565b915061434e826151c2565b604082019050919050565b6000614366601083614bce565b915061437182615211565b602082019050919050565b6000614389603883614bce565b91506143948261523a565b604082019050919050565b60006143ac602a83614bce565b91506143b782615289565b604082019050919050565b60006143cf602983614bce565b91506143da826152d8565b604082019050919050565b60006143f2602083614bce565b91506143fd82615327565b602082019050919050565b6000614415602c83614bce565b915061442082615350565b604082019050919050565b6000614438602983614bce565b91506144438261539f565b604082019050919050565b600061445b602f83614bce565b9150614466826153ee565b604082019050919050565b600061447e602683614bce565b91506144898261543d565b604082019050919050565b60006144a1602183614bce565b91506144ac8261548c565b604082019050919050565b60006144c4603183614bce565b91506144cf826154db565b604082019050919050565b60006144e7602c83614bce565b91506144f28261552a565b604082019050919050565b600061450a601783614bdf565b915061451582615579565b601782019050919050565b600061452d603d83614bce565b9150614538826155a2565b604082019050919050565b6000614550603083614bce565b915061455b826155f1565b604082019050919050565b6000614573604083614bce565b915061457e82615640565b604082019050919050565b6000614596601183614bdf565b91506145a18261568f565b601182019050919050565b60006145b9602f83614bce565b91506145c4826156b8565b604082019050919050565b60006145dc603483614bce565b91506145e782615707565b604082019050919050565b6145fb81614d73565b82525050565b600061460d82856141ca565b915061461982846141ca565b91508190509392505050565b6000614630826144fd565b915061463c82856141ca565b915061464782614589565b915061465382846141ca565b91508190509392505050565b6000602082019050614674600083018461412b565b92915050565b600060608201905061468f600083018661412b565b61469c602083018561412b565b6146a960408301846145f2565b949350505050565b60006080820190506146c6600083018761412b565b6146d3602083018661412b565b6146e060408301856145f2565b81810360608301526146f28184614158565b905095945050505050565b6000604082019050614712600083018561412b565b61471f60208301846145f2565b9392505050565b600060208201905061473b600083018461413a565b92915050565b60006020820190506147566000830184614149565b92915050565b600060208201905081810360008301526147768184614191565b905092915050565b60006020820190508181036000830152614797816141fb565b9050919050565b600060208201905081810360008301526147b78161421e565b9050919050565b600060208201905081810360008301526147d781614241565b9050919050565b600060208201905081810360008301526147f781614264565b9050919050565b6000602082019050818103600083015261481781614287565b9050919050565b60006020820190508181036000830152614837816142aa565b9050919050565b60006020820190508181036000830152614857816142cd565b9050919050565b60006020820190508181036000830152614877816142f0565b9050919050565b6000602082019050818103600083015261489781614313565b9050919050565b600060208201905081810360008301526148b781614336565b9050919050565b600060208201905081810360008301526148d781614359565b9050919050565b600060208201905081810360008301526148f78161437c565b9050919050565b600060208201905081810360008301526149178161439f565b9050919050565b60006020820190508181036000830152614937816143c2565b9050919050565b60006020820190508181036000830152614957816143e5565b9050919050565b6000602082019050818103600083015261497781614408565b9050919050565b600060208201905081810360008301526149978161442b565b9050919050565b600060208201905081810360008301526149b78161444e565b9050919050565b600060208201905081810360008301526149d781614471565b9050919050565b600060208201905081810360008301526149f781614494565b9050919050565b60006020820190508181036000830152614a17816144b7565b9050919050565b60006020820190508181036000830152614a37816144da565b9050919050565b60006020820190508181036000830152614a5781614520565b9050919050565b60006020820190508181036000830152614a7781614543565b9050919050565b60006020820190508181036000830152614a9781614566565b9050919050565b60006020820190508181036000830152614ab7816145ac565b9050919050565b60006020820190508181036000830152614ad7816145cf565b9050919050565b6000602082019050614af360008301846145f2565b92915050565b6000614b03614b14565b9050614b0f8282614e1b565b919050565b6000604051905090565b600067ffffffffffffffff821115614b3957614b38614f53565b5b602082029050602081019050919050565b600067ffffffffffffffff821115614b6557614b64614f53565b5b602082029050602081019050919050565b600067ffffffffffffffff821115614b9157614b90614f53565b5b614b9a82614f82565b9050602081019050919050565b600081519050919050565b600081519050919050565b600082825260208201905092915050565b600082825260208201905092915050565b600081905092915050565b6000614bf582614d73565b9150614c0083614d73565b9250827fffffffffffffffffffffffffffffffffffffffffffffffffffffffffffffffff03821115614c3557614c34614ec6565b5b828201905092915050565b6000614c4b82614d73565b9150614c5683614d73565b925082614c6657614c65614ef5565b5b828204905092915050565b6000614c7c82614d73565b9150614c8783614d73565b9250817fffffffffffffffffffffffffffffffffffffffffffffffffffffffffffffffff0483118215151615614cc057614cbf614ec6565b5b828202905092915050565b6000614cd682614d73565b9150614ce183614d73565b925082821015614cf457614cf3614ec6565b5b828203905092915050565b6000614d0a82614d53565b9050919050565b60008115159050919050565b6000819050919050565b60007fffffffff0000000000000000000000000000000000000000000000000000000082169050919050565b600073ffffffffffffffffffffffffffffffffffffffff82169050919050565b6000819050919050565b82818337600083830152505050565b60005b83811015614daa578082015181840152602081019050614d8f565b83811115614db9576000848401525b50505050565b6000614dca82614d73565b91506000821415614dde57614ddd614ec6565b5b600182039050919050565b60006002820490506001821680614e0157607f821691505b60208210811415614e1557614e14614f24565b5b50919050565b614e2482614f82565b810181811067ffffffffffffffff82111715614e4357614e42614f53565b5b80604052505050565b6000614e5782614d73565b91507fffffffffffffffffffffffffffffffffffffffffffffffffffffffffffffffff821415614e8a57614e89614ec6565b5b600182019050919050565b6000614ea082614d73565b9150614eab83614d73565b925082614ebb57614eba614ef5565b5b828206905092915050565b7f4e487b7100000000000000000000000000000000000000000000000000000000600052601160045260246000fd5b7f4e487b7100000000000000000000000000000000000000000000000000000000600052601260045260246000fd5b7f4e487b7100000000000000000000000000000000000000000000000000000000600052602260045260246000fd5b7f4e487b7100000000000000000000000000000000000000000000000000000000600052604160045260246000fd5b6000601f19601f8301169050919050565b7f537472696e67733a20686578206c656e67746820696e73756666696369656e74600082015250565b7f4552433732315061757361626c653a20746f6b656e207472616e73666572207760008201527f68696c6520706175736564000000000000000000000000000000000000000000602082015250565b7f5061757361626c653a206e6f7420706175736564000000000000000000000000600082015250565b7f455243373231456e756d657261626c653a206f776e657220696e646578206f7560008201527f74206f6620626f756e6473000000000000000000000000000000000000000000602082015250565b7f4552433732313a207472616e7366657220746f206e6f6e20455243373231526560008201527f63656976657220696d706c656d656e7465720000000000000000000000000000602082015250565b7f4552433732313a20746f6b656e20616c7265616479206d696e74656400000000600082015250565b7f4552433732315072657365744d696e7465725061757365724175746f49643a2060008201527f6d75737420686176652070617573657220726f6c6520746f2070617573650000602082015250565b7f4552433732313a207472616e7366657220746f20746865207a65726f2061646460008201527f7265737300000000000000000000000000000000000000000000000000000000602082015250565b7f4552433732313a20617070726f766520746f2063616c6c657200000000000000600082015250565b7f4552433732313a206f70657261746f7220717565727920666f72206e6f6e657860008201527f697374656e7420746f6b656e0000000000000000000000000000000000000000602082015250565b7f5061757361626c653a2070617573656400000000000000000000000000000000600082015250565b7f4552433732313a20617070726f76652063616c6c6572206973206e6f74206f7760008201527f6e6572206e6f7220617070726f76656420666f7220616c6c0000000000000000602082015250565b7f4552433732313a2062616c616e636520717565727920666f7220746865207a6560008201527f726f206164647265737300000000000000000000000000000000000000000000602082015250565b7f4552433732313a206f776e657220717565727920666f72206e6f6e657869737460008201527f656e7420746f6b656e0000000000000000000000000000000000000000000000602082015250565b7f4552433732313a206d696e7420746f20746865207a65726f2061646472657373600082015250565b7f4552433732313a20617070726f76656420717565727920666f72206e6f6e657860008201527f697374656e7420746f6b656e0000000000000000000000000000000000000000602082015250565b7f4552433732313a207472616e73666572206f6620746f6b656e2074686174206960008201527f73206e6f74206f776e0000000000000000000000000000000000000000000000602082015250565b7f4552433732314d657461646174613a2055524920717565727920666f72206e6f60008201527f6e6578697374656e7420746f6b656e0000000000000000000000000000000000602082015250565b7f4f6e6c7920746865206f776e65722063616e206d6f646966792074686569722060008201527f6173736574730000000000000000000000000000000000000000000000000000602082015250565b7f4552433732313a20617070726f76616c20746f2063757272656e74206f776e6560008201527f7200000000000000000000000000000000000000000000000000000000000000602082015250565b7f4552433732313a207472616e736665722063616c6c6572206973206e6f74206f60008201527f776e6572206e6f7220617070726f766564000000000000000000000000000000602082015250565b7f455243373231456e756d657261626c653a20676c6f62616c20696e646578206f60008201527f7574206f6620626f756e64730000000000000000000000000000000000000000602082015250565b7f416363657373436f6e74726f6c3a206163636f756e7420000000000000000000600082015250565b7f4552433732315072657365744d696e7465725061757365724175746f49643a2060008201527f6d7573742068617665206d696e74657220726f6c6520746f206d696e74000000602082015250565b7f4552433732314275726e61626c653a2063616c6c6572206973206e6f74206f7760008201527f6e6572206e6f7220617070726f76656400000000000000000000000000000000602082015250565b7f4552433732315072657365744d696e7465725061757365724175746f49643a2060008201527f6d75737420686176652070617573657220726f6c6520746f20756e7061757365602082015250565b7f206973206d697373696e6720726f6c6520000000000000000000000000000000600082015250565b7f416363657373436f6e74726f6c3a2063616e206f6e6c792072656e6f756e636560008201527f20726f6c657320666f722073656c660000000000000000000000000000000000602082015250565b7f4e756d626572206f662061737365747320616e64206e756d626572206f66206160008201527f6d6f756e7473206d75737420626520657175616c000000000000000000000000602082015250565b61575f81614cff565b811461576a57600080fd5b50565b61577681614d11565b811461578157600080fd5b50565b61578d81614d1d565b811461579857600080fd5b50565b6157a481614d27565b81146157af57600080fd5b50565b6157bb81614d73565b81146157c657600080fd5b5056fea2646970667358221220ae383a8ffe452b90be6ea60dcc5bbff5b472f4664c8931ba6b250b53ff74568964736f6c63430008040033",
  "immutableReferences": {},
  "source": "// SPDX-License-Identifier: MIT\npragma solidity ^0.8.0;\n\nimport \"@openzeppelin/contracts/token/ERC20/ERC20.sol\";\nimport \"@openzeppelin/contracts/token/ERC721/presets/ERC721PresetMinterPauserAutoId.sol\";\n\ncontract TrustlessTrust is ERC721PresetMinterPauserAutoId {\n\n    event LogDeposit(address indexed actor, uint indexed tokenId);\n    event LogWithdrawal(address indexed actor, uint indexed tokenId);\n    event LogInsufficientBalance(address indexed tokenAddress, address indexed actor, uint indexed tokenId);\n    event LogWithdrawalError(address indexed tokenAddress, address indexed actor, uint indexed tokenId);\n\n    // Token id => token owners => ERC20 address => ERC20 balance\n    mapping(uint => mapping(address => mapping(address => uint))) tokenBalances;\n\n    constructor() ERC721PresetMinterPauserAutoId(\n        \"TLT\",\n        \"Trustless Trust\",\n        \"\"\n    )\n    {}\n\n    modifier onlyTokenOwner(uint tokenId) {\n        require(ownerOf(tokenId) == msg.sender, \"Only the owner can modify their assets\");\n        _;\n    }\n\n    function balanceOf(uint tokenId, address tokenAddress) public returns (uint) {\n        return tokenBalances[tokenId][msg.sender][tokenAddress];\n    }\n\n    function deposit(uint tokenId, address[] memory assetAddresses, uint[] memory assetAmounts) public \n        onlyTokenOwner(tokenId) {\n        require(assetAddresses.length == assetAmounts.length, \"Number of assets and number of amounts must be equal\");\n        uint assetLength = assetAddresses.length;\n        for (uint i = 0; i < assetLength; i++) {\n            ERC20 erc20 = ERC20(assetAddresses[i]);\n            require(erc20.transferFrom(msg.sender, address(this), assetAmounts[i]));\n            tokenBalances[tokenId][msg.sender][assetAddresses[i]] += assetAmounts[i];\n        }\n\n        emit LogDeposit(msg.sender, tokenId);\n    }\n\n    function withdraw(uint tokenId, address[] memory assetAddresses, uint[] memory assetAmounts) public \n        onlyTokenOwner(tokenId) {\n        \n        require(assetAddresses.length == assetAmounts.length, \"Number of assets and number of amounts must be equal\");\n        for (uint i = 0; i < assetAddresses.length; i++) {\n            // Prevent reentrancy\n            // uint oldBalance = tokenBalances[tokenId][msg.sender][assetAddresses[i]];\n\n            if (tokenBalances[tokenId][msg.sender][assetAddresses[i]] < assetAmounts[i]) {\n                emit LogInsufficientBalance(assetAddresses[i], msg.sender, tokenId);\n            } else if (assetAddresses[i] != address(0)) {\n                tokenBalances[tokenId][msg.sender][assetAddresses[i]] -= assetAmounts[i];\n                ERC20 token = ERC20(assetAddresses[i]);\n                require(token.transfer(msg.sender, assetAmounts[i]));\n                // (bool success, bytes memory returnData) =\n                //     address(token).call( // This creates a low level call to the token\n                //         abi.encodePacked( // This encodes the function to call and the parameters to pass to that function\n                //             token.transfer.selector, // This is the function identifier of the function we want to call\n                //             abi.encode(msg.sender, assetAmounts[i]) // This encodes the parameter we want to pass to the function\n                //         )\n                //     );\n                // if (!success) {\n                //     tokenBalances[tokenId][msg.sender][assetAddresses[i]] = oldBalance;\n                //     emit LogWithdrawalError(assetAddresses[i], msg.sender, tokenId);\n                // }\n            }\n        }\n\n        emit LogWithdrawal(msg.sender, tokenId);\n    }\n\n    // Prevent wrapping with itself\n    function transferFrom(address _from, address _to, uint256 _tokenId) override public {\n        require(_to != address(this));\n        return super.transferFrom(_from, _to, _tokenId);\n    }\n}\n",
  "sourcePath": "/Users/harrisondahme/Projects/dapps/trustless-trust/contracts/TrustlessTrust.sol",
  "compiler": {
    "name": "solc",
    "version": "0.8.4+commit.c7e474f2.Emscripten.clang"
  },
  "schemaVersion": "3.4.3",
  "updatedAt": "2021-11-17T19:27:39.754Z",
  "networkType": "ethereum",
  "devdoc": {
    "kind": "dev",
    "methods": {
      "approve(address,uint256)": {
        "details": "See {IERC721-approve}."
      },
      "balanceOf(address)": {
        "details": "See {IERC721-balanceOf}."
      },
      "burn(uint256)": {
        "details": "Burns `tokenId`. See {ERC721-_burn}. Requirements: - The caller must own `tokenId` or be an approved operator."
      },
      "getApproved(uint256)": {
        "details": "See {IERC721-getApproved}."
      },
      "getRoleAdmin(bytes32)": {
        "details": "Returns the admin role that controls `role`. See {grantRole} and {revokeRole}. To change a role's admin, use {_setRoleAdmin}."
      },
      "getRoleMember(bytes32,uint256)": {
        "details": "Returns one of the accounts that have `role`. `index` must be a value between 0 and {getRoleMemberCount}, non-inclusive. Role bearers are not sorted in any particular way, and their ordering may change at any point. WARNING: When using {getRoleMember} and {getRoleMemberCount}, make sure you perform all queries on the same block. See the following https://forum.openzeppelin.com/t/iterating-over-elements-on-enumerableset-in-openzeppelin-contracts/2296[forum post] for more information."
      },
      "getRoleMemberCount(bytes32)": {
        "details": "Returns the number of accounts that have `role`. Can be used together with {getRoleMember} to enumerate all bearers of a role."
      },
      "grantRole(bytes32,address)": {
        "details": "Overload {grantRole} to track enumerable memberships"
      },
      "hasRole(bytes32,address)": {
        "details": "Returns `true` if `account` has been granted `role`."
      },
      "isApprovedForAll(address,address)": {
        "details": "See {IERC721-isApprovedForAll}."
      },
      "mint(address)": {
        "details": "Creates a new token for `to`. Its token ID will be automatically assigned (and available on the emitted {IERC721-Transfer} event), and the token URI autogenerated based on the base URI passed at construction. See {ERC721-_mint}. Requirements: - the caller must have the `MINTER_ROLE`."
      },
      "name()": {
        "details": "See {IERC721Metadata-name}."
      },
      "ownerOf(uint256)": {
        "details": "See {IERC721-ownerOf}."
      },
      "pause()": {
        "details": "Pauses all token transfers. See {ERC721Pausable} and {Pausable-_pause}. Requirements: - the caller must have the `PAUSER_ROLE`."
      },
      "paused()": {
        "details": "Returns true if the contract is paused, and false otherwise."
      },
      "renounceRole(bytes32,address)": {
        "details": "Overload {renounceRole} to track enumerable memberships"
      },
      "revokeRole(bytes32,address)": {
        "details": "Overload {revokeRole} to track enumerable memberships"
      },
      "safeTransferFrom(address,address,uint256)": {
        "details": "See {IERC721-safeTransferFrom}."
      },
      "safeTransferFrom(address,address,uint256,bytes)": {
        "details": "See {IERC721-safeTransferFrom}."
      },
      "setApprovalForAll(address,bool)": {
        "details": "See {IERC721-setApprovalForAll}."
      },
      "supportsInterface(bytes4)": {
        "details": "See {IERC165-supportsInterface}."
      },
      "symbol()": {
        "details": "See {IERC721Metadata-symbol}."
      },
      "tokenByIndex(uint256)": {
        "details": "See {IERC721Enumerable-tokenByIndex}."
      },
      "tokenOfOwnerByIndex(address,uint256)": {
        "details": "See {IERC721Enumerable-tokenOfOwnerByIndex}."
      },
      "tokenURI(uint256)": {
        "details": "See {IERC721Metadata-tokenURI}."
      },
      "totalSupply()": {
        "details": "See {IERC721Enumerable-totalSupply}."
      },
      "unpause()": {
        "details": "Unpauses all token transfers. See {ERC721Pausable} and {Pausable-_unpause}. Requirements: - the caller must have the `PAUSER_ROLE`."
      }
    },
    "version": 1
  },
  "userdoc": {
    "kind": "user",
    "methods": {},
    "version": 1
  }
}