{
  "contractName": "TrustlessTrust",
  "abi": [
    {
      "inputs": [],
      "stateMutability": "nonpayable",
      "type": "constructor"
    },
    {
      "anonymous": false,
      "inputs": [
        {
          "indexed": true,
          "internalType": "address",
          "name": "owner",
          "type": "address"
        },
        {
          "indexed": true,
          "internalType": "address",
          "name": "approved",
          "type": "address"
        },
        {
          "indexed": true,
          "internalType": "uint256",
          "name": "tokenId",
          "type": "uint256"
        }
      ],
      "name": "Approval",
      "type": "event"
    },
    {
      "anonymous": false,
      "inputs": [
        {
          "indexed": true,
          "internalType": "address",
          "name": "owner",
          "type": "address"
        },
        {
          "indexed": true,
          "internalType": "address",
          "name": "operator",
          "type": "address"
        },
        {
          "indexed": false,
          "internalType": "bool",
          "name": "approved",
          "type": "bool"
        }
      ],
      "name": "ApprovalForAll",
      "type": "event"
    },
    {
      "anonymous": false,
      "inputs": [
        {
          "indexed": false,
          "internalType": "address",
          "name": "account",
          "type": "address"
        }
      ],
      "name": "Paused",
      "type": "event"
    },
    {
      "anonymous": false,
      "inputs": [
        {
          "indexed": true,
          "internalType": "bytes32",
          "name": "role",
          "type": "bytes32"
        },
        {
          "indexed": true,
          "internalType": "bytes32",
          "name": "previousAdminRole",
          "type": "bytes32"
        },
        {
          "indexed": true,
          "internalType": "bytes32",
          "name": "newAdminRole",
          "type": "bytes32"
        }
      ],
      "name": "RoleAdminChanged",
      "type": "event"
    },
    {
      "anonymous": false,
      "inputs": [
        {
          "indexed": true,
          "internalType": "bytes32",
          "name": "role",
          "type": "bytes32"
        },
        {
          "indexed": true,
          "internalType": "address",
          "name": "account",
          "type": "address"
        },
        {
          "indexed": true,
          "internalType": "address",
          "name": "sender",
          "type": "address"
        }
      ],
      "name": "RoleGranted",
      "type": "event"
    },
    {
      "anonymous": false,
      "inputs": [
        {
          "indexed": true,
          "internalType": "bytes32",
          "name": "role",
          "type": "bytes32"
        },
        {
          "indexed": true,
          "internalType": "address",
          "name": "account",
          "type": "address"
        },
        {
          "indexed": true,
          "internalType": "address",
          "name": "sender",
          "type": "address"
        }
      ],
      "name": "RoleRevoked",
      "type": "event"
    },
    {
      "anonymous": false,
      "inputs": [
        {
          "indexed": true,
          "internalType": "address",
          "name": "from",
          "type": "address"
        },
        {
          "indexed": true,
          "internalType": "address",
          "name": "to",
          "type": "address"
        },
        {
          "indexed": true,
          "internalType": "uint256",
          "name": "tokenId",
          "type": "uint256"
        }
      ],
      "name": "Transfer",
      "type": "event"
    },
    {
      "anonymous": false,
      "inputs": [
        {
          "indexed": false,
          "internalType": "address",
          "name": "account",
          "type": "address"
        }
      ],
      "name": "Unpaused",
      "type": "event"
    },
    {
      "inputs": [],
      "name": "DEFAULT_ADMIN_ROLE",
      "outputs": [
        {
          "internalType": "bytes32",
          "name": "",
          "type": "bytes32"
        }
      ],
      "stateMutability": "view",
      "type": "function",
      "constant": true
    },
    {
      "inputs": [],
      "name": "MINTER_ROLE",
      "outputs": [
        {
          "internalType": "bytes32",
          "name": "",
          "type": "bytes32"
        }
      ],
      "stateMutability": "view",
      "type": "function",
      "constant": true
    },
    {
      "inputs": [],
      "name": "PAUSER_ROLE",
      "outputs": [
        {
          "internalType": "bytes32",
          "name": "",
          "type": "bytes32"
        }
      ],
      "stateMutability": "view",
      "type": "function",
      "constant": true
    },
    {
      "inputs": [
        {
          "internalType": "address",
          "name": "to",
          "type": "address"
        },
        {
          "internalType": "uint256",
          "name": "tokenId",
          "type": "uint256"
        }
      ],
      "name": "approve",
      "outputs": [],
      "stateMutability": "nonpayable",
      "type": "function"
    },
    {
      "inputs": [
        {
          "internalType": "address",
          "name": "owner",
          "type": "address"
        }
      ],
      "name": "balanceOf",
      "outputs": [
        {
          "internalType": "uint256",
          "name": "",
          "type": "uint256"
        }
      ],
      "stateMutability": "view",
      "type": "function",
      "constant": true
    },
    {
      "inputs": [
        {
          "internalType": "uint256",
          "name": "tokenId",
          "type": "uint256"
        }
      ],
      "name": "burn",
      "outputs": [],
      "stateMutability": "nonpayable",
      "type": "function"
    },
    {
      "inputs": [
        {
          "internalType": "uint256",
          "name": "tokenId",
          "type": "uint256"
        }
      ],
      "name": "getApproved",
      "outputs": [
        {
          "internalType": "address",
          "name": "",
          "type": "address"
        }
      ],
      "stateMutability": "view",
      "type": "function",
      "constant": true
    },
    {
      "inputs": [
        {
          "internalType": "bytes32",
          "name": "role",
          "type": "bytes32"
        }
      ],
      "name": "getRoleAdmin",
      "outputs": [
        {
          "internalType": "bytes32",
          "name": "",
          "type": "bytes32"
        }
      ],
      "stateMutability": "view",
      "type": "function",
      "constant": true
    },
    {
      "inputs": [
        {
          "internalType": "bytes32",
          "name": "role",
          "type": "bytes32"
        },
        {
          "internalType": "uint256",
          "name": "index",
          "type": "uint256"
        }
      ],
      "name": "getRoleMember",
      "outputs": [
        {
          "internalType": "address",
          "name": "",
          "type": "address"
        }
      ],
      "stateMutability": "view",
      "type": "function",
      "constant": true
    },
    {
      "inputs": [
        {
          "internalType": "bytes32",
          "name": "role",
          "type": "bytes32"
        }
      ],
      "name": "getRoleMemberCount",
      "outputs": [
        {
          "internalType": "uint256",
          "name": "",
          "type": "uint256"
        }
      ],
      "stateMutability": "view",
      "type": "function",
      "constant": true
    },
    {
      "inputs": [
        {
          "internalType": "bytes32",
          "name": "role",
          "type": "bytes32"
        },
        {
          "internalType": "address",
          "name": "account",
          "type": "address"
        }
      ],
      "name": "grantRole",
      "outputs": [],
      "stateMutability": "nonpayable",
      "type": "function"
    },
    {
      "inputs": [
        {
          "internalType": "bytes32",
          "name": "role",
          "type": "bytes32"
        },
        {
          "internalType": "address",
          "name": "account",
          "type": "address"
        }
      ],
      "name": "hasRole",
      "outputs": [
        {
          "internalType": "bool",
          "name": "",
          "type": "bool"
        }
      ],
      "stateMutability": "view",
      "type": "function",
      "constant": true
    },
    {
      "inputs": [
        {
          "internalType": "address",
          "name": "owner",
          "type": "address"
        },
        {
          "internalType": "address",
          "name": "operator",
          "type": "address"
        }
      ],
      "name": "isApprovedForAll",
      "outputs": [
        {
          "internalType": "bool",
          "name": "",
          "type": "bool"
        }
      ],
      "stateMutability": "view",
      "type": "function",
      "constant": true
    },
    {
      "inputs": [
        {
          "internalType": "address",
          "name": "to",
          "type": "address"
        }
      ],
      "name": "mint",
      "outputs": [],
      "stateMutability": "nonpayable",
      "type": "function"
    },
    {
      "inputs": [],
      "name": "name",
      "outputs": [
        {
          "internalType": "string",
          "name": "",
          "type": "string"
        }
      ],
      "stateMutability": "view",
      "type": "function",
      "constant": true
    },
    {
      "inputs": [
        {
          "internalType": "uint256",
          "name": "tokenId",
          "type": "uint256"
        }
      ],
      "name": "ownerOf",
      "outputs": [
        {
          "internalType": "address",
          "name": "",
          "type": "address"
        }
      ],
      "stateMutability": "view",
      "type": "function",
      "constant": true
    },
    {
      "inputs": [],
      "name": "pause",
      "outputs": [],
      "stateMutability": "nonpayable",
      "type": "function"
    },
    {
      "inputs": [],
      "name": "paused",
      "outputs": [
        {
          "internalType": "bool",
          "name": "",
          "type": "bool"
        }
      ],
      "stateMutability": "view",
      "type": "function",
      "constant": true
    },
    {
      "inputs": [
        {
          "internalType": "bytes32",
          "name": "role",
          "type": "bytes32"
        },
        {
          "internalType": "address",
          "name": "account",
          "type": "address"
        }
      ],
      "name": "renounceRole",
      "outputs": [],
      "stateMutability": "nonpayable",
      "type": "function"
    },
    {
      "inputs": [
        {
          "internalType": "bytes32",
          "name": "role",
          "type": "bytes32"
        },
        {
          "internalType": "address",
          "name": "account",
          "type": "address"
        }
      ],
      "name": "revokeRole",
      "outputs": [],
      "stateMutability": "nonpayable",
      "type": "function"
    },
    {
      "inputs": [
        {
          "internalType": "address",
          "name": "from",
          "type": "address"
        },
        {
          "internalType": "address",
          "name": "to",
          "type": "address"
        },
        {
          "internalType": "uint256",
          "name": "tokenId",
          "type": "uint256"
        }
      ],
      "name": "safeTransferFrom",
      "outputs": [],
      "stateMutability": "nonpayable",
      "type": "function"
    },
    {
      "inputs": [
        {
          "internalType": "address",
          "name": "from",
          "type": "address"
        },
        {
          "internalType": "address",
          "name": "to",
          "type": "address"
        },
        {
          "internalType": "uint256",
          "name": "tokenId",
          "type": "uint256"
        },
        {
          "internalType": "bytes",
          "name": "_data",
          "type": "bytes"
        }
      ],
      "name": "safeTransferFrom",
      "outputs": [],
      "stateMutability": "nonpayable",
      "type": "function"
    },
    {
      "inputs": [
        {
          "internalType": "address",
          "name": "operator",
          "type": "address"
        },
        {
          "internalType": "bool",
          "name": "approved",
          "type": "bool"
        }
      ],
      "name": "setApprovalForAll",
      "outputs": [],
      "stateMutability": "nonpayable",
      "type": "function"
    },
    {
      "inputs": [
        {
          "internalType": "bytes4",
          "name": "interfaceId",
          "type": "bytes4"
        }
      ],
      "name": "supportsInterface",
      "outputs": [
        {
          "internalType": "bool",
          "name": "",
          "type": "bool"
        }
      ],
      "stateMutability": "view",
      "type": "function",
      "constant": true
    },
    {
      "inputs": [],
      "name": "symbol",
      "outputs": [
        {
          "internalType": "string",
          "name": "",
          "type": "string"
        }
      ],
      "stateMutability": "view",
      "type": "function",
      "constant": true
    },
    {
      "inputs": [
        {
          "internalType": "uint256",
          "name": "index",
          "type": "uint256"
        }
      ],
      "name": "tokenByIndex",
      "outputs": [
        {
          "internalType": "uint256",
          "name": "",
          "type": "uint256"
        }
      ],
      "stateMutability": "view",
      "type": "function",
      "constant": true
    },
    {
      "inputs": [
        {
          "internalType": "address",
          "name": "owner",
          "type": "address"
        },
        {
          "internalType": "uint256",
          "name": "index",
          "type": "uint256"
        }
      ],
      "name": "tokenOfOwnerByIndex",
      "outputs": [
        {
          "internalType": "uint256",
          "name": "",
          "type": "uint256"
        }
      ],
      "stateMutability": "view",
      "type": "function",
      "constant": true
    },
    {
      "inputs": [
        {
          "internalType": "uint256",
          "name": "tokenId",
          "type": "uint256"
        }
      ],
      "name": "tokenURI",
      "outputs": [
        {
          "internalType": "string",
          "name": "",
          "type": "string"
        }
      ],
      "stateMutability": "view",
      "type": "function",
      "constant": true
    },
    {
      "inputs": [],
      "name": "totalSupply",
      "outputs": [
        {
          "internalType": "uint256",
          "name": "",
          "type": "uint256"
        }
      ],
      "stateMutability": "view",
      "type": "function",
      "constant": true
    },
    {
      "inputs": [
        {
          "internalType": "address",
          "name": "from",
          "type": "address"
        },
        {
          "internalType": "address",
          "name": "to",
          "type": "address"
        },
        {
          "internalType": "uint256",
          "name": "tokenId",
          "type": "uint256"
        }
      ],
      "name": "transferFrom",
      "outputs": [],
      "stateMutability": "nonpayable",
      "type": "function"
    },
    {
      "inputs": [],
      "name": "unpause",
      "outputs": [],
      "stateMutability": "nonpayable",
      "type": "function"
    },
    {
      "inputs": [
        {
          "internalType": "address[]",
          "name": "assetAddresses",
          "type": "address[]"
        },
        {
          "internalType": "uint256[]",
          "name": "assetAmounts",
          "type": "uint256[]"
        }
      ],
      "name": "create",
      "outputs": [],
      "stateMutability": "nonpayable",
      "type": "function"
    }
  ],
  "bytecode": "0x60806040523480156200001157600080fd5b506040518060400160405280600381526020017f544c5400000000000000000000000000000000000000000000000000000000008152506040518060400160405280600f81526020017f54727573746c65737320547275737400000000000000000000000000000000008152506040518060200160405280600081525082828160029080519060200190620000a89291906200043d565b508060039080519060200190620000c19291906200043d565b5050506000600c60006101000a81548160ff02191690831515021790555080600e9080519060200190620000f79291906200043d565b506200011c6000801b62000110620001a760201b60201c565b620001af60201b60201c565b6200015d7f9f2df0fed2c77648de5860a4cc508cd0818c85b8b8a1ab4ceeef8d981c8956a662000151620001a760201b60201c565b620001af60201b60201c565b6200019e7f65d7a28e3265b37a6474929f336521b332c1681b933f6cb9f3376673440d862a62000192620001a760201b60201c565b620001af60201b60201c565b50505062000552565b600033905090565b620001c68282620001f760201b620014bd1760201c565b620001f281600160008581526020019081526020016000206200020d60201b620014cb1790919060201c565b505050565b6200020982826200024560201b60201c565b5050565b60006200023d836000018373ffffffffffffffffffffffffffffffffffffffff1660001b6200033660201b60201c565b905092915050565b620002578282620003b060201b60201c565b6200033257600160008084815260200190815260200160002060000160008373ffffffffffffffffffffffffffffffffffffffff1673ffffffffffffffffffffffffffffffffffffffff16815260200190815260200160002060006101000a81548160ff021916908315150217905550620002d7620001a760201b60201c565b73ffffffffffffffffffffffffffffffffffffffff168173ffffffffffffffffffffffffffffffffffffffff16837f2f8788117e7eff1d82e926ec794901d17c78024a50270940304540a733656f0d60405160405180910390a45b5050565b60006200034a83836200041a60201b60201c565b620003a5578260000182908060018154018082558091505060019003906000526020600020016000909190919091505582600001805490508360010160008481526020019081526020016000208190555060019050620003aa565b600090505b92915050565b600080600084815260200190815260200160002060000160008373ffffffffffffffffffffffffffffffffffffffff1673ffffffffffffffffffffffffffffffffffffffff16815260200190815260200160002060009054906101000a900460ff16905092915050565b600080836001016000848152602001908152602001600020541415905092915050565b8280546200044b90620004ed565b90600052602060002090601f0160209004810192826200046f5760008555620004bb565b82601f106200048a57805160ff1916838001178555620004bb565b82800160010185558215620004bb579182015b82811115620004ba5782518255916020019190600101906200049d565b5b509050620004ca9190620004ce565b5090565b5b80821115620004e9576000816000905550600101620004cf565b5090565b600060028204905060018216806200050657607f821691505b602082108114156200051d576200051c62000523565b5b50919050565b7f4e487b7100000000000000000000000000000000000000000000000000000000600052602260045260246000fd5b614e4180620005626000396000f3fe608060405234801561001057600080fd5b50600436106101f05760003560e01c80636352211e1161010f578063a22cb465116100a2578063d539139311610071578063d5391393146105c7578063d547741f146105e5578063e63ab1e914610601578063e985e9c51461061f576101f0565b8063a22cb4651461052f578063b88d4fde1461054b578063c87b56dd14610567578063ca15c87314610597576101f0565b80639010d07c116100de5780639010d07c1461049357806391d14854146104c357806395d89b41146104f3578063a217fddf14610511576101f0565b80636352211e1461040d5780636a6278421461043d57806370a08231146104595780638456cb5914610489576101f0565b80632f745c591161018757806342966c681161015657806342966c68146103875780634f6ccce7146103a357806358d95a94146103d35780635c975abb146103ef576101f0565b80632f745c591461031557806336568abe146103455780633f4ba83a1461036157806342842e0e1461036b576101f0565b806318160ddd116101c357806318160ddd1461028f57806323b872dd146102ad578063248a9ca3146102c95780632f2ff15d146102f9576101f0565b806301ffc9a7146101f557806306fdde0314610225578063081812fc14610243578063095ea7b314610273575b600080fd5b61020f600480360381019061020a91906137ad565b61064f565b60405161021c9190613dd7565b60405180910390f35b61022d610661565b60405161023a9190613e0d565b60405180910390f35b61025d600480360381019061025891906137ff565b6106f3565b60405161026a9190613d39565b60405180910390f35b61028d6004803603810190610288919061363b565b610778565b005b610297610890565b6040516102a4919061416f565b60405180910390f35b6102c760048036038101906102c29190613535565b61089d565b005b6102e360048036038101906102de919061370c565b6108fd565b6040516102f09190613df2565b60405180910390f35b610313600480360381019061030e9190613735565b61091c565b005b61032f600480360381019061032a919061363b565b610950565b60405161033c919061416f565b60405180910390f35b61035f600480360381019061035a9190613735565b6109f5565b005b610369610a29565b005b61038560048036038101906103809190613535565b610aa3565b005b6103a1600480360381019061039c91906137ff565b610ac3565b005b6103bd60048036038101906103b891906137ff565b610b1f565b6040516103ca919061416f565b60405180910390f35b6103ed60048036038101906103e89190613677565b610bb6565b005b6103f7610d42565b6040516104049190613dd7565b60405180910390f35b610427600480360381019061042291906137ff565b610d59565b6040516104349190613d39565b60405180910390f35b610457600480360381019061045291906134d0565b610e0b565b005b610473600480360381019061046e91906134d0565b610e9b565b604051610480919061416f565b60405180910390f35b610491610f53565b005b6104ad60048036038101906104a89190613771565b610fcd565b6040516104ba9190613d39565b60405180910390f35b6104dd60048036038101906104d89190613735565b610ffc565b6040516104ea9190613dd7565b60405180910390f35b6104fb611066565b6040516105089190613e0d565b60405180910390f35b6105196110f8565b6040516105269190613df2565b60405180910390f35b610549600480360381019061054491906135ff565b6110ff565b005b61056560048036038101906105609190613584565b611280565b005b610581600480360381019061057c91906137ff565b6112e2565b60405161058e9190613e0d565b60405180910390f35b6105b160048036038101906105ac919061370c565b611389565b6040516105be919061416f565b60405180910390f35b6105cf6113ad565b6040516105dc9190613df2565b60405180910390f35b6105ff60048036038101906105fa9190613735565b6113d1565b005b610609611405565b6040516106169190613df2565b60405180910390f35b610639600480360381019061063491906134f9565b611429565b6040516106469190613dd7565b60405180910390f35b600061065a826114fb565b9050919050565b6060600280546106709061447a565b80601f016020809104026020016040519081016040528092919081815260200182805461069c9061447a565b80156106e95780601f106106be576101008083540402835291602001916106e9565b820191906000526020600020905b8154815290600101906020018083116106cc57829003601f168201915b5050505050905090565b60006106fe82611575565b61073d576040517f08c379a00000000000000000000000000000000000000000000000000000000081526004016107349061400f565b60405180910390fd5b6006600083815260200190815260200160002060009054906101000a900473ffffffffffffffffffffffffffffffffffffffff169050919050565b600061078382610d59565b90508073ffffffffffffffffffffffffffffffffffffffff168373ffffffffffffffffffffffffffffffffffffffff1614156107f4576040517f08c379a00000000000000000000000000000000000000000000000000000000081526004016107eb9061406f565b60405180910390fd5b8073ffffffffffffffffffffffffffffffffffffffff166108136115e1565b73ffffffffffffffffffffffffffffffffffffffff16148061084257506108418161083c6115e1565b611429565b5b610881576040517f08c379a000000000000000000000000000000000000000000000000000000000815260040161087890613f8f565b60405180910390fd5b61088b83836115e9565b505050565b6000600a80549050905090565b6108ae6108a86115e1565b826116a2565b6108ed576040517f08c379a00000000000000000000000000000000000000000000000000000000081526004016108e49061408f565b60405180910390fd5b6108f8838383611780565b505050565b6000806000838152602001908152602001600020600101549050919050565b61092682826119dc565b61094b81600160008581526020019081526020016000206114cb90919063ffffffff16565b505050565b600061095b83610e9b565b821061099c576040517f08c379a000000000000000000000000000000000000000000000000000000000815260040161099390613e8f565b60405180910390fd5b600860008473ffffffffffffffffffffffffffffffffffffffff1673ffffffffffffffffffffffffffffffffffffffff168152602001908152602001600020600083815260200190815260200160002054905092915050565b6109ff8282611a05565b610a248160016000858152602001908152602001600020611a8890919063ffffffff16565b505050565b610a5a7f65d7a28e3265b37a6474929f336521b332c1681b933f6cb9f3376673440d862a610a556115e1565b610ffc565b610a99576040517f08c379a0000000000000000000000000000000000000000000000000000000008152600401610a909061410f565b60405180910390fd5b610aa1611ab8565b565b610abe83838360405180602001604052806000815250611280565b505050565b610ad4610ace6115e1565b826116a2565b610b13576040517f08c379a0000000000000000000000000000000000000000000000000000000008152600401610b0a906140ef565b60405180910390fd5b610b1c81611b5a565b50565b6000610b29610890565b8210610b6a576040517f08c379a0000000000000000000000000000000000000000000000000000000008152600401610b61906140af565b60405180910390fd5b600a8281548110610ba4577f4e487b7100000000000000000000000000000000000000000000000000000000600052603260045260246000fd5b90600052602060002001549050919050565b8051825114610bfa576040517f08c379a0000000000000000000000000000000000000000000000000000000008152600401610bf19061414f565b60405180910390fd5b60008251905060005b81811015610d3c576000848281518110610c46577f4e487b7100000000000000000000000000000000000000000000000000000000600052603260045260246000fd5b602002602001015190508073ffffffffffffffffffffffffffffffffffffffff166323b872dd3330878681518110610ca7577f4e487b7100000000000000000000000000000000000000000000000000000000600052603260045260246000fd5b60200260200101516040518463ffffffff1660e01b8152600401610ccd93929190613d54565b602060405180830381600087803b158015610ce757600080fd5b505af1158015610cfb573d6000803e3d6000fd5b505050506040513d601f19601f82011682018060405250810190610d1f91906136e3565b610d2857600080fd5b508080610d34906144dd565b915050610c03565b50505050565b6000600c60009054906101000a900460ff16905090565b6000806004600084815260200190815260200160002060009054906101000a900473ffffffffffffffffffffffffffffffffffffffff169050600073ffffffffffffffffffffffffffffffffffffffff168173ffffffffffffffffffffffffffffffffffffffff161415610e02576040517f08c379a0000000000000000000000000000000000000000000000000000000008152600401610df990613fcf565b60405180910390fd5b80915050919050565b610e3c7f9f2df0fed2c77648de5860a4cc508cd0818c85b8b8a1ab4ceeef8d981c8956a6610e376115e1565b610ffc565b610e7b576040517f08c379a0000000000000000000000000000000000000000000000000000000008152600401610e72906140cf565b60405180910390fd5b610e8e81610e89600d611c6b565b611c79565b610e98600d611e47565b50565b60008073ffffffffffffffffffffffffffffffffffffffff168273ffffffffffffffffffffffffffffffffffffffff161415610f0c576040517f08c379a0000000000000000000000000000000000000000000000000000000008152600401610f0390613faf565b60405180910390fd5b600560008373ffffffffffffffffffffffffffffffffffffffff1673ffffffffffffffffffffffffffffffffffffffff168152602001908152602001600020549050919050565b610f847f65d7a28e3265b37a6474929f336521b332c1681b933f6cb9f3376673440d862a610f7f6115e1565b610ffc565b610fc3576040517f08c379a0000000000000000000000000000000000000000000000000000000008152600401610fba90613eef565b60405180910390fd5b610fcb611e5d565b565b6000610ff48260016000868152602001908152602001600020611f0090919063ffffffff16565b905092915050565b600080600084815260200190815260200160002060000160008373ffffffffffffffffffffffffffffffffffffffff1673ffffffffffffffffffffffffffffffffffffffff16815260200190815260200160002060009054906101000a900460ff16905092915050565b6060600380546110759061447a565b80601f01602080910402602001604051908101604052809291908181526020018280546110a19061447a565b80156110ee5780601f106110c3576101008083540402835291602001916110ee565b820191906000526020600020905b8154815290600101906020018083116110d157829003601f168201915b5050505050905090565b6000801b81565b6111076115e1565b73ffffffffffffffffffffffffffffffffffffffff168273ffffffffffffffffffffffffffffffffffffffff161415611175576040517f08c379a000000000000000000000000000000000000000000000000000000000815260040161116c90613f2f565b60405180910390fd5b80600760006111826115e1565b73ffffffffffffffffffffffffffffffffffffffff1673ffffffffffffffffffffffffffffffffffffffff16815260200190815260200160002060008473ffffffffffffffffffffffffffffffffffffffff1673ffffffffffffffffffffffffffffffffffffffff16815260200190815260200160002060006101000a81548160ff0219169083151502179055508173ffffffffffffffffffffffffffffffffffffffff1661122f6115e1565b73ffffffffffffffffffffffffffffffffffffffff167f17307eab39ab6107e8899845ad3d59bd9653f200f220920489ca2b5937696c31836040516112749190613dd7565b60405180910390a35050565b61129161128b6115e1565b836116a2565b6112d0576040517f08c379a00000000000000000000000000000000000000000000000000000000081526004016112c79061408f565b60405180910390fd5b6112dc84848484611f1a565b50505050565b60606112ed82611575565b61132c576040517f08c379a00000000000000000000000000000000000000000000000000000000081526004016113239061404f565b60405180910390fd5b6000611336611f76565b905060008151116113565760405180602001604052806000815250611381565b8061136084612008565b604051602001611371929190613cdb565b6040516020818303038152906040525b915050919050565b60006113a6600160008481526020019081526020016000206121b5565b9050919050565b7f9f2df0fed2c77648de5860a4cc508cd0818c85b8b8a1ab4ceeef8d981c8956a681565b6113db82826121ca565b6114008160016000858152602001908152602001600020611a8890919063ffffffff16565b505050565b7f65d7a28e3265b37a6474929f336521b332c1681b933f6cb9f3376673440d862a81565b6000600760008473ffffffffffffffffffffffffffffffffffffffff1673ffffffffffffffffffffffffffffffffffffffff16815260200190815260200160002060008373ffffffffffffffffffffffffffffffffffffffff1673ffffffffffffffffffffffffffffffffffffffff16815260200190815260200160002060009054906101000a900460ff16905092915050565b6114c782826121f3565b5050565b60006114f3836000018373ffffffffffffffffffffffffffffffffffffffff1660001b6122d3565b905092915050565b60007f780e9d63000000000000000000000000000000000000000000000000000000007bffffffffffffffffffffffffffffffffffffffffffffffffffffffff1916827bffffffffffffffffffffffffffffffffffffffffffffffffffffffff1916148061156e575061156d82612343565b5b9050919050565b60008073ffffffffffffffffffffffffffffffffffffffff166004600084815260200190815260200160002060009054906101000a900473ffffffffffffffffffffffffffffffffffffffff1673ffffffffffffffffffffffffffffffffffffffff1614159050919050565b600033905090565b816006600083815260200190815260200160002060006101000a81548173ffffffffffffffffffffffffffffffffffffffff021916908373ffffffffffffffffffffffffffffffffffffffff160217905550808273ffffffffffffffffffffffffffffffffffffffff1661165c83610d59565b73ffffffffffffffffffffffffffffffffffffffff167f8c5be1e5ebec7d5bd14f71427d1e84f3dd0314c0f7b2291e5b200ac8c7c3b92560405160405180910390a45050565b60006116ad82611575565b6116ec576040517f08c379a00000000000000000000000000000000000000000000000000000000081526004016116e390613f4f565b60405180910390fd5b60006116f783610d59565b90508073ffffffffffffffffffffffffffffffffffffffff168473ffffffffffffffffffffffffffffffffffffffff16148061176657508373ffffffffffffffffffffffffffffffffffffffff1661174e846106f3565b73ffffffffffffffffffffffffffffffffffffffff16145b8061177757506117768185611429565b5b91505092915050565b8273ffffffffffffffffffffffffffffffffffffffff166117a082610d59565b73ffffffffffffffffffffffffffffffffffffffff16146117f6576040517f08c379a00000000000000000000000000000000000000000000000000000000081526004016117ed9061402f565b60405180910390fd5b600073ffffffffffffffffffffffffffffffffffffffff168273ffffffffffffffffffffffffffffffffffffffff161415611866576040517f08c379a000000000000000000000000000000000000000000000000000000000815260040161185d90613f0f565b60405180910390fd5b611871838383612425565b61187c6000826115e9565b6001600560008573ffffffffffffffffffffffffffffffffffffffff1673ffffffffffffffffffffffffffffffffffffffff16815260200190815260200160002060008282546118cc919061435c565b925050819055506001600560008473ffffffffffffffffffffffffffffffffffffffff1673ffffffffffffffffffffffffffffffffffffffff1681526020019081526020016000206000828254611923919061427b565b92505081905550816004600083815260200190815260200160002060006101000a81548173ffffffffffffffffffffffffffffffffffffffff021916908373ffffffffffffffffffffffffffffffffffffffff160217905550808273ffffffffffffffffffffffffffffffffffffffff168473ffffffffffffffffffffffffffffffffffffffff167fddf252ad1be2c89b69c2b068fc378daa952ba7f163c4a11628f55a4df523b3ef60405160405180910390a4505050565b6119e5826108fd565b6119f6816119f16115e1565b612435565b611a0083836121f3565b505050565b611a0d6115e1565b73ffffffffffffffffffffffffffffffffffffffff168173ffffffffffffffffffffffffffffffffffffffff1614611a7a576040517f08c379a0000000000000000000000000000000000000000000000000000000008152600401611a719061412f565b60405180910390fd5b611a8482826124d2565b5050565b6000611ab0836000018373ffffffffffffffffffffffffffffffffffffffff1660001b6125b3565b905092915050565b611ac0610d42565b611aff576040517f08c379a0000000000000000000000000000000000000000000000000000000008152600401611af690613e6f565b60405180910390fd5b6000600c60006101000a81548160ff0219169083151502179055507f5db9ee0a495bf2e6ff9c91a7834c1ba4fdd244a5e8aa4e537bd38aeae4b073aa611b436115e1565b604051611b509190613d39565b60405180910390a1565b6000611b6582610d59565b9050611b7381600084612425565b611b7e6000836115e9565b6001600560008373ffffffffffffffffffffffffffffffffffffffff1673ffffffffffffffffffffffffffffffffffffffff1681526020019081526020016000206000828254611bce919061435c565b925050819055506004600083815260200190815260200160002060006101000a81549073ffffffffffffffffffffffffffffffffffffffff021916905581600073ffffffffffffffffffffffffffffffffffffffff168273ffffffffffffffffffffffffffffffffffffffff167fddf252ad1be2c89b69c2b068fc378daa952ba7f163c4a11628f55a4df523b3ef60405160405180910390a45050565b600081600001549050919050565b600073ffffffffffffffffffffffffffffffffffffffff168273ffffffffffffffffffffffffffffffffffffffff161415611ce9576040517f08c379a0000000000000000000000000000000000000000000000000000000008152600401611ce090613fef565b60405180910390fd5b611cf281611575565b15611d32576040517f08c379a0000000000000000000000000000000000000000000000000000000008152600401611d2990613ecf565b60405180910390fd5b611d3e60008383612425565b6001600560008473ffffffffffffffffffffffffffffffffffffffff1673ffffffffffffffffffffffffffffffffffffffff1681526020019081526020016000206000828254611d8e919061427b565b92505081905550816004600083815260200190815260200160002060006101000a81548173ffffffffffffffffffffffffffffffffffffffff021916908373ffffffffffffffffffffffffffffffffffffffff160217905550808273ffffffffffffffffffffffffffffffffffffffff16600073ffffffffffffffffffffffffffffffffffffffff167fddf252ad1be2c89b69c2b068fc378daa952ba7f163c4a11628f55a4df523b3ef60405160405180910390a45050565b6001816000016000828254019250508190555050565b611e65610d42565b15611ea5576040517f08c379a0000000000000000000000000000000000000000000000000000000008152600401611e9c90613f6f565b60405180910390fd5b6001600c60006101000a81548160ff0219169083151502179055507f62e78cea01bee320cd4e420270b5ea74000d11b0c9f74754ebdbfc544b05a258611ee96115e1565b604051611ef69190613d39565b60405180910390a1565b6000611f0f8360000183612739565b60001c905092915050565b611f25848484611780565b611f318484848461278a565b611f70576040517f08c379a0000000000000000000000000000000000000000000000000000000008152600401611f6790613eaf565b60405180910390fd5b50505050565b6060600e8054611f859061447a565b80601f0160208091040260200160405190810160405280929190818152602001828054611fb19061447a565b8015611ffe5780601f10611fd357610100808354040283529160200191611ffe565b820191906000526020600020905b815481529060010190602001808311611fe157829003601f168201915b5050505050905090565b60606000821415612050576040518060400160405280600181526020017f300000000000000000000000000000000000000000000000000000000000000081525090506121b0565b600082905060005b6000821461208257808061206b906144dd565b915050600a8261207b91906142d1565b9150612058565b60008167ffffffffffffffff8111156120c4577f4e487b7100000000000000000000000000000000000000000000000000000000600052604160045260246000fd5b6040519080825280601f01601f1916602001820160405280156120f65781602001600182028036833780820191505090505b5090505b600085146121a95760018261210f919061435c565b9150600a8561211e9190614526565b603061212a919061427b565b60f81b818381518110612166577f4e487b7100000000000000000000000000000000000000000000000000000000600052603260045260246000fd5b60200101907effffffffffffffffffffffffffffffffffffffffffffffffffffffffffffff1916908160001a905350600a856121a291906142d1565b94506120fa565b8093505050505b919050565b60006121c382600001612921565b9050919050565b6121d3826108fd565b6121e4816121df6115e1565b612435565b6121ee83836124d2565b505050565b6121fd8282610ffc565b6122cf57600160008084815260200190815260200160002060000160008373ffffffffffffffffffffffffffffffffffffffff1673ffffffffffffffffffffffffffffffffffffffff16815260200190815260200160002060006101000a81548160ff0219169083151502179055506122746115e1565b73ffffffffffffffffffffffffffffffffffffffff168173ffffffffffffffffffffffffffffffffffffffff16837f2f8788117e7eff1d82e926ec794901d17c78024a50270940304540a733656f0d60405160405180910390a45b5050565b60006122df8383612932565b61233857826000018290806001815401808255809150506001900390600052602060002001600090919091909150558260000180549050836001016000848152602001908152602001600020819055506001905061233d565b600090505b92915050565b60007f80ac58cd000000000000000000000000000000000000000000000000000000007bffffffffffffffffffffffffffffffffffffffffffffffffffffffff1916827bffffffffffffffffffffffffffffffffffffffffffffffffffffffff1916148061240e57507f5b5e139f000000000000000000000000000000000000000000000000000000007bffffffffffffffffffffffffffffffffffffffffffffffffffffffff1916827bffffffffffffffffffffffffffffffffffffffffffffffffffffffff1916145b8061241e575061241d82612955565b5b9050919050565b6124308383836129cf565b505050565b61243f8282610ffc565b6124ce576124648173ffffffffffffffffffffffffffffffffffffffff166014612a27565b6124728360001c6020612a27565b604051602001612483929190613cff565b6040516020818303038152906040526040517f08c379a00000000000000000000000000000000000000000000000000000000081526004016124c59190613e0d565b60405180910390fd5b5050565b6124dc8282610ffc565b156125af57600080600084815260200190815260200160002060000160008373ffffffffffffffffffffffffffffffffffffffff1673ffffffffffffffffffffffffffffffffffffffff16815260200190815260200160002060006101000a81548160ff0219169083151502179055506125546115e1565b73ffffffffffffffffffffffffffffffffffffffff168173ffffffffffffffffffffffffffffffffffffffff16837ff6391f5c32d9c69d2a47ea670b442974b53935d1edc7fd64eb21e047a839171b60405160405180910390a45b5050565b6000808360010160008481526020019081526020016000205490506000811461272d5760006001826125e5919061435c565b90506000600186600001805490506125fd919061435c565b90508181146126b8576000866000018281548110612644577f4e487b7100000000000000000000000000000000000000000000000000000000600052603260045260246000fd5b906000526020600020015490508087600001848154811061268e577f4e487b7100000000000000000000000000000000000000000000000000000000600052603260045260246000fd5b90600052602060002001819055508387600101600083815260200190815260200160002081905550505b856000018054806126f2577f4e487b7100000000000000000000000000000000000000000000000000000000600052603160045260246000fd5b600190038181906000526020600020016000905590558560010160008681526020019081526020016000206000905560019350505050612733565b60009150505b92915050565b6000826000018281548110612777577f4e487b7100000000000000000000000000000000000000000000000000000000600052603260045260246000fd5b9060005260206000200154905092915050565b60006127ab8473ffffffffffffffffffffffffffffffffffffffff16612d21565b15612914578373ffffffffffffffffffffffffffffffffffffffff1663150b7a026127d46115e1565b8786866040518563ffffffff1660e01b81526004016127f69493929190613d8b565b602060405180830381600087803b15801561281057600080fd5b505af192505050801561284157506040513d601f19601f8201168201806040525081019061283e91906137d6565b60015b6128c4573d8060008114612871576040519150601f19603f3d011682016040523d82523d6000602084013e612876565b606091505b506000815114156128bc576040517f08c379a00000000000000000000000000000000000000000000000000000000081526004016128b390613eaf565b60405180910390fd5b805181602001fd5b63150b7a0260e01b7bffffffffffffffffffffffffffffffffffffffffffffffffffffffff1916817bffffffffffffffffffffffffffffffffffffffffffffffffffffffff191614915050612919565b600190505b949350505050565b600081600001805490509050919050565b600080836001016000848152602001908152602001600020541415905092915050565b60007f5a05180f000000000000000000000000000000000000000000000000000000007bffffffffffffffffffffffffffffffffffffffffffffffffffffffff1916827bffffffffffffffffffffffffffffffffffffffffffffffffffffffff191614806129c857506129c782612d34565b5b9050919050565b6129da838383612dae565b6129e2610d42565b15612a22576040517f08c379a0000000000000000000000000000000000000000000000000000000008152600401612a1990613e4f565b60405180910390fd5b505050565b606060006002836002612a3a9190614302565b612a44919061427b565b67ffffffffffffffff811115612a83577f4e487b7100000000000000000000000000000000000000000000000000000000600052604160045260246000fd5b6040519080825280601f01601f191660200182016040528015612ab55781602001600182028036833780820191505090505b5090507f300000000000000000000000000000000000000000000000000000000000000081600081518110612b13577f4e487b7100000000000000000000000000000000000000000000000000000000600052603260045260246000fd5b60200101907effffffffffffffffffffffffffffffffffffffffffffffffffffffffffffff1916908160001a9053507f780000000000000000000000000000000000000000000000000000000000000081600181518110612b9d577f4e487b7100000000000000000000000000000000000000000000000000000000600052603260045260246000fd5b60200101907effffffffffffffffffffffffffffffffffffffffffffffffffffffffffffff1916908160001a90535060006001846002612bdd9190614302565b612be7919061427b565b90505b6001811115612cd3577f3031323334353637383961626364656600000000000000000000000000000000600f861660108110612c4f577f4e487b7100000000000000000000000000000000000000000000000000000000600052603260045260246000fd5b1a60f81b828281518110612c8c577f4e487b7100000000000000000000000000000000000000000000000000000000600052603260045260246000fd5b60200101907effffffffffffffffffffffffffffffffffffffffffffffffffffffffffffff1916908160001a905350600485901c945080612ccc90614450565b9050612bea565b5060008414612d17576040517f08c379a0000000000000000000000000000000000000000000000000000000008152600401612d0e90613e2f565b60405180910390fd5b8091505092915050565b600080823b905060008111915050919050565b60007f7965db0b000000000000000000000000000000000000000000000000000000007bffffffffffffffffffffffffffffffffffffffffffffffffffffffff1916827bffffffffffffffffffffffffffffffffffffffffffffffffffffffff19161480612da75750612da682612ec2565b5b9050919050565b612db9838383612f2c565b600073ffffffffffffffffffffffffffffffffffffffff168373ffffffffffffffffffffffffffffffffffffffff161415612dfc57612df781612f31565b612e3b565b8173ffffffffffffffffffffffffffffffffffffffff168373ffffffffffffffffffffffffffffffffffffffff1614612e3a57612e398382612f7a565b5b5b600073ffffffffffffffffffffffffffffffffffffffff168273ffffffffffffffffffffffffffffffffffffffff161415612e7e57612e79816130e7565b612ebd565b8273ffffffffffffffffffffffffffffffffffffffff168273ffffffffffffffffffffffffffffffffffffffff1614612ebc57612ebb828261322a565b5b5b505050565b60007f01ffc9a7000000000000000000000000000000000000000000000000000000007bffffffffffffffffffffffffffffffffffffffffffffffffffffffff1916827bffffffffffffffffffffffffffffffffffffffffffffffffffffffff1916149050919050565b505050565b600a80549050600b600083815260200190815260200160002081905550600a81908060018154018082558091505060019003906000526020600020016000909190919091505550565b60006001612f8784610e9b565b612f91919061435c565b9050600060096000848152602001908152602001600020549050818114613076576000600860008673ffffffffffffffffffffffffffffffffffffffff1673ffffffffffffffffffffffffffffffffffffffff168152602001908152602001600020600084815260200190815260200160002054905080600860008773ffffffffffffffffffffffffffffffffffffffff1673ffffffffffffffffffffffffffffffffffffffff168152602001908152602001600020600084815260200190815260200160002081905550816009600083815260200190815260200160002081905550505b6009600084815260200190815260200160002060009055600860008573ffffffffffffffffffffffffffffffffffffffff1673ffffffffffffffffffffffffffffffffffffffff16815260200190815260200160002060008381526020019081526020016000206000905550505050565b60006001600a805490506130fb919061435c565b90506000600b60008481526020019081526020016000205490506000600a8381548110613151577f4e487b7100000000000000000000000000000000000000000000000000000000600052603260045260246000fd5b9060005260206000200154905080600a8381548110613199577f4e487b7100000000000000000000000000000000000000000000000000000000600052603260045260246000fd5b906000526020600020018190555081600b600083815260200190815260200160002081905550600b600085815260200190815260200160002060009055600a80548061320e577f4e487b7100000000000000000000000000000000000000000000000000000000600052603160045260246000fd5b6001900381819060005260206000200160009055905550505050565b600061323583610e9b565b905081600860008573ffffffffffffffffffffffffffffffffffffffff1673ffffffffffffffffffffffffffffffffffffffff168152602001908152602001600020600083815260200190815260200160002081905550806009600084815260200190815260200160002081905550505050565b60006132bc6132b7846141af565b61418a565b905080838252602082019050828560208602820111156132db57600080fd5b60005b8581101561330b57816132f188826133bf565b8452602084019350602083019250506001810190506132de565b5050509392505050565b6000613328613323846141db565b61418a565b9050808382526020820190508285602086028201111561334757600080fd5b60005b85811015613377578161335d88826134bb565b84526020840193506020830192505060018101905061334a565b5050509392505050565b600061339461338f84614207565b61418a565b9050828152602081018484840111156133ac57600080fd5b6133b784828561440e565b509392505050565b6000813590506133ce81614d98565b92915050565b600082601f8301126133e557600080fd5b81356133f58482602086016132a9565b91505092915050565b600082601f83011261340f57600080fd5b813561341f848260208601613315565b91505092915050565b60008135905061343781614daf565b92915050565b60008151905061344c81614daf565b92915050565b60008135905061346181614dc6565b92915050565b60008135905061347681614ddd565b92915050565b60008151905061348b81614ddd565b92915050565b600082601f8301126134a257600080fd5b81356134b2848260208601613381565b91505092915050565b6000813590506134ca81614df4565b92915050565b6000602082840312156134e257600080fd5b60006134f0848285016133bf565b91505092915050565b6000806040838503121561350c57600080fd5b600061351a858286016133bf565b925050602061352b858286016133bf565b9150509250929050565b60008060006060848603121561354a57600080fd5b6000613558868287016133bf565b9350506020613569868287016133bf565b925050604061357a868287016134bb565b9150509250925092565b6000806000806080858703121561359a57600080fd5b60006135a8878288016133bf565b94505060206135b9878288016133bf565b93505060406135ca878288016134bb565b925050606085013567ffffffffffffffff8111156135e757600080fd5b6135f387828801613491565b91505092959194509250565b6000806040838503121561361257600080fd5b6000613620858286016133bf565b925050602061363185828601613428565b9150509250929050565b6000806040838503121561364e57600080fd5b600061365c858286016133bf565b925050602061366d858286016134bb565b9150509250929050565b6000806040838503121561368a57600080fd5b600083013567ffffffffffffffff8111156136a457600080fd5b6136b0858286016133d4565b925050602083013567ffffffffffffffff8111156136cd57600080fd5b6136d9858286016133fe565b9150509250929050565b6000602082840312156136f557600080fd5b60006137038482850161343d565b91505092915050565b60006020828403121561371e57600080fd5b600061372c84828501613452565b91505092915050565b6000806040838503121561374857600080fd5b600061375685828601613452565b9250506020613767858286016133bf565b9150509250929050565b6000806040838503121561378457600080fd5b600061379285828601613452565b92505060206137a3858286016134bb565b9150509250929050565b6000602082840312156137bf57600080fd5b60006137cd84828501613467565b91505092915050565b6000602082840312156137e857600080fd5b60006137f68482850161347c565b91505092915050565b60006020828403121561381157600080fd5b600061381f848285016134bb565b91505092915050565b61383181614390565b82525050565b613840816143a2565b82525050565b61384f816143ae565b82525050565b600061386082614238565b61386a818561424e565b935061387a81856020860161441d565b61388381614613565b840191505092915050565b600061389982614243565b6138a3818561425f565b93506138b381856020860161441d565b6138bc81614613565b840191505092915050565b60006138d282614243565b6138dc8185614270565b93506138ec81856020860161441d565b80840191505092915050565b600061390560208361425f565b915061391082614624565b602082019050919050565b6000613928602b8361425f565b91506139338261464d565b604082019050919050565b600061394b60148361425f565b91506139568261469c565b602082019050919050565b600061396e602b8361425f565b9150613979826146c5565b604082019050919050565b600061399160328361425f565b915061399c82614714565b604082019050919050565b60006139b4601c8361425f565b91506139bf82614763565b602082019050919050565b60006139d7603e8361425f565b91506139e28261478c565b604082019050919050565b60006139fa60248361425f565b9150613a05826147db565b604082019050919050565b6000613a1d60198361425f565b9150613a288261482a565b602082019050919050565b6000613a40602c8361425f565b9150613a4b82614853565b604082019050919050565b6000613a6360108361425f565b9150613a6e826148a2565b602082019050919050565b6000613a8660388361425f565b9150613a91826148cb565b604082019050919050565b6000613aa9602a8361425f565b9150613ab48261491a565b604082019050919050565b6000613acc60298361425f565b9150613ad782614969565b604082019050919050565b6000613aef60208361425f565b9150613afa826149b8565b602082019050919050565b6000613b12602c8361425f565b9150613b1d826149e1565b604082019050919050565b6000613b3560298361425f565b9150613b4082614a30565b604082019050919050565b6000613b58602f8361425f565b9150613b6382614a7f565b604082019050919050565b6000613b7b60218361425f565b9150613b8682614ace565b604082019050919050565b6000613b9e60318361425f565b9150613ba982614b1d565b604082019050919050565b6000613bc1602c8361425f565b9150613bcc82614b6c565b604082019050919050565b6000613be4601783614270565b9150613bef82614bbb565b601782019050919050565b6000613c07603d8361425f565b9150613c1282614be4565b604082019050919050565b6000613c2a60308361425f565b9150613c3582614c33565b604082019050919050565b6000613c4d60408361425f565b9150613c5882614c82565b604082019050919050565b6000613c70601183614270565b9150613c7b82614cd1565b601182019050919050565b6000613c93602f8361425f565b9150613c9e82614cfa565b604082019050919050565b6000613cb660348361425f565b9150613cc182614d49565b604082019050919050565b613cd581614404565b82525050565b6000613ce782856138c7565b9150613cf382846138c7565b91508190509392505050565b6000613d0a82613bd7565b9150613d1682856138c7565b9150613d2182613c63565b9150613d2d82846138c7565b91508190509392505050565b6000602082019050613d4e6000830184613828565b92915050565b6000606082019050613d696000830186613828565b613d766020830185613828565b613d836040830184613ccc565b949350505050565b6000608082019050613da06000830187613828565b613dad6020830186613828565b613dba6040830185613ccc565b8181036060830152613dcc8184613855565b905095945050505050565b6000602082019050613dec6000830184613837565b92915050565b6000602082019050613e076000830184613846565b92915050565b60006020820190508181036000830152613e27818461388e565b905092915050565b60006020820190508181036000830152613e48816138f8565b9050919050565b60006020820190508181036000830152613e688161391b565b9050919050565b60006020820190508181036000830152613e888161393e565b9050919050565b60006020820190508181036000830152613ea881613961565b9050919050565b60006020820190508181036000830152613ec881613984565b9050919050565b60006020820190508181036000830152613ee8816139a7565b9050919050565b60006020820190508181036000830152613f08816139ca565b9050919050565b60006020820190508181036000830152613f28816139ed565b9050919050565b60006020820190508181036000830152613f4881613a10565b9050919050565b60006020820190508181036000830152613f6881613a33565b9050919050565b60006020820190508181036000830152613f8881613a56565b9050919050565b60006020820190508181036000830152613fa881613a79565b9050919050565b60006020820190508181036000830152613fc881613a9c565b9050919050565b60006020820190508181036000830152613fe881613abf565b9050919050565b6000602082019050818103600083015261400881613ae2565b9050919050565b6000602082019050818103600083015261402881613b05565b9050919050565b6000602082019050818103600083015261404881613b28565b9050919050565b6000602082019050818103600083015261406881613b4b565b9050919050565b6000602082019050818103600083015261408881613b6e565b9050919050565b600060208201905081810360008301526140a881613b91565b9050919050565b600060208201905081810360008301526140c881613bb4565b9050919050565b600060208201905081810360008301526140e881613bfa565b9050919050565b6000602082019050818103600083015261410881613c1d565b9050919050565b6000602082019050818103600083015261412881613c40565b9050919050565b6000602082019050818103600083015261414881613c86565b9050919050565b6000602082019050818103600083015261416881613ca9565b9050919050565b60006020820190506141846000830184613ccc565b92915050565b60006141946141a5565b90506141a082826144ac565b919050565b6000604051905090565b600067ffffffffffffffff8211156141ca576141c96145e4565b5b602082029050602081019050919050565b600067ffffffffffffffff8211156141f6576141f56145e4565b5b602082029050602081019050919050565b600067ffffffffffffffff821115614222576142216145e4565b5b61422b82614613565b9050602081019050919050565b600081519050919050565b600081519050919050565b600082825260208201905092915050565b600082825260208201905092915050565b600081905092915050565b600061428682614404565b915061429183614404565b9250827fffffffffffffffffffffffffffffffffffffffffffffffffffffffffffffffff038211156142c6576142c5614557565b5b828201905092915050565b60006142dc82614404565b91506142e783614404565b9250826142f7576142f6614586565b5b828204905092915050565b600061430d82614404565b915061431883614404565b9250817fffffffffffffffffffffffffffffffffffffffffffffffffffffffffffffffff048311821515161561435157614350614557565b5b828202905092915050565b600061436782614404565b915061437283614404565b92508282101561438557614384614557565b5b828203905092915050565b600061439b826143e4565b9050919050565b60008115159050919050565b6000819050919050565b60007fffffffff0000000000000000000000000000000000000000000000000000000082169050919050565b600073ffffffffffffffffffffffffffffffffffffffff82169050919050565b6000819050919050565b82818337600083830152505050565b60005b8381101561443b578082015181840152602081019050614420565b8381111561444a576000848401525b50505050565b600061445b82614404565b9150600082141561446f5761446e614557565b5b600182039050919050565b6000600282049050600182168061449257607f821691505b602082108114156144a6576144a56145b5565b5b50919050565b6144b582614613565b810181811067ffffffffffffffff821117156144d4576144d36145e4565b5b80604052505050565b60006144e882614404565b91507fffffffffffffffffffffffffffffffffffffffffffffffffffffffffffffffff82141561451b5761451a614557565b5b600182019050919050565b600061453182614404565b915061453c83614404565b92508261454c5761454b614586565b5b828206905092915050565b7f4e487b7100000000000000000000000000000000000000000000000000000000600052601160045260246000fd5b7f4e487b7100000000000000000000000000000000000000000000000000000000600052601260045260246000fd5b7f4e487b7100000000000000000000000000000000000000000000000000000000600052602260045260246000fd5b7f4e487b7100000000000000000000000000000000000000000000000000000000600052604160045260246000fd5b6000601f19601f8301169050919050565b7f537472696e67733a20686578206c656e67746820696e73756666696369656e74600082015250565b7f4552433732315061757361626c653a20746f6b656e207472616e73666572207760008201527f68696c6520706175736564000000000000000000000000000000000000000000602082015250565b7f5061757361626c653a206e6f7420706175736564000000000000000000000000600082015250565b7f455243373231456e756d657261626c653a206f776e657220696e646578206f7560008201527f74206f6620626f756e6473000000000000000000000000000000000000000000602082015250565b7f4552433732313a207472616e7366657220746f206e6f6e20455243373231526560008201527f63656976657220696d706c656d656e7465720000000000000000000000000000602082015250565b7f4552433732313a20746f6b656e20616c7265616479206d696e74656400000000600082015250565b7f4552433732315072657365744d696e7465725061757365724175746f49643a2060008201527f6d75737420686176652070617573657220726f6c6520746f2070617573650000602082015250565b7f4552433732313a207472616e7366657220746f20746865207a65726f2061646460008201527f7265737300000000000000000000000000000000000000000000000000000000602082015250565b7f4552433732313a20617070726f766520746f2063616c6c657200000000000000600082015250565b7f4552433732313a206f70657261746f7220717565727920666f72206e6f6e657860008201527f697374656e7420746f6b656e0000000000000000000000000000000000000000602082015250565b7f5061757361626c653a2070617573656400000000000000000000000000000000600082015250565b7f4552433732313a20617070726f76652063616c6c6572206973206e6f74206f7760008201527f6e6572206e6f7220617070726f76656420666f7220616c6c0000000000000000602082015250565b7f4552433732313a2062616c616e636520717565727920666f7220746865207a6560008201527f726f206164647265737300000000000000000000000000000000000000000000602082015250565b7f4552433732313a206f776e657220717565727920666f72206e6f6e657869737460008201527f656e7420746f6b656e0000000000000000000000000000000000000000000000602082015250565b7f4552433732313a206d696e7420746f20746865207a65726f2061646472657373600082015250565b7f4552433732313a20617070726f76656420717565727920666f72206e6f6e657860008201527f697374656e7420746f6b656e0000000000000000000000000000000000000000602082015250565b7f4552433732313a207472616e73666572206f6620746f6b656e2074686174206960008201527f73206e6f74206f776e0000000000000000000000000000000000000000000000602082015250565b7f4552433732314d657461646174613a2055524920717565727920666f72206e6f60008201527f6e6578697374656e7420746f6b656e0000000000000000000000000000000000602082015250565b7f4552433732313a20617070726f76616c20746f2063757272656e74206f776e6560008201527f7200000000000000000000000000000000000000000000000000000000000000602082015250565b7f4552433732313a207472616e736665722063616c6c6572206973206e6f74206f60008201527f776e6572206e6f7220617070726f766564000000000000000000000000000000602082015250565b7f455243373231456e756d657261626c653a20676c6f62616c20696e646578206f60008201527f7574206f6620626f756e64730000000000000000000000000000000000000000602082015250565b7f416363657373436f6e74726f6c3a206163636f756e7420000000000000000000600082015250565b7f4552433732315072657365744d696e7465725061757365724175746f49643a2060008201527f6d7573742068617665206d696e74657220726f6c6520746f206d696e74000000602082015250565b7f4552433732314275726e61626c653a2063616c6c6572206973206e6f74206f7760008201527f6e6572206e6f7220617070726f76656400000000000000000000000000000000602082015250565b7f4552433732315072657365744d696e7465725061757365724175746f49643a2060008201527f6d75737420686176652070617573657220726f6c6520746f20756e7061757365602082015250565b7f206973206d697373696e6720726f6c6520000000000000000000000000000000600082015250565b7f416363657373436f6e74726f6c3a2063616e206f6e6c792072656e6f756e636560008201527f20726f6c657320666f722073656c660000000000000000000000000000000000602082015250565b7f4e756d626572206f662061737365747320616e64206e756d626572206f66206160008201527f6d6f756e7473206d75737420626520657175616c000000000000000000000000602082015250565b614da181614390565b8114614dac57600080fd5b50565b614db8816143a2565b8114614dc357600080fd5b50565b614dcf816143ae565b8114614dda57600080fd5b50565b614de6816143b8565b8114614df157600080fd5b50565b614dfd81614404565b8114614e0857600080fd5b5056fea264697066735822122055c536245a8de6e927dddd06b2c54af3b66bafa076224019526c8f2b331674d864736f6c63430008040033",
  "immutableReferences": {},
  "source": "// SPDX-License-Identifier: MIT\npragma solidity ^0.8.0;\n\nimport \"@openzeppelin/contracts/token/ERC20/ERC20.sol\";\nimport \"@openzeppelin/contracts/token/ERC721/presets/ERC721PresetMinterPauserAutoId.sol\";\n\ncontract TrustlessTrust is ERC721PresetMinterPauserAutoId {\n\n    constructor() ERC721PresetMinterPauserAutoId(\n        \"TLT\",\n        \"Trustless Trust\",\n        \"\"\n    )\n    {}\n\n    function create(address[] memory assetAddresses, uint[] memory assetAmounts) public {\n        require(assetAddresses.length == assetAmounts.length, \"Number of assets and number of amounts must be equal\");\n        uint assetLength = assetAddresses.length;\n        for (uint i=0; i<assetLength; i++) {\n            ERC20 erc20 = ERC20(assetAddresses[i]);\n            require(erc20.transferFrom(msg.sender, address(this), assetAmounts[i]));\n        }\n    }\n}\n",
  "sourcePath": "/Users/harrisondahme/Projects/dapps/trustless-trust/contracts/TrustlessTrust.sol",
  "compiler": {
    "name": "solc",
    "version": "0.8.4+commit.c7e474f2.Emscripten.clang"
  },
  "schemaVersion": "3.4.1",
  "updatedAt": "2021-09-21T05:47:50.386Z",
  "networkType": "ethereum",
  "devdoc": {
    "kind": "dev",
    "methods": {
      "approve(address,uint256)": {
        "details": "See {IERC721-approve}."
      },
      "balanceOf(address)": {
        "details": "See {IERC721-balanceOf}."
      },
      "burn(uint256)": {
        "details": "Burns `tokenId`. See {ERC721-_burn}. Requirements: - The caller must own `tokenId` or be an approved operator."
      },
      "getApproved(uint256)": {
        "details": "See {IERC721-getApproved}."
      },
      "getRoleAdmin(bytes32)": {
        "details": "Returns the admin role that controls `role`. See {grantRole} and {revokeRole}. To change a role's admin, use {_setRoleAdmin}."
      },
      "getRoleMember(bytes32,uint256)": {
        "details": "Returns one of the accounts that have `role`. `index` must be a value between 0 and {getRoleMemberCount}, non-inclusive. Role bearers are not sorted in any particular way, and their ordering may change at any point. WARNING: When using {getRoleMember} and {getRoleMemberCount}, make sure you perform all queries on the same block. See the following https://forum.openzeppelin.com/t/iterating-over-elements-on-enumerableset-in-openzeppelin-contracts/2296[forum post] for more information."
      },
      "getRoleMemberCount(bytes32)": {
        "details": "Returns the number of accounts that have `role`. Can be used together with {getRoleMember} to enumerate all bearers of a role."
      },
      "grantRole(bytes32,address)": {
        "details": "Overload {grantRole} to track enumerable memberships"
      },
      "hasRole(bytes32,address)": {
        "details": "Returns `true` if `account` has been granted `role`."
      },
      "isApprovedForAll(address,address)": {
        "details": "See {IERC721-isApprovedForAll}."
      },
      "mint(address)": {
        "details": "Creates a new token for `to`. Its token ID will be automatically assigned (and available on the emitted {IERC721-Transfer} event), and the token URI autogenerated based on the base URI passed at construction. See {ERC721-_mint}. Requirements: - the caller must have the `MINTER_ROLE`."
      },
      "name()": {
        "details": "See {IERC721Metadata-name}."
      },
      "ownerOf(uint256)": {
        "details": "See {IERC721-ownerOf}."
      },
      "pause()": {
        "details": "Pauses all token transfers. See {ERC721Pausable} and {Pausable-_pause}. Requirements: - the caller must have the `PAUSER_ROLE`."
      },
      "paused()": {
        "details": "Returns true if the contract is paused, and false otherwise."
      },
      "renounceRole(bytes32,address)": {
        "details": "Overload {renounceRole} to track enumerable memberships"
      },
      "revokeRole(bytes32,address)": {
        "details": "Overload {revokeRole} to track enumerable memberships"
      },
      "safeTransferFrom(address,address,uint256)": {
        "details": "See {IERC721-safeTransferFrom}."
      },
      "safeTransferFrom(address,address,uint256,bytes)": {
        "details": "See {IERC721-safeTransferFrom}."
      },
      "setApprovalForAll(address,bool)": {
        "details": "See {IERC721-setApprovalForAll}."
      },
      "supportsInterface(bytes4)": {
        "details": "See {IERC165-supportsInterface}."
      },
      "symbol()": {
        "details": "See {IERC721Metadata-symbol}."
      },
      "tokenByIndex(uint256)": {
        "details": "See {IERC721Enumerable-tokenByIndex}."
      },
      "tokenOfOwnerByIndex(address,uint256)": {
        "details": "See {IERC721Enumerable-tokenOfOwnerByIndex}."
      },
      "tokenURI(uint256)": {
        "details": "See {IERC721Metadata-tokenURI}."
      },
      "totalSupply()": {
        "details": "See {IERC721Enumerable-totalSupply}."
      },
      "transferFrom(address,address,uint256)": {
        "details": "See {IERC721-transferFrom}."
      },
      "unpause()": {
        "details": "Unpauses all token transfers. See {ERC721Pausable} and {Pausable-_unpause}. Requirements: - the caller must have the `PAUSER_ROLE`."
      }
    },
    "version": 1
  },
  "userdoc": {
    "kind": "user",
    "methods": {},
    "version": 1
  }
}